{
	"src/Contracts/MagicPixel.sol": {
		"MagicPixel": {
			"abi": [
				{
					"inputs": [],
					"stateMutability": "nonpayable",
					"type": "constructor"
				},
				{
					"anonymous": false,
					"inputs": [
						{
							"indexed": false,
							"internalType": "uint8",
							"name": "version",
							"type": "uint8"
						}
					],
					"name": "Initialized",
					"type": "event"
				},
				{
					"anonymous": false,
					"inputs": [
						{
							"indexed": true,
							"internalType": "address",
							"name": "previousOwner",
							"type": "address"
						},
						{
							"indexed": true,
							"internalType": "address",
							"name": "newOwner",
							"type": "address"
						}
					],
					"name": "OwnershipTransferred",
					"type": "event"
				},
				{
					"anonymous": false,
					"inputs": [
						{
							"indexed": false,
							"internalType": "address",
							"name": "account",
							"type": "address"
						}
					],
					"name": "Paused",
					"type": "event"
				},
				{
					"anonymous": false,
					"inputs": [
						{
							"indexed": false,
							"internalType": "address",
							"name": "account",
							"type": "address"
						}
					],
					"name": "Unpaused",
					"type": "event"
				},
				{
					"inputs": [],
					"name": "initialize",
					"outputs": [],
					"stateMutability": "nonpayable",
					"type": "function"
				},
				{
					"inputs": [
						{
							"internalType": "address",
							"name": "sender",
							"type": "address"
						},
						{
							"internalType": "uint8[]",
							"name": "rnds",
							"type": "uint8[]"
						}
					],
					"name": "mintPixels",
					"outputs": [],
					"stateMutability": "nonpayable",
					"type": "function"
				},
				{
					"inputs": [],
					"name": "nether",
					"outputs": [
						{
							"internalType": "address",
							"name": "",
							"type": "address"
						}
					],
					"stateMutability": "view",
					"type": "function"
				},
				{
					"inputs": [],
					"name": "owner",
					"outputs": [
						{
							"internalType": "address",
							"name": "",
							"type": "address"
						}
					],
					"stateMutability": "view",
					"type": "function"
				},
				{
					"inputs": [],
					"name": "pause",
					"outputs": [],
					"stateMutability": "nonpayable",
					"type": "function"
				},
				{
					"inputs": [],
					"name": "paused",
					"outputs": [
						{
							"internalType": "bool",
							"name": "",
							"type": "bool"
						}
					],
					"stateMutability": "view",
					"type": "function"
				},
				{
					"inputs": [],
					"name": "renounceOwnership",
					"outputs": [],
					"stateMutability": "nonpayable",
					"type": "function"
				},
				{
					"inputs": [
						{
							"internalType": "address",
							"name": "newNether",
							"type": "address"
						}
					],
					"name": "setNether",
					"outputs": [],
					"stateMutability": "nonpayable",
					"type": "function"
				},
				{
					"inputs": [
						{
							"internalType": "address",
							"name": "newOwner",
							"type": "address"
						}
					],
					"name": "transferOwnership",
					"outputs": [],
					"stateMutability": "nonpayable",
					"type": "function"
				},
				{
					"inputs": [],
					"name": "unpause",
					"outputs": [],
					"stateMutability": "nonpayable",
					"type": "function"
				}
			],
			"devdoc": {
				"kind": "dev",
				"methods": {
					"constructor": {
						"custom:oz-upgrades-unsafe-allow": "constructor"
					},
					"owner()": {
						"details": "Returns the address of the current owner."
					},
					"paused()": {
						"details": "Returns true if the contract is paused, and false otherwise."
					},
					"renounceOwnership()": {
						"details": "Leaves the contract without owner. It will not be possible to call `onlyOwner` functions anymore. Can only be called by the current owner. NOTE: Renouncing ownership will leave the contract without an owner, thereby removing any functionality that is only available to the owner."
					},
					"transferOwnership(address)": {
						"details": "Transfers ownership of the contract to a new account (`newOwner`). Can only be called by the current owner."
					}
				},
				"version": 1
			},
			"evm": {
				"assembly": "    /* \"src/Contracts/MagicPixel.sol\":296:1762  contract MagicPixel is Initializable, PausableUpgradeable, OwnableUpgradeable {... */\n  mstore(0x40, 0x80)\n    /* \"src/Contracts/MagicPixel.sol\":536:591  constructor() {... */\n  callvalue\n  dup1\n  iszero\n  tag_1\n  jumpi\n  0x00\n  dup1\n  revert\ntag_1:\n  pop\n    /* \"src/Contracts/MagicPixel.sol\":561:583  _disableInitializers() */\n  tag_4\n    /* \"src/Contracts/MagicPixel.sol\":561:581  _disableInitializers */\n  shl(0x20, tag_5)\n    /* \"src/Contracts/MagicPixel.sol\":561:583  _disableInitializers() */\n  0x20\n  shr\n  jump\t// in\ntag_4:\n    /* \"src/Contracts/MagicPixel.sol\":296:1762  contract MagicPixel is Initializable, PausableUpgradeable, OwnableUpgradeable {... */\n  jump(tag_6)\n    /* \"@openzeppelin/contracts-upgradeable/proxy/utils/Initializable.sol\":5928:6207  function _disableInitializers() internal virtual {... */\ntag_5:\n    /* \"@openzeppelin/contracts-upgradeable/proxy/utils/Initializable.sol\":5996:6009  _initializing */\n  0x00\n  0x01\n  swap1\n  sload\n  swap1\n  0x0100\n  exp\n  swap1\n  div\n  0xff\n  and\n    /* \"@openzeppelin/contracts-upgradeable/proxy/utils/Initializable.sol\":5995:6009  !_initializing */\n  iszero\n    /* \"@openzeppelin/contracts-upgradeable/proxy/utils/Initializable.sol\":5987:6053  require(!_initializing, \"Initializable: contract is initializing\") */\n  tag_8\n  jumpi\n  mload(0x40)\n  0x08c379a000000000000000000000000000000000000000000000000000000000\n  dup2\n  mstore\n  0x04\n  add\n  tag_9\n  swap1\n  tag_10\n  jump\t// in\ntag_9:\n  mload(0x40)\n  dup1\n  swap2\n  sub\n  swap1\n  revert\ntag_8:\n    /* \"@openzeppelin/contracts-upgradeable/proxy/utils/Initializable.sol\":6082:6097  type(uint8).max */\n  0xff\n    /* \"@openzeppelin/contracts-upgradeable/proxy/utils/Initializable.sol\":6067:6097  _initialized < type(uint8).max */\n  dup1\n  and\n    /* \"@openzeppelin/contracts-upgradeable/proxy/utils/Initializable.sol\":6067:6079  _initialized */\n  0x00\n  dup1\n  sload\n  swap1\n  0x0100\n  exp\n  swap1\n  div\n  0xff\n  and\n    /* \"@openzeppelin/contracts-upgradeable/proxy/utils/Initializable.sol\":6067:6097  _initialized < type(uint8).max */\n  0xff\n  and\n  lt\n    /* \"@openzeppelin/contracts-upgradeable/proxy/utils/Initializable.sol\":6063:6201  if (_initialized < type(uint8).max) {... */\n  iszero\n  tag_11\n  jumpi\n    /* \"@openzeppelin/contracts-upgradeable/proxy/utils/Initializable.sol\":6128:6143  type(uint8).max */\n  0xff\n    /* \"@openzeppelin/contracts-upgradeable/proxy/utils/Initializable.sol\":6113:6125  _initialized */\n  0x00\n  dup1\n    /* \"@openzeppelin/contracts-upgradeable/proxy/utils/Initializable.sol\":6113:6143  _initialized = type(uint8).max */\n  0x0100\n  exp\n  dup2\n  sload\n  dup2\n  0xff\n  mul\n  not\n  and\n  swap1\n  dup4\n  0xff\n  and\n  mul\n  or\n  swap1\n  sstore\n  pop\n    /* \"@openzeppelin/contracts-upgradeable/proxy/utils/Initializable.sol\":6162:6190  Initialized(type(uint8).max) */\n  0x7f26b83ff96e1f2b6a682f133852f6798a09c465da95921460cefb3847402498\n    /* \"@openzeppelin/contracts-upgradeable/proxy/utils/Initializable.sol\":6174:6189  type(uint8).max */\n  0xff\n    /* \"@openzeppelin/contracts-upgradeable/proxy/utils/Initializable.sol\":6162:6190  Initialized(type(uint8).max) */\n  mload(0x40)\n  tag_12\n  swap2\n  swap1\n  tag_13\n  jump\t// in\ntag_12:\n  mload(0x40)\n  dup1\n  swap2\n  sub\n  swap1\n  log1\n    /* \"@openzeppelin/contracts-upgradeable/proxy/utils/Initializable.sol\":6063:6201  if (_initialized < type(uint8).max) {... */\ntag_11:\n    /* \"@openzeppelin/contracts-upgradeable/proxy/utils/Initializable.sol\":5928:6207  function _disableInitializers() internal virtual {... */\n  jump\t// out\n    /* \"#utility.yul\":7:176   */\ntag_14:\n    /* \"#utility.yul\":91:102   */\n  0x00\n    /* \"#utility.yul\":125:131   */\n  dup3\n    /* \"#utility.yul\":120:123   */\n  dup3\n    /* \"#utility.yul\":113:132   */\n  mstore\n    /* \"#utility.yul\":165:169   */\n  0x20\n    /* \"#utility.yul\":160:163   */\n  dup3\n    /* \"#utility.yul\":156:170   */\n  add\n    /* \"#utility.yul\":141:170   */\n  swap1\n  pop\n    /* \"#utility.yul\":7:176   */\n  swap3\n  swap2\n  pop\n  pop\n  jump\t// out\n    /* \"#utility.yul\":182:408   */\ntag_15:\n    /* \"#utility.yul\":322:356   */\n  0x496e697469616c697a61626c653a20636f6e747261637420697320696e697469\n    /* \"#utility.yul\":318:319   */\n  0x00\n    /* \"#utility.yul\":310:316   */\n  dup3\n    /* \"#utility.yul\":306:320   */\n  add\n    /* \"#utility.yul\":299:357   */\n  mstore\n    /* \"#utility.yul\":391:400   */\n  0x616c697a696e6700000000000000000000000000000000000000000000000000\n    /* \"#utility.yul\":386:388   */\n  0x20\n    /* \"#utility.yul\":378:384   */\n  dup3\n    /* \"#utility.yul\":374:389   */\n  add\n    /* \"#utility.yul\":367:401   */\n  mstore\n    /* \"#utility.yul\":182:408   */\n  pop\n  jump\t// out\n    /* \"#utility.yul\":414:780   */\ntag_16:\n    /* \"#utility.yul\":556:559   */\n  0x00\n    /* \"#utility.yul\":577:644   */\n  tag_23\n    /* \"#utility.yul\":641:643   */\n  0x27\n    /* \"#utility.yul\":636:639   */\n  dup4\n    /* \"#utility.yul\":577:644   */\n  tag_14\n  jump\t// in\ntag_23:\n    /* \"#utility.yul\":570:644   */\n  swap2\n  pop\n    /* \"#utility.yul\":653:746   */\n  tag_24\n    /* \"#utility.yul\":742:745   */\n  dup3\n    /* \"#utility.yul\":653:746   */\n  tag_15\n  jump\t// in\ntag_24:\n    /* \"#utility.yul\":771:773   */\n  0x40\n    /* \"#utility.yul\":766:769   */\n  dup3\n    /* \"#utility.yul\":762:774   */\n  add\n    /* \"#utility.yul\":755:774   */\n  swap1\n  pop\n    /* \"#utility.yul\":414:780   */\n  swap2\n  swap1\n  pop\n  jump\t// out\n    /* \"#utility.yul\":786:1205   */\ntag_10:\n    /* \"#utility.yul\":952:956   */\n  0x00\n    /* \"#utility.yul\":990:992   */\n  0x20\n    /* \"#utility.yul\":979:988   */\n  dup3\n    /* \"#utility.yul\":975:993   */\n  add\n    /* \"#utility.yul\":967:993   */\n  swap1\n  pop\n    /* \"#utility.yul\":1039:1048   */\n  dup2\n    /* \"#utility.yul\":1033:1037   */\n  dup2\n    /* \"#utility.yul\":1029:1049   */\n  sub\n    /* \"#utility.yul\":1025:1026   */\n  0x00\n    /* \"#utility.yul\":1014:1023   */\n  dup4\n    /* \"#utility.yul\":1010:1027   */\n  add\n    /* \"#utility.yul\":1003:1050   */\n  mstore\n    /* \"#utility.yul\":1067:1198   */\n  tag_26\n    /* \"#utility.yul\":1193:1197   */\n  dup2\n    /* \"#utility.yul\":1067:1198   */\n  tag_16\n  jump\t// in\ntag_26:\n    /* \"#utility.yul\":1059:1198   */\n  swap1\n  pop\n    /* \"#utility.yul\":786:1205   */\n  swap2\n  swap1\n  pop\n  jump\t// out\n    /* \"#utility.yul\":1211:1297   */\ntag_17:\n    /* \"#utility.yul\":1246:1253   */\n  0x00\n    /* \"#utility.yul\":1286:1290   */\n  0xff\n    /* \"#utility.yul\":1279:1284   */\n  dup3\n    /* \"#utility.yul\":1275:1291   */\n  and\n    /* \"#utility.yul\":1264:1291   */\n  swap1\n  pop\n    /* \"#utility.yul\":1211:1297   */\n  swap2\n  swap1\n  pop\n  jump\t// out\n    /* \"#utility.yul\":1303:1415   */\ntag_18:\n    /* \"#utility.yul\":1386:1408   */\n  tag_29\n    /* \"#utility.yul\":1402:1407   */\n  dup2\n    /* \"#utility.yul\":1386:1408   */\n  tag_17\n  jump\t// in\ntag_29:\n    /* \"#utility.yul\":1381:1384   */\n  dup3\n    /* \"#utility.yul\":1374:1409   */\n  mstore\n    /* \"#utility.yul\":1303:1415   */\n  pop\n  pop\n  jump\t// out\n    /* \"#utility.yul\":1421:1635   */\ntag_13:\n    /* \"#utility.yul\":1510:1514   */\n  0x00\n    /* \"#utility.yul\":1548:1550   */\n  0x20\n    /* \"#utility.yul\":1537:1546   */\n  dup3\n    /* \"#utility.yul\":1533:1551   */\n  add\n    /* \"#utility.yul\":1525:1551   */\n  swap1\n  pop\n    /* \"#utility.yul\":1561:1628   */\n  tag_31\n    /* \"#utility.yul\":1625:1626   */\n  0x00\n    /* \"#utility.yul\":1614:1623   */\n  dup4\n    /* \"#utility.yul\":1610:1627   */\n  add\n    /* \"#utility.yul\":1601:1607   */\n  dup5\n    /* \"#utility.yul\":1561:1628   */\n  tag_18\n  jump\t// in\ntag_31:\n    /* \"#utility.yul\":1421:1635   */\n  swap3\n  swap2\n  pop\n  pop\n  jump\t// out\n    /* \"src/Contracts/MagicPixel.sol\":296:1762  contract MagicPixel is Initializable, PausableUpgradeable, OwnableUpgradeable {... */\ntag_6:\n  dataSize(sub_0)\n  dup1\n  dataOffset(sub_0)\n  0x00\n  codecopy\n  0x00\n  return\nstop\n\nsub_0: assembly {\n        /* \"src/Contracts/MagicPixel.sol\":296:1762  contract MagicPixel is Initializable, PausableUpgradeable, OwnableUpgradeable {... */\n      mstore(0x40, 0x80)\n      callvalue\n      dup1\n      iszero\n      tag_1\n      jumpi\n      0x00\n      dup1\n      revert\n    tag_1:\n      pop\n      jumpi(tag_2, lt(calldatasize, 0x04))\n      shr(0xe0, calldataload(0x00))\n      dup1\n      0x8456cb59\n      gt\n      tag_13\n      jumpi\n      dup1\n      0x8456cb59\n      eq\n      tag_8\n      jumpi\n      dup1\n      0x8da5cb5b\n      eq\n      tag_9\n      jumpi\n      dup1\n      0x9734489a\n      eq\n      tag_10\n      jumpi\n      dup1\n      0xa1c60fd9\n      eq\n      tag_11\n      jumpi\n      dup1\n      0xf2fde38b\n      eq\n      tag_12\n      jumpi\n      jump(tag_2)\n    tag_13:\n      dup1\n      0x3f4ba83a\n      eq\n      tag_3\n      jumpi\n      dup1\n      0x4aed4f5e\n      eq\n      tag_4\n      jumpi\n      dup1\n      0x5c975abb\n      eq\n      tag_5\n      jumpi\n      dup1\n      0x715018a6\n      eq\n      tag_6\n      jumpi\n      dup1\n      0x8129fc1c\n      eq\n      tag_7\n      jumpi\n    tag_2:\n      0x00\n      dup1\n      revert\n        /* \"src/Contracts/MagicPixel.sol\":780:845  function unpause() public onlyOwner {... */\n    tag_3:\n      tag_14\n      tag_15\n      jump\t// in\n    tag_14:\n      stop\n        /* \"src/Contracts/MagicPixel.sol\":1483:1759  function mintPixels(address sender, uint8[] calldata rnds) public onlyNether {... */\n    tag_4:\n      tag_16\n      0x04\n      dup1\n      calldatasize\n      sub\n      dup2\n      add\n      swap1\n      tag_17\n      swap2\n      swap1\n      tag_18\n      jump\t// in\n    tag_17:\n      tag_19\n      jump\t// in\n    tag_16:\n      stop\n        /* \"@openzeppelin/contracts-upgradeable/security/PausableUpgradeable.sol\":1858:1942  function paused() public view virtual returns (bool) {... */\n    tag_5:\n      tag_20\n      tag_21\n      jump\t// in\n    tag_20:\n      mload(0x40)\n      tag_22\n      swap2\n      swap1\n      tag_23\n      jump\t// in\n    tag_22:\n      mload(0x40)\n      dup1\n      swap2\n      sub\n      swap1\n      return\n        /* \"@openzeppelin/contracts-upgradeable/access/OwnableUpgradeable.sol\":2071:2172  function renounceOwnership() public virtual onlyOwner {... */\n    tag_6:\n      tag_24\n      tag_25\n      jump\t// in\n    tag_24:\n      stop\n        /* \"src/Contracts/MagicPixel.sol\":599:703  function initialize() initializer public {... */\n    tag_7:\n      tag_26\n      tag_27\n      jump\t// in\n    tag_26:\n      stop\n        /* \"src/Contracts/MagicPixel.sol\":711:772  function pause() public onlyOwner {... */\n    tag_8:\n      tag_28\n      tag_29\n      jump\t// in\n    tag_28:\n      stop\n        /* \"@openzeppelin/contracts-upgradeable/access/OwnableUpgradeable.sol\":1441:1526  function owner() public view virtual returns (address) {... */\n    tag_9:\n      tag_30\n      tag_31\n      jump\t// in\n    tag_30:\n      mload(0x40)\n      tag_32\n      swap2\n      swap1\n      tag_33\n      jump\t// in\n    tag_32:\n      mload(0x40)\n      dup1\n      swap2\n      sub\n      swap1\n      return\n        /* \"src/Contracts/MagicPixel.sol\":1175:1369  function setNether(address newNether) public virtual onlyOwner {... */\n    tag_10:\n      tag_34\n      0x04\n      dup1\n      calldatasize\n      sub\n      dup2\n      add\n      swap1\n      tag_35\n      swap2\n      swap1\n      tag_36\n      jump\t// in\n    tag_35:\n      tag_37\n      jump\t// in\n    tag_34:\n      stop\n        /* \"src/Contracts/MagicPixel.sol\":857:946  function nether() public view virtual returns (address) {... */\n    tag_11:\n      tag_38\n      tag_39\n      jump\t// in\n    tag_38:\n      mload(0x40)\n      tag_40\n      swap2\n      swap1\n      tag_33\n      jump\t// in\n    tag_40:\n      mload(0x40)\n      dup1\n      swap2\n      sub\n      swap1\n      return\n        /* \"@openzeppelin/contracts-upgradeable/access/OwnableUpgradeable.sol\":2321:2519  function transferOwnership(address newOwner) public virtual onlyOwner {... */\n    tag_12:\n      tag_41\n      0x04\n      dup1\n      calldatasize\n      sub\n      dup2\n      add\n      swap1\n      tag_42\n      swap2\n      swap1\n      tag_36\n      jump\t// in\n    tag_42:\n      tag_43\n      jump\t// in\n    tag_41:\n      stop\n        /* \"src/Contracts/MagicPixel.sol\":780:845  function unpause() public onlyOwner {... */\n    tag_15:\n        /* \"@openzeppelin/contracts-upgradeable/access/OwnableUpgradeable.sol\":1334:1347  _checkOwner() */\n      tag_45\n        /* \"@openzeppelin/contracts-upgradeable/access/OwnableUpgradeable.sol\":1334:1345  _checkOwner */\n      tag_46\n        /* \"@openzeppelin/contracts-upgradeable/access/OwnableUpgradeable.sol\":1334:1347  _checkOwner() */\n      jump\t// in\n    tag_45:\n        /* \"src/Contracts/MagicPixel.sol\":827:837  _unpause() */\n      tag_48\n        /* \"src/Contracts/MagicPixel.sol\":827:835  _unpause */\n      tag_49\n        /* \"src/Contracts/MagicPixel.sol\":827:837  _unpause() */\n      jump\t// in\n    tag_48:\n        /* \"src/Contracts/MagicPixel.sol\":780:845  function unpause() public onlyOwner {... */\n      jump\t// out\n        /* \"src/Contracts/MagicPixel.sol\":1483:1759  function mintPixels(address sender, uint8[] calldata rnds) public onlyNether {... */\n    tag_19:\n        /* \"src/Contracts/MagicPixel.sol\":1133:1147  _checkNether() */\n      tag_51\n        /* \"src/Contracts/MagicPixel.sol\":1133:1145  _checkNether */\n      tag_52\n        /* \"src/Contracts/MagicPixel.sol\":1133:1147  _checkNether() */\n      jump\t// in\n    tag_51:\n        /* \"src/Contracts/MagicPixel.sol\":1576:1583  uint8 i */\n      0x00\n        /* \"src/Contracts/MagicPixel.sol\":1571:1752  for (uint8 i = 0; i < 10; i++) {... */\n    tag_54:\n        /* \"src/Contracts/MagicPixel.sol\":1593:1595  10 */\n      0x0a\n        /* \"src/Contracts/MagicPixel.sol\":1589:1590  i */\n      dup2\n        /* \"src/Contracts/MagicPixel.sol\":1589:1595  i < 10 */\n      0xff\n      and\n      lt\n        /* \"src/Contracts/MagicPixel.sol\":1571:1752  for (uint8 i = 0; i < 10; i++) {... */\n      iszero\n      tag_55\n      jumpi\n        /* \"src/Contracts/MagicPixel.sol\":1617:1628  uint8 pxIdx */\n      0x00\n        /* \"src/Contracts/MagicPixel.sol\":1631:1635  rnds */\n      dup4\n      dup4\n        /* \"src/Contracts/MagicPixel.sol\":1636:1637  i */\n      dup4\n        /* \"src/Contracts/MagicPixel.sol\":1631:1638  rnds[i] */\n      0xff\n      and\n      dup2\n      dup2\n      lt\n      tag_57\n      jumpi\n      tag_58\n      tag_59\n      jump\t// in\n    tag_58:\n    tag_57:\n      swap1\n      pop\n      0x20\n      mul\n      add\n      0x20\n      dup2\n      add\n      swap1\n      tag_60\n      swap2\n      swap1\n      tag_61\n      jump\t// in\n    tag_60:\n        /* \"src/Contracts/MagicPixel.sol\":1617:1638  uint8 pxIdx = rnds[i] */\n      swap1\n      pop\n        /* \"src/Contracts/MagicPixel.sol\":1653:1667  uint256 amount */\n      0x00\n        /* \"src/Contracts/MagicPixel.sol\":1670:1676  pixels */\n      0x98\n        /* \"src/Contracts/MagicPixel.sol\":1670:1684  pixels[sender] */\n      0x00\n        /* \"src/Contracts/MagicPixel.sol\":1677:1683  sender */\n      dup8\n        /* \"src/Contracts/MagicPixel.sol\":1670:1684  pixels[sender] */\n      0xffffffffffffffffffffffffffffffffffffffff\n      and\n      0xffffffffffffffffffffffffffffffffffffffff\n      and\n      dup2\n      mstore\n      0x20\n      add\n      swap1\n      dup2\n      mstore\n      0x20\n      add\n      0x00\n      keccak256\n        /* \"src/Contracts/MagicPixel.sol\":1670:1691  pixels[sender][pxIdx] */\n      0x00\n        /* \"src/Contracts/MagicPixel.sol\":1685:1690  pxIdx */\n      dup4\n        /* \"src/Contracts/MagicPixel.sol\":1670:1691  pixels[sender][pxIdx] */\n      0xff\n      and\n      0xff\n      and\n      dup2\n      mstore\n      0x20\n      add\n      swap1\n      dup2\n      mstore\n      0x20\n      add\n      0x00\n      keccak256\n      sload\n        /* \"src/Contracts/MagicPixel.sol\":1653:1691  uint256 amount = pixels[sender][pxIdx] */\n      swap1\n      pop\n        /* \"src/Contracts/MagicPixel.sol\":1739:1740  1 */\n      0x01\n        /* \"src/Contracts/MagicPixel.sol\":1730:1736  amount */\n      dup2\n        /* \"src/Contracts/MagicPixel.sol\":1730:1740  amount + 1 */\n      tag_62\n      swap2\n      swap1\n      tag_63\n      jump\t// in\n    tag_62:\n        /* \"src/Contracts/MagicPixel.sol\":1706:1712  pixels */\n      0x98\n        /* \"src/Contracts/MagicPixel.sol\":1706:1720  pixels[sender] */\n      0x00\n        /* \"src/Contracts/MagicPixel.sol\":1713:1719  sender */\n      dup9\n        /* \"src/Contracts/MagicPixel.sol\":1706:1720  pixels[sender] */\n      0xffffffffffffffffffffffffffffffffffffffff\n      and\n      0xffffffffffffffffffffffffffffffffffffffff\n      and\n      dup2\n      mstore\n      0x20\n      add\n      swap1\n      dup2\n      mstore\n      0x20\n      add\n      0x00\n      keccak256\n        /* \"src/Contracts/MagicPixel.sol\":1706:1727  pixels[sender][pxIdx] */\n      0x00\n        /* \"src/Contracts/MagicPixel.sol\":1721:1726  pxIdx */\n      dup5\n        /* \"src/Contracts/MagicPixel.sol\":1706:1727  pixels[sender][pxIdx] */\n      0xff\n      and\n      0xff\n      and\n      dup2\n      mstore\n      0x20\n      add\n      swap1\n      dup2\n      mstore\n      0x20\n      add\n      0x00\n      keccak256\n        /* \"src/Contracts/MagicPixel.sol\":1706:1740  pixels[sender][pxIdx] = amount + 1 */\n      dup2\n      swap1\n      sstore\n      pop\n        /* \"src/Contracts/MagicPixel.sol\":1602:1752  {... */\n      pop\n      pop\n        /* \"src/Contracts/MagicPixel.sol\":1597:1600  i++ */\n      dup1\n      dup1\n      tag_64\n      swap1\n      tag_65\n      jump\t// in\n    tag_64:\n      swap2\n      pop\n      pop\n        /* \"src/Contracts/MagicPixel.sol\":1571:1752  for (uint8 i = 0; i < 10; i++) {... */\n      jump(tag_54)\n    tag_55:\n      pop\n        /* \"src/Contracts/MagicPixel.sol\":1483:1759  function mintPixels(address sender, uint8[] calldata rnds) public onlyNether {... */\n      pop\n      pop\n      pop\n      jump\t// out\n        /* \"@openzeppelin/contracts-upgradeable/security/PausableUpgradeable.sol\":1858:1942  function paused() public view virtual returns (bool) {... */\n    tag_21:\n        /* \"@openzeppelin/contracts-upgradeable/security/PausableUpgradeable.sol\":1905:1909  bool */\n      0x00\n        /* \"@openzeppelin/contracts-upgradeable/security/PausableUpgradeable.sol\":1928:1935  _paused */\n      0x33\n      0x00\n      swap1\n      sload\n      swap1\n      0x0100\n      exp\n      swap1\n      div\n      0xff\n      and\n        /* \"@openzeppelin/contracts-upgradeable/security/PausableUpgradeable.sol\":1921:1935  return _paused */\n      swap1\n      pop\n        /* \"@openzeppelin/contracts-upgradeable/security/PausableUpgradeable.sol\":1858:1942  function paused() public view virtual returns (bool) {... */\n      swap1\n      jump\t// out\n        /* \"@openzeppelin/contracts-upgradeable/access/OwnableUpgradeable.sol\":2071:2172  function renounceOwnership() public virtual onlyOwner {... */\n    tag_25:\n        /* \"@openzeppelin/contracts-upgradeable/access/OwnableUpgradeable.sol\":1334:1347  _checkOwner() */\n      tag_68\n        /* \"@openzeppelin/contracts-upgradeable/access/OwnableUpgradeable.sol\":1334:1345  _checkOwner */\n      tag_46\n        /* \"@openzeppelin/contracts-upgradeable/access/OwnableUpgradeable.sol\":1334:1347  _checkOwner() */\n      jump\t// in\n    tag_68:\n        /* \"@openzeppelin/contracts-upgradeable/access/OwnableUpgradeable.sol\":2135:2165  _transferOwnership(address(0)) */\n      tag_70\n        /* \"@openzeppelin/contracts-upgradeable/access/OwnableUpgradeable.sol\":2162:2163  0 */\n      0x00\n        /* \"@openzeppelin/contracts-upgradeable/access/OwnableUpgradeable.sol\":2135:2153  _transferOwnership */\n      tag_71\n        /* \"@openzeppelin/contracts-upgradeable/access/OwnableUpgradeable.sol\":2135:2165  _transferOwnership(address(0)) */\n      jump\t// in\n    tag_70:\n        /* \"@openzeppelin/contracts-upgradeable/access/OwnableUpgradeable.sol\":2071:2172  function renounceOwnership() public virtual onlyOwner {... */\n      jump\t// out\n        /* \"src/Contracts/MagicPixel.sol\":599:703  function initialize() initializer public {... */\n    tag_27:\n        /* \"@openzeppelin/contracts-upgradeable/proxy/utils/Initializable.sol\":3268:3287  bool isTopLevelCall */\n      0x00\n        /* \"@openzeppelin/contracts-upgradeable/proxy/utils/Initializable.sol\":3291:3304  _initializing */\n      dup1\n      0x01\n      swap1\n      sload\n      swap1\n      0x0100\n      exp\n      swap1\n      div\n      0xff\n      and\n        /* \"@openzeppelin/contracts-upgradeable/proxy/utils/Initializable.sol\":3290:3304  !_initializing */\n      iszero\n        /* \"@openzeppelin/contracts-upgradeable/proxy/utils/Initializable.sol\":3268:3304  bool isTopLevelCall = !_initializing */\n      swap1\n      pop\n        /* \"@openzeppelin/contracts-upgradeable/proxy/utils/Initializable.sol\":3336:3350  isTopLevelCall */\n      dup1\n        /* \"@openzeppelin/contracts-upgradeable/proxy/utils/Initializable.sol\":3336:3370  isTopLevelCall && _initialized < 1 */\n      dup1\n      iszero\n      tag_73\n      jumpi\n      pop\n        /* \"@openzeppelin/contracts-upgradeable/proxy/utils/Initializable.sol\":3369:3370  1 */\n      0x01\n        /* \"@openzeppelin/contracts-upgradeable/proxy/utils/Initializable.sol\":3354:3366  _initialized */\n      0x00\n      dup1\n      sload\n      swap1\n      0x0100\n      exp\n      swap1\n      div\n      0xff\n      and\n        /* \"@openzeppelin/contracts-upgradeable/proxy/utils/Initializable.sol\":3354:3370  _initialized < 1 */\n      0xff\n      and\n      lt\n        /* \"@openzeppelin/contracts-upgradeable/proxy/utils/Initializable.sol\":3336:3370  isTopLevelCall && _initialized < 1 */\n    tag_73:\n        /* \"@openzeppelin/contracts-upgradeable/proxy/utils/Initializable.sol\":3335:3443  (isTopLevelCall && _initialized < 1) || (!AddressUpgradeable.isContract(address(this)) && _initialized == 1) */\n      dup1\n      tag_74\n      jumpi\n      pop\n        /* \"@openzeppelin/contracts-upgradeable/proxy/utils/Initializable.sol\":3377:3421  AddressUpgradeable.isContract(address(this)) */\n      tag_75\n        /* \"@openzeppelin/contracts-upgradeable/proxy/utils/Initializable.sol\":3415:3419  this */\n      address\n        /* \"@openzeppelin/contracts-upgradeable/proxy/utils/Initializable.sol\":3377:3406  AddressUpgradeable.isContract */\n      tag_76\n        /* \"@openzeppelin/contracts-upgradeable/proxy/utils/Initializable.sol\":3377:3421  AddressUpgradeable.isContract(address(this)) */\n      jump\t// in\n    tag_75:\n        /* \"@openzeppelin/contracts-upgradeable/proxy/utils/Initializable.sol\":3376:3421  !AddressUpgradeable.isContract(address(this)) */\n      iszero\n        /* \"@openzeppelin/contracts-upgradeable/proxy/utils/Initializable.sol\":3376:3442  !AddressUpgradeable.isContract(address(this)) && _initialized == 1 */\n      dup1\n      iszero\n      tag_77\n      jumpi\n      pop\n        /* \"@openzeppelin/contracts-upgradeable/proxy/utils/Initializable.sol\":3441:3442  1 */\n      0x01\n        /* \"@openzeppelin/contracts-upgradeable/proxy/utils/Initializable.sol\":3425:3437  _initialized */\n      0x00\n      dup1\n      sload\n      swap1\n      0x0100\n      exp\n      swap1\n      div\n      0xff\n      and\n        /* \"@openzeppelin/contracts-upgradeable/proxy/utils/Initializable.sol\":3425:3442  _initialized == 1 */\n      0xff\n      and\n      eq\n        /* \"@openzeppelin/contracts-upgradeable/proxy/utils/Initializable.sol\":3376:3442  !AddressUpgradeable.isContract(address(this)) && _initialized == 1 */\n    tag_77:\n        /* \"@openzeppelin/contracts-upgradeable/proxy/utils/Initializable.sol\":3335:3443  (isTopLevelCall && _initialized < 1) || (!AddressUpgradeable.isContract(address(this)) && _initialized == 1) */\n    tag_74:\n        /* \"@openzeppelin/contracts-upgradeable/proxy/utils/Initializable.sol\":3314:3515  require(... */\n      tag_78\n      jumpi\n      mload(0x40)\n      0x08c379a000000000000000000000000000000000000000000000000000000000\n      dup2\n      mstore\n      0x04\n      add\n      tag_79\n      swap1\n      tag_80\n      jump\t// in\n    tag_79:\n      mload(0x40)\n      dup1\n      swap2\n      sub\n      swap1\n      revert\n    tag_78:\n        /* \"@openzeppelin/contracts-upgradeable/proxy/utils/Initializable.sol\":3540:3541  1 */\n      0x01\n        /* \"@openzeppelin/contracts-upgradeable/proxy/utils/Initializable.sol\":3525:3537  _initialized */\n      0x00\n      dup1\n        /* \"@openzeppelin/contracts-upgradeable/proxy/utils/Initializable.sol\":3525:3541  _initialized = 1 */\n      0x0100\n      exp\n      dup2\n      sload\n      dup2\n      0xff\n      mul\n      not\n      and\n      swap1\n      dup4\n      0xff\n      and\n      mul\n      or\n      swap1\n      sstore\n      pop\n        /* \"@openzeppelin/contracts-upgradeable/proxy/utils/Initializable.sol\":3555:3569  isTopLevelCall */\n      dup1\n        /* \"@openzeppelin/contracts-upgradeable/proxy/utils/Initializable.sol\":3551:3616  if (isTopLevelCall) {... */\n      iszero\n      tag_81\n      jumpi\n        /* \"@openzeppelin/contracts-upgradeable/proxy/utils/Initializable.sol\":3601:3605  true */\n      0x01\n        /* \"@openzeppelin/contracts-upgradeable/proxy/utils/Initializable.sol\":3585:3598  _initializing */\n      0x00\n      0x01\n        /* \"@openzeppelin/contracts-upgradeable/proxy/utils/Initializable.sol\":3585:3605  _initializing = true */\n      0x0100\n      exp\n      dup2\n      sload\n      dup2\n      0xff\n      mul\n      not\n      and\n      swap1\n      dup4\n      iszero\n      iszero\n      mul\n      or\n      swap1\n      sstore\n      pop\n        /* \"@openzeppelin/contracts-upgradeable/proxy/utils/Initializable.sol\":3551:3616  if (isTopLevelCall) {... */\n    tag_81:\n        /* \"src/Contracts/MagicPixel.sol\":651:668  __Pausable_init() */\n      tag_83\n        /* \"src/Contracts/MagicPixel.sol\":651:666  __Pausable_init */\n      tag_84\n        /* \"src/Contracts/MagicPixel.sol\":651:668  __Pausable_init() */\n      jump\t// in\n    tag_83:\n        /* \"src/Contracts/MagicPixel.sol\":679:695  __Ownable_init() */\n      tag_85\n        /* \"src/Contracts/MagicPixel.sol\":679:693  __Ownable_init */\n      tag_86\n        /* \"src/Contracts/MagicPixel.sol\":679:695  __Ownable_init() */\n      jump\t// in\n    tag_85:\n        /* \"@openzeppelin/contracts-upgradeable/proxy/utils/Initializable.sol\":3640:3654  isTopLevelCall */\n      dup1\n        /* \"@openzeppelin/contracts-upgradeable/proxy/utils/Initializable.sol\":3636:3735  if (isTopLevelCall) {... */\n      iszero\n      tag_87\n      jumpi\n        /* \"@openzeppelin/contracts-upgradeable/proxy/utils/Initializable.sol\":3686:3691  false */\n      0x00\n        /* \"@openzeppelin/contracts-upgradeable/proxy/utils/Initializable.sol\":3670:3683  _initializing */\n      dup1\n      0x01\n        /* \"@openzeppelin/contracts-upgradeable/proxy/utils/Initializable.sol\":3670:3691  _initializing = false */\n      0x0100\n      exp\n      dup2\n      sload\n      dup2\n      0xff\n      mul\n      not\n      and\n      swap1\n      dup4\n      iszero\n      iszero\n      mul\n      or\n      swap1\n      sstore\n      pop\n        /* \"@openzeppelin/contracts-upgradeable/proxy/utils/Initializable.sol\":3710:3724  Initialized(1) */\n      0x7f26b83ff96e1f2b6a682f133852f6798a09c465da95921460cefb3847402498\n        /* \"@openzeppelin/contracts-upgradeable/proxy/utils/Initializable.sol\":3722:3723  1 */\n      0x01\n        /* \"@openzeppelin/contracts-upgradeable/proxy/utils/Initializable.sol\":3710:3724  Initialized(1) */\n      mload(0x40)\n      tag_88\n      swap2\n      swap1\n      tag_89\n      jump\t// in\n    tag_88:\n      mload(0x40)\n      dup1\n      swap2\n      sub\n      swap1\n      log1\n        /* \"@openzeppelin/contracts-upgradeable/proxy/utils/Initializable.sol\":3636:3735  if (isTopLevelCall) {... */\n    tag_87:\n        /* \"@openzeppelin/contracts-upgradeable/proxy/utils/Initializable.sol\":3258:3741  {... */\n      pop\n        /* \"src/Contracts/MagicPixel.sol\":599:703  function initialize() initializer public {... */\n      jump\t// out\n        /* \"src/Contracts/MagicPixel.sol\":711:772  function pause() public onlyOwner {... */\n    tag_29:\n        /* \"@openzeppelin/contracts-upgradeable/access/OwnableUpgradeable.sol\":1334:1347  _checkOwner() */\n      tag_91\n        /* \"@openzeppelin/contracts-upgradeable/access/OwnableUpgradeable.sol\":1334:1345  _checkOwner */\n      tag_46\n        /* \"@openzeppelin/contracts-upgradeable/access/OwnableUpgradeable.sol\":1334:1347  _checkOwner() */\n      jump\t// in\n    tag_91:\n        /* \"src/Contracts/MagicPixel.sol\":756:764  _pause() */\n      tag_93\n        /* \"src/Contracts/MagicPixel.sol\":756:762  _pause */\n      tag_94\n        /* \"src/Contracts/MagicPixel.sol\":756:764  _pause() */\n      jump\t// in\n    tag_93:\n        /* \"src/Contracts/MagicPixel.sol\":711:772  function pause() public onlyOwner {... */\n      jump\t// out\n        /* \"@openzeppelin/contracts-upgradeable/access/OwnableUpgradeable.sol\":1441:1526  function owner() public view virtual returns (address) {... */\n    tag_31:\n        /* \"@openzeppelin/contracts-upgradeable/access/OwnableUpgradeable.sol\":1487:1494  address */\n      0x00\n        /* \"@openzeppelin/contracts-upgradeable/access/OwnableUpgradeable.sol\":1513:1519  _owner */\n      0x65\n      0x00\n      swap1\n      sload\n      swap1\n      0x0100\n      exp\n      swap1\n      div\n      0xffffffffffffffffffffffffffffffffffffffff\n      and\n        /* \"@openzeppelin/contracts-upgradeable/access/OwnableUpgradeable.sol\":1506:1519  return _owner */\n      swap1\n      pop\n        /* \"@openzeppelin/contracts-upgradeable/access/OwnableUpgradeable.sol\":1441:1526  function owner() public view virtual returns (address) {... */\n      swap1\n      jump\t// out\n        /* \"src/Contracts/MagicPixel.sol\":1175:1369  function setNether(address newNether) public virtual onlyOwner {... */\n    tag_37:\n        /* \"@openzeppelin/contracts-upgradeable/access/OwnableUpgradeable.sol\":1334:1347  _checkOwner() */\n      tag_97\n        /* \"@openzeppelin/contracts-upgradeable/access/OwnableUpgradeable.sol\":1334:1345  _checkOwner */\n      tag_46\n        /* \"@openzeppelin/contracts-upgradeable/access/OwnableUpgradeable.sol\":1334:1347  _checkOwner() */\n      jump\t// in\n    tag_97:\n        /* \"src/Contracts/MagicPixel.sol\":1278:1279  0 */\n      0x00\n        /* \"src/Contracts/MagicPixel.sol\":1257:1280  newNether != address(0) */\n      0xffffffffffffffffffffffffffffffffffffffff\n      and\n        /* \"src/Contracts/MagicPixel.sol\":1257:1266  newNether */\n      dup2\n        /* \"src/Contracts/MagicPixel.sol\":1257:1280  newNether != address(0) */\n      0xffffffffffffffffffffffffffffffffffffffff\n      and\n      eq\n      iszero\n        /* \"src/Contracts/MagicPixel.sol\":1249:1329  require(newNether != address(0), \"Magic Pixels: new nether is the zero address\") */\n      tag_99\n      jumpi\n      mload(0x40)\n      0x08c379a000000000000000000000000000000000000000000000000000000000\n      dup2\n      mstore\n      0x04\n      add\n      tag_100\n      swap1\n      tag_101\n      jump\t// in\n    tag_100:\n      mload(0x40)\n      dup1\n      swap2\n      sub\n      swap1\n      revert\n    tag_99:\n        /* \"src/Contracts/MagicPixel.sol\":1340:1361  _setNether(newNether) */\n      tag_102\n        /* \"src/Contracts/MagicPixel.sol\":1351:1360  newNether */\n      dup2\n        /* \"src/Contracts/MagicPixel.sol\":1340:1350  _setNether */\n      tag_103\n        /* \"src/Contracts/MagicPixel.sol\":1340:1361  _setNether(newNether) */\n      jump\t// in\n    tag_102:\n        /* \"src/Contracts/MagicPixel.sol\":1175:1369  function setNether(address newNether) public virtual onlyOwner {... */\n      pop\n      jump\t// out\n        /* \"src/Contracts/MagicPixel.sol\":857:946  function nether() public view virtual returns (address) {... */\n    tag_39:\n        /* \"src/Contracts/MagicPixel.sol\":904:911  address */\n      0x00\n        /* \"src/Contracts/MagicPixel.sol\":931:938  _nether */\n      0x97\n      0x00\n      swap1\n      sload\n      swap1\n      0x0100\n      exp\n      swap1\n      div\n      0xffffffffffffffffffffffffffffffffffffffff\n      and\n        /* \"src/Contracts/MagicPixel.sol\":924:938  return _nether */\n      swap1\n      pop\n        /* \"src/Contracts/MagicPixel.sol\":857:946  function nether() public view virtual returns (address) {... */\n      swap1\n      jump\t// out\n        /* \"@openzeppelin/contracts-upgradeable/access/OwnableUpgradeable.sol\":2321:2519  function transferOwnership(address newOwner) public virtual onlyOwner {... */\n    tag_43:\n        /* \"@openzeppelin/contracts-upgradeable/access/OwnableUpgradeable.sol\":1334:1347  _checkOwner() */\n      tag_106\n        /* \"@openzeppelin/contracts-upgradeable/access/OwnableUpgradeable.sol\":1334:1345  _checkOwner */\n      tag_46\n        /* \"@openzeppelin/contracts-upgradeable/access/OwnableUpgradeable.sol\":1334:1347  _checkOwner() */\n      jump\t// in\n    tag_106:\n        /* \"@openzeppelin/contracts-upgradeable/access/OwnableUpgradeable.sol\":2429:2430  0 */\n      0x00\n        /* \"@openzeppelin/contracts-upgradeable/access/OwnableUpgradeable.sol\":2409:2431  newOwner != address(0) */\n      0xffffffffffffffffffffffffffffffffffffffff\n      and\n        /* \"@openzeppelin/contracts-upgradeable/access/OwnableUpgradeable.sol\":2409:2417  newOwner */\n      dup2\n        /* \"@openzeppelin/contracts-upgradeable/access/OwnableUpgradeable.sol\":2409:2431  newOwner != address(0) */\n      0xffffffffffffffffffffffffffffffffffffffff\n      and\n      eq\n      iszero\n        /* \"@openzeppelin/contracts-upgradeable/access/OwnableUpgradeable.sol\":2401:2474  require(newOwner != address(0), \"Ownable: new owner is the zero address\") */\n      tag_108\n      jumpi\n      mload(0x40)\n      0x08c379a000000000000000000000000000000000000000000000000000000000\n      dup2\n      mstore\n      0x04\n      add\n      tag_109\n      swap1\n      tag_110\n      jump\t// in\n    tag_109:\n      mload(0x40)\n      dup1\n      swap2\n      sub\n      swap1\n      revert\n    tag_108:\n        /* \"@openzeppelin/contracts-upgradeable/access/OwnableUpgradeable.sol\":2484:2512  _transferOwnership(newOwner) */\n      tag_111\n        /* \"@openzeppelin/contracts-upgradeable/access/OwnableUpgradeable.sol\":2503:2511  newOwner */\n      dup2\n        /* \"@openzeppelin/contracts-upgradeable/access/OwnableUpgradeable.sol\":2484:2502  _transferOwnership */\n      tag_71\n        /* \"@openzeppelin/contracts-upgradeable/access/OwnableUpgradeable.sol\":2484:2512  _transferOwnership(newOwner) */\n      jump\t// in\n    tag_111:\n        /* \"@openzeppelin/contracts-upgradeable/access/OwnableUpgradeable.sol\":2321:2519  function transferOwnership(address newOwner) public virtual onlyOwner {... */\n      pop\n      jump\t// out\n        /* \"@openzeppelin/contracts-upgradeable/access/OwnableUpgradeable.sol\":1599:1729  function _checkOwner() internal view virtual {... */\n    tag_46:\n        /* \"@openzeppelin/contracts-upgradeable/access/OwnableUpgradeable.sol\":1673:1685  _msgSender() */\n      tag_113\n        /* \"@openzeppelin/contracts-upgradeable/access/OwnableUpgradeable.sol\":1673:1683  _msgSender */\n      tag_114\n        /* \"@openzeppelin/contracts-upgradeable/access/OwnableUpgradeable.sol\":1673:1685  _msgSender() */\n      jump\t// in\n    tag_113:\n        /* \"@openzeppelin/contracts-upgradeable/access/OwnableUpgradeable.sol\":1662:1685  owner() == _msgSender() */\n      0xffffffffffffffffffffffffffffffffffffffff\n      and\n        /* \"@openzeppelin/contracts-upgradeable/access/OwnableUpgradeable.sol\":1662:1669  owner() */\n      tag_115\n        /* \"@openzeppelin/contracts-upgradeable/access/OwnableUpgradeable.sol\":1662:1667  owner */\n      tag_31\n        /* \"@openzeppelin/contracts-upgradeable/access/OwnableUpgradeable.sol\":1662:1669  owner() */\n      jump\t// in\n    tag_115:\n        /* \"@openzeppelin/contracts-upgradeable/access/OwnableUpgradeable.sol\":1662:1685  owner() == _msgSender() */\n      0xffffffffffffffffffffffffffffffffffffffff\n      and\n      eq\n        /* \"@openzeppelin/contracts-upgradeable/access/OwnableUpgradeable.sol\":1654:1722  require(owner() == _msgSender(), \"Ownable: caller is not the owner\") */\n      tag_116\n      jumpi\n      mload(0x40)\n      0x08c379a000000000000000000000000000000000000000000000000000000000\n      dup2\n      mstore\n      0x04\n      add\n      tag_117\n      swap1\n      tag_118\n      jump\t// in\n    tag_117:\n      mload(0x40)\n      dup1\n      swap2\n      sub\n      swap1\n      revert\n    tag_116:\n        /* \"@openzeppelin/contracts-upgradeable/access/OwnableUpgradeable.sol\":1599:1729  function _checkOwner() internal view virtual {... */\n      jump\t// out\n        /* \"@openzeppelin/contracts-upgradeable/security/PausableUpgradeable.sol\":2676:2793  function _unpause() internal virtual whenPaused {... */\n    tag_49:\n        /* \"@openzeppelin/contracts-upgradeable/security/PausableUpgradeable.sol\":1729:1745  _requirePaused() */\n      tag_120\n        /* \"@openzeppelin/contracts-upgradeable/security/PausableUpgradeable.sol\":1729:1743  _requirePaused */\n      tag_121\n        /* \"@openzeppelin/contracts-upgradeable/security/PausableUpgradeable.sol\":1729:1745  _requirePaused() */\n      jump\t// in\n    tag_120:\n        /* \"@openzeppelin/contracts-upgradeable/security/PausableUpgradeable.sol\":2744:2749  false */\n      0x00\n        /* \"@openzeppelin/contracts-upgradeable/security/PausableUpgradeable.sol\":2734:2741  _paused */\n      0x33\n      0x00\n        /* \"@openzeppelin/contracts-upgradeable/security/PausableUpgradeable.sol\":2734:2749  _paused = false */\n      0x0100\n      exp\n      dup2\n      sload\n      dup2\n      0xff\n      mul\n      not\n      and\n      swap1\n      dup4\n      iszero\n      iszero\n      mul\n      or\n      swap1\n      sstore\n      pop\n        /* \"@openzeppelin/contracts-upgradeable/security/PausableUpgradeable.sol\":2764:2786  Unpaused(_msgSender()) */\n      0x5db9ee0a495bf2e6ff9c91a7834c1ba4fdd244a5e8aa4e537bd38aeae4b073aa\n        /* \"@openzeppelin/contracts-upgradeable/security/PausableUpgradeable.sol\":2773:2785  _msgSender() */\n      tag_123\n        /* \"@openzeppelin/contracts-upgradeable/security/PausableUpgradeable.sol\":2773:2783  _msgSender */\n      tag_114\n        /* \"@openzeppelin/contracts-upgradeable/security/PausableUpgradeable.sol\":2773:2785  _msgSender() */\n      jump\t// in\n    tag_123:\n        /* \"@openzeppelin/contracts-upgradeable/security/PausableUpgradeable.sol\":2764:2786  Unpaused(_msgSender()) */\n      mload(0x40)\n      tag_124\n      swap2\n      swap1\n      tag_33\n      jump\t// in\n    tag_124:\n      mload(0x40)\n      dup1\n      swap2\n      sub\n      swap1\n      log1\n        /* \"@openzeppelin/contracts-upgradeable/security/PausableUpgradeable.sol\":2676:2793  function _unpause() internal virtual whenPaused {... */\n      jump\t// out\n        /* \"src/Contracts/MagicPixel.sol\":954:1092  function _checkNether() internal view virtual {... */\n    tag_52:\n        /* \"src/Contracts/MagicPixel.sol\":1031:1041  msg.sender */\n      caller\n        /* \"src/Contracts/MagicPixel.sol\":1019:1041  nether() == msg.sender */\n      0xffffffffffffffffffffffffffffffffffffffff\n      and\n        /* \"src/Contracts/MagicPixel.sol\":1019:1027  nether() */\n      tag_126\n        /* \"src/Contracts/MagicPixel.sol\":1019:1025  nether */\n      tag_39\n        /* \"src/Contracts/MagicPixel.sol\":1019:1027  nether() */\n      jump\t// in\n    tag_126:\n        /* \"src/Contracts/MagicPixel.sol\":1019:1041  nether() == msg.sender */\n      0xffffffffffffffffffffffffffffffffffffffff\n      and\n      eq\n        /* \"src/Contracts/MagicPixel.sol\":1011:1084  require(nether() == msg.sender, \"Magic Pixels: caller is not the Nether\") */\n      tag_127\n      jumpi\n      mload(0x40)\n      0x08c379a000000000000000000000000000000000000000000000000000000000\n      dup2\n      mstore\n      0x04\n      add\n      tag_128\n      swap1\n      tag_129\n      jump\t// in\n    tag_128:\n      mload(0x40)\n      dup1\n      swap2\n      sub\n      swap1\n      revert\n    tag_127:\n        /* \"src/Contracts/MagicPixel.sol\":954:1092  function _checkNether() internal view virtual {... */\n      jump\t// out\n        /* \"@openzeppelin/contracts-upgradeable/access/OwnableUpgradeable.sol\":2673:2860  function _transferOwnership(address newOwner) internal virtual {... */\n    tag_71:\n        /* \"@openzeppelin/contracts-upgradeable/access/OwnableUpgradeable.sol\":2746:2762  address oldOwner */\n      0x00\n        /* \"@openzeppelin/contracts-upgradeable/access/OwnableUpgradeable.sol\":2765:2771  _owner */\n      0x65\n      0x00\n      swap1\n      sload\n      swap1\n      0x0100\n      exp\n      swap1\n      div\n      0xffffffffffffffffffffffffffffffffffffffff\n      and\n        /* \"@openzeppelin/contracts-upgradeable/access/OwnableUpgradeable.sol\":2746:2771  address oldOwner = _owner */\n      swap1\n      pop\n        /* \"@openzeppelin/contracts-upgradeable/access/OwnableUpgradeable.sol\":2790:2798  newOwner */\n      dup2\n        /* \"@openzeppelin/contracts-upgradeable/access/OwnableUpgradeable.sol\":2781:2787  _owner */\n      0x65\n      0x00\n        /* \"@openzeppelin/contracts-upgradeable/access/OwnableUpgradeable.sol\":2781:2798  _owner = newOwner */\n      0x0100\n      exp\n      dup2\n      sload\n      dup2\n      0xffffffffffffffffffffffffffffffffffffffff\n      mul\n      not\n      and\n      swap1\n      dup4\n      0xffffffffffffffffffffffffffffffffffffffff\n      and\n      mul\n      or\n      swap1\n      sstore\n      pop\n        /* \"@openzeppelin/contracts-upgradeable/access/OwnableUpgradeable.sol\":2844:2852  newOwner */\n      dup2\n        /* \"@openzeppelin/contracts-upgradeable/access/OwnableUpgradeable.sol\":2813:2853  OwnershipTransferred(oldOwner, newOwner) */\n      0xffffffffffffffffffffffffffffffffffffffff\n      and\n        /* \"@openzeppelin/contracts-upgradeable/access/OwnableUpgradeable.sol\":2834:2842  oldOwner */\n      dup2\n        /* \"@openzeppelin/contracts-upgradeable/access/OwnableUpgradeable.sol\":2813:2853  OwnershipTransferred(oldOwner, newOwner) */\n      0xffffffffffffffffffffffffffffffffffffffff\n      and\n      0x8be0079c531659141344cd1fd0a4f28419497f9722a3daafe3b4186f6b6457e0\n      mload(0x40)\n      mload(0x40)\n      dup1\n      swap2\n      sub\n      swap1\n      log3\n        /* \"@openzeppelin/contracts-upgradeable/access/OwnableUpgradeable.sol\":2736:2860  {... */\n      pop\n        /* \"@openzeppelin/contracts-upgradeable/access/OwnableUpgradeable.sol\":2673:2860  function _transferOwnership(address newOwner) internal virtual {... */\n      pop\n      jump\t// out\n        /* \"@openzeppelin/contracts-upgradeable/utils/AddressUpgradeable.sol\":1186:1506  function isContract(address account) internal view returns (bool) {... */\n    tag_76:\n        /* \"@openzeppelin/contracts-upgradeable/utils/AddressUpgradeable.sol\":1246:1250  bool */\n      0x00\n        /* \"@openzeppelin/contracts-upgradeable/utils/AddressUpgradeable.sol\":1498:1499  0 */\n      dup1\n        /* \"@openzeppelin/contracts-upgradeable/utils/AddressUpgradeable.sol\":1476:1483  account */\n      dup3\n        /* \"@openzeppelin/contracts-upgradeable/utils/AddressUpgradeable.sol\":1476:1495  account.code.length */\n      0xffffffffffffffffffffffffffffffffffffffff\n      and\n      extcodesize\n        /* \"@openzeppelin/contracts-upgradeable/utils/AddressUpgradeable.sol\":1476:1499  account.code.length > 0 */\n      gt\n        /* \"@openzeppelin/contracts-upgradeable/utils/AddressUpgradeable.sol\":1469:1499  return account.code.length > 0 */\n      swap1\n      pop\n        /* \"@openzeppelin/contracts-upgradeable/utils/AddressUpgradeable.sol\":1186:1506  function isContract(address account) internal view returns (bool) {... */\n      swap2\n      swap1\n      pop\n      jump\t// out\n        /* \"@openzeppelin/contracts-upgradeable/security/PausableUpgradeable.sol\":1063:1160  function __Pausable_init() internal onlyInitializing {... */\n    tag_84:\n        /* \"@openzeppelin/contracts-upgradeable/proxy/utils/Initializable.sol\":5363:5376  _initializing */\n      0x00\n      0x01\n      swap1\n      sload\n      swap1\n      0x0100\n      exp\n      swap1\n      div\n      0xff\n      and\n        /* \"@openzeppelin/contracts-upgradeable/proxy/utils/Initializable.sol\":5355:5424  require(_initializing, \"Initializable: contract is not initializing\") */\n      tag_133\n      jumpi\n      mload(0x40)\n      0x08c379a000000000000000000000000000000000000000000000000000000000\n      dup2\n      mstore\n      0x04\n      add\n      tag_134\n      swap1\n      tag_135\n      jump\t// in\n    tag_134:\n      mload(0x40)\n      dup1\n      swap2\n      sub\n      swap1\n      revert\n    tag_133:\n        /* \"@openzeppelin/contracts-upgradeable/security/PausableUpgradeable.sol\":1126:1153  __Pausable_init_unchained() */\n      tag_137\n        /* \"@openzeppelin/contracts-upgradeable/security/PausableUpgradeable.sol\":1126:1151  __Pausable_init_unchained */\n      tag_138\n        /* \"@openzeppelin/contracts-upgradeable/security/PausableUpgradeable.sol\":1126:1153  __Pausable_init_unchained() */\n      jump\t// in\n    tag_137:\n        /* \"@openzeppelin/contracts-upgradeable/security/PausableUpgradeable.sol\":1063:1160  function __Pausable_init() internal onlyInitializing {... */\n      jump\t// out\n        /* \"@openzeppelin/contracts-upgradeable/access/OwnableUpgradeable.sol\":1003:1098  function __Ownable_init() internal onlyInitializing {... */\n    tag_86:\n        /* \"@openzeppelin/contracts-upgradeable/proxy/utils/Initializable.sol\":5363:5376  _initializing */\n      0x00\n      0x01\n      swap1\n      sload\n      swap1\n      0x0100\n      exp\n      swap1\n      div\n      0xff\n      and\n        /* \"@openzeppelin/contracts-upgradeable/proxy/utils/Initializable.sol\":5355:5424  require(_initializing, \"Initializable: contract is not initializing\") */\n      tag_140\n      jumpi\n      mload(0x40)\n      0x08c379a000000000000000000000000000000000000000000000000000000000\n      dup2\n      mstore\n      0x04\n      add\n      tag_141\n      swap1\n      tag_135\n      jump\t// in\n    tag_141:\n      mload(0x40)\n      dup1\n      swap2\n      sub\n      swap1\n      revert\n    tag_140:\n        /* \"@openzeppelin/contracts-upgradeable/access/OwnableUpgradeable.sol\":1065:1091  __Ownable_init_unchained() */\n      tag_143\n        /* \"@openzeppelin/contracts-upgradeable/access/OwnableUpgradeable.sol\":1065:1089  __Ownable_init_unchained */\n      tag_144\n        /* \"@openzeppelin/contracts-upgradeable/access/OwnableUpgradeable.sol\":1065:1091  __Ownable_init_unchained() */\n      jump\t// in\n    tag_143:\n        /* \"@openzeppelin/contracts-upgradeable/access/OwnableUpgradeable.sol\":1003:1098  function __Ownable_init() internal onlyInitializing {... */\n      jump\t// out\n        /* \"@openzeppelin/contracts-upgradeable/security/PausableUpgradeable.sol\":2429:2544  function _pause() internal virtual whenNotPaused {... */\n    tag_94:\n        /* \"@openzeppelin/contracts-upgradeable/security/PausableUpgradeable.sol\":1482:1501  _requireNotPaused() */\n      tag_146\n        /* \"@openzeppelin/contracts-upgradeable/security/PausableUpgradeable.sol\":1482:1499  _requireNotPaused */\n      tag_147\n        /* \"@openzeppelin/contracts-upgradeable/security/PausableUpgradeable.sol\":1482:1501  _requireNotPaused() */\n      jump\t// in\n    tag_146:\n        /* \"@openzeppelin/contracts-upgradeable/security/PausableUpgradeable.sol\":2498:2502  true */\n      0x01\n        /* \"@openzeppelin/contracts-upgradeable/security/PausableUpgradeable.sol\":2488:2495  _paused */\n      0x33\n      0x00\n        /* \"@openzeppelin/contracts-upgradeable/security/PausableUpgradeable.sol\":2488:2502  _paused = true */\n      0x0100\n      exp\n      dup2\n      sload\n      dup2\n      0xff\n      mul\n      not\n      and\n      swap1\n      dup4\n      iszero\n      iszero\n      mul\n      or\n      swap1\n      sstore\n      pop\n        /* \"@openzeppelin/contracts-upgradeable/security/PausableUpgradeable.sol\":2517:2537  Paused(_msgSender()) */\n      0x62e78cea01bee320cd4e420270b5ea74000d11b0c9f74754ebdbfc544b05a258\n        /* \"@openzeppelin/contracts-upgradeable/security/PausableUpgradeable.sol\":2524:2536  _msgSender() */\n      tag_149\n        /* \"@openzeppelin/contracts-upgradeable/security/PausableUpgradeable.sol\":2524:2534  _msgSender */\n      tag_114\n        /* \"@openzeppelin/contracts-upgradeable/security/PausableUpgradeable.sol\":2524:2536  _msgSender() */\n      jump\t// in\n    tag_149:\n        /* \"@openzeppelin/contracts-upgradeable/security/PausableUpgradeable.sol\":2517:2537  Paused(_msgSender()) */\n      mload(0x40)\n      tag_150\n      swap2\n      swap1\n      tag_33\n      jump\t// in\n    tag_150:\n      mload(0x40)\n      dup1\n      swap2\n      sub\n      swap1\n      log1\n        /* \"@openzeppelin/contracts-upgradeable/security/PausableUpgradeable.sol\":2429:2544  function _pause() internal virtual whenNotPaused {... */\n      jump\t// out\n        /* \"src/Contracts/MagicPixel.sol\":1377:1471  function _setNether(address newNether) internal virtual {... */\n    tag_103:\n        /* \"src/Contracts/MagicPixel.sol\":1454:1463  newNether */\n      dup1\n        /* \"src/Contracts/MagicPixel.sol\":1444:1451  _nether */\n      0x97\n      0x00\n        /* \"src/Contracts/MagicPixel.sol\":1444:1463  _nether = newNether */\n      0x0100\n      exp\n      dup2\n      sload\n      dup2\n      0xffffffffffffffffffffffffffffffffffffffff\n      mul\n      not\n      and\n      swap1\n      dup4\n      0xffffffffffffffffffffffffffffffffffffffff\n      and\n      mul\n      or\n      swap1\n      sstore\n      pop\n        /* \"src/Contracts/MagicPixel.sol\":1377:1471  function _setNether(address newNether) internal virtual {... */\n      pop\n      jump\t// out\n        /* \"@openzeppelin/contracts-upgradeable/utils/ContextUpgradeable.sol\":850:946  function _msgSender() internal view virtual returns (address) {... */\n    tag_114:\n        /* \"@openzeppelin/contracts-upgradeable/utils/ContextUpgradeable.sol\":903:910  address */\n      0x00\n        /* \"@openzeppelin/contracts-upgradeable/utils/ContextUpgradeable.sol\":929:939  msg.sender */\n      caller\n        /* \"@openzeppelin/contracts-upgradeable/utils/ContextUpgradeable.sol\":922:939  return msg.sender */\n      swap1\n      pop\n        /* \"@openzeppelin/contracts-upgradeable/utils/ContextUpgradeable.sol\":850:946  function _msgSender() internal view virtual returns (address) {... */\n      swap1\n      jump\t// out\n        /* \"@openzeppelin/contracts-upgradeable/security/PausableUpgradeable.sol\":2188:2294  function _requirePaused() internal view virtual {... */\n    tag_121:\n        /* \"@openzeppelin/contracts-upgradeable/security/PausableUpgradeable.sol\":2254:2262  paused() */\n      tag_154\n        /* \"@openzeppelin/contracts-upgradeable/security/PausableUpgradeable.sol\":2254:2260  paused */\n      tag_21\n        /* \"@openzeppelin/contracts-upgradeable/security/PausableUpgradeable.sol\":2254:2262  paused() */\n      jump\t// in\n    tag_154:\n        /* \"@openzeppelin/contracts-upgradeable/security/PausableUpgradeable.sol\":2246:2287  require(paused(), \"Pausable: not paused\") */\n      tag_155\n      jumpi\n      mload(0x40)\n      0x08c379a000000000000000000000000000000000000000000000000000000000\n      dup2\n      mstore\n      0x04\n      add\n      tag_156\n      swap1\n      tag_157\n      jump\t// in\n    tag_156:\n      mload(0x40)\n      dup1\n      swap2\n      sub\n      swap1\n      revert\n    tag_155:\n        /* \"@openzeppelin/contracts-upgradeable/security/PausableUpgradeable.sol\":2188:2294  function _requirePaused() internal view virtual {... */\n      jump\t// out\n        /* \"@openzeppelin/contracts-upgradeable/security/PausableUpgradeable.sol\":1166:1261  function __Pausable_init_unchained() internal onlyInitializing {... */\n    tag_138:\n        /* \"@openzeppelin/contracts-upgradeable/proxy/utils/Initializable.sol\":5363:5376  _initializing */\n      0x00\n      0x01\n      swap1\n      sload\n      swap1\n      0x0100\n      exp\n      swap1\n      div\n      0xff\n      and\n        /* \"@openzeppelin/contracts-upgradeable/proxy/utils/Initializable.sol\":5355:5424  require(_initializing, \"Initializable: contract is not initializing\") */\n      tag_159\n      jumpi\n      mload(0x40)\n      0x08c379a000000000000000000000000000000000000000000000000000000000\n      dup2\n      mstore\n      0x04\n      add\n      tag_160\n      swap1\n      tag_135\n      jump\t// in\n    tag_160:\n      mload(0x40)\n      dup1\n      swap2\n      sub\n      swap1\n      revert\n    tag_159:\n        /* \"@openzeppelin/contracts-upgradeable/security/PausableUpgradeable.sol\":1249:1254  false */\n      0x00\n        /* \"@openzeppelin/contracts-upgradeable/security/PausableUpgradeable.sol\":1239:1246  _paused */\n      0x33\n      0x00\n        /* \"@openzeppelin/contracts-upgradeable/security/PausableUpgradeable.sol\":1239:1254  _paused = false */\n      0x0100\n      exp\n      dup2\n      sload\n      dup2\n      0xff\n      mul\n      not\n      and\n      swap1\n      dup4\n      iszero\n      iszero\n      mul\n      or\n      swap1\n      sstore\n      pop\n        /* \"@openzeppelin/contracts-upgradeable/security/PausableUpgradeable.sol\":1166:1261  function __Pausable_init_unchained() internal onlyInitializing {... */\n      jump\t// out\n        /* \"@openzeppelin/contracts-upgradeable/access/OwnableUpgradeable.sol\":1104:1215  function __Ownable_init_unchained() internal onlyInitializing {... */\n    tag_144:\n        /* \"@openzeppelin/contracts-upgradeable/proxy/utils/Initializable.sol\":5363:5376  _initializing */\n      0x00\n      0x01\n      swap1\n      sload\n      swap1\n      0x0100\n      exp\n      swap1\n      div\n      0xff\n      and\n        /* \"@openzeppelin/contracts-upgradeable/proxy/utils/Initializable.sol\":5355:5424  require(_initializing, \"Initializable: contract is not initializing\") */\n      tag_163\n      jumpi\n      mload(0x40)\n      0x08c379a000000000000000000000000000000000000000000000000000000000\n      dup2\n      mstore\n      0x04\n      add\n      tag_164\n      swap1\n      tag_135\n      jump\t// in\n    tag_164:\n      mload(0x40)\n      dup1\n      swap2\n      sub\n      swap1\n      revert\n    tag_163:\n        /* \"@openzeppelin/contracts-upgradeable/access/OwnableUpgradeable.sol\":1176:1208  _transferOwnership(_msgSender()) */\n      tag_166\n        /* \"@openzeppelin/contracts-upgradeable/access/OwnableUpgradeable.sol\":1195:1207  _msgSender() */\n      tag_167\n        /* \"@openzeppelin/contracts-upgradeable/access/OwnableUpgradeable.sol\":1195:1205  _msgSender */\n      tag_114\n        /* \"@openzeppelin/contracts-upgradeable/access/OwnableUpgradeable.sol\":1195:1207  _msgSender() */\n      jump\t// in\n    tag_167:\n        /* \"@openzeppelin/contracts-upgradeable/access/OwnableUpgradeable.sol\":1176:1194  _transferOwnership */\n      tag_71\n        /* \"@openzeppelin/contracts-upgradeable/access/OwnableUpgradeable.sol\":1176:1208  _transferOwnership(_msgSender()) */\n      jump\t// in\n    tag_166:\n        /* \"@openzeppelin/contracts-upgradeable/access/OwnableUpgradeable.sol\":1104:1215  function __Ownable_init_unchained() internal onlyInitializing {... */\n      jump\t// out\n        /* \"@openzeppelin/contracts-upgradeable/security/PausableUpgradeable.sol\":2010:2116  function _requireNotPaused() internal view virtual {... */\n    tag_147:\n        /* \"@openzeppelin/contracts-upgradeable/security/PausableUpgradeable.sol\":2080:2088  paused() */\n      tag_169\n        /* \"@openzeppelin/contracts-upgradeable/security/PausableUpgradeable.sol\":2080:2086  paused */\n      tag_21\n        /* \"@openzeppelin/contracts-upgradeable/security/PausableUpgradeable.sol\":2080:2088  paused() */\n      jump\t// in\n    tag_169:\n        /* \"@openzeppelin/contracts-upgradeable/security/PausableUpgradeable.sol\":2079:2088  !paused() */\n      iszero\n        /* \"@openzeppelin/contracts-upgradeable/security/PausableUpgradeable.sol\":2071:2109  require(!paused(), \"Pausable: paused\") */\n      tag_170\n      jumpi\n      mload(0x40)\n      0x08c379a000000000000000000000000000000000000000000000000000000000\n      dup2\n      mstore\n      0x04\n      add\n      tag_171\n      swap1\n      tag_172\n      jump\t// in\n    tag_171:\n      mload(0x40)\n      dup1\n      swap2\n      sub\n      swap1\n      revert\n    tag_170:\n        /* \"@openzeppelin/contracts-upgradeable/security/PausableUpgradeable.sol\":2010:2116  function _requireNotPaused() internal view virtual {... */\n      jump\t// out\n        /* \"#utility.yul\":88:205   */\n    tag_174:\n        /* \"#utility.yul\":197:198   */\n      0x00\n        /* \"#utility.yul\":194:195   */\n      dup1\n        /* \"#utility.yul\":187:199   */\n      revert\n        /* \"#utility.yul\":211:328   */\n    tag_175:\n        /* \"#utility.yul\":320:321   */\n      0x00\n        /* \"#utility.yul\":317:318   */\n      dup1\n        /* \"#utility.yul\":310:322   */\n      revert\n        /* \"#utility.yul\":334:460   */\n    tag_176:\n        /* \"#utility.yul\":371:378   */\n      0x00\n        /* \"#utility.yul\":411:453   */\n      0xffffffffffffffffffffffffffffffffffffffff\n        /* \"#utility.yul\":404:409   */\n      dup3\n        /* \"#utility.yul\":400:454   */\n      and\n        /* \"#utility.yul\":389:454   */\n      swap1\n      pop\n        /* \"#utility.yul\":334:460   */\n      swap2\n      swap1\n      pop\n      jump\t// out\n        /* \"#utility.yul\":466:562   */\n    tag_177:\n        /* \"#utility.yul\":503:510   */\n      0x00\n        /* \"#utility.yul\":532:556   */\n      tag_219\n        /* \"#utility.yul\":550:555   */\n      dup3\n        /* \"#utility.yul\":532:556   */\n      tag_176\n      jump\t// in\n    tag_219:\n        /* \"#utility.yul\":521:556   */\n      swap1\n      pop\n        /* \"#utility.yul\":466:562   */\n      swap2\n      swap1\n      pop\n      jump\t// out\n        /* \"#utility.yul\":568:690   */\n    tag_178:\n        /* \"#utility.yul\":641:665   */\n      tag_221\n        /* \"#utility.yul\":659:664   */\n      dup2\n        /* \"#utility.yul\":641:665   */\n      tag_177\n      jump\t// in\n    tag_221:\n        /* \"#utility.yul\":634:639   */\n      dup2\n        /* \"#utility.yul\":631:666   */\n      eq\n        /* \"#utility.yul\":621:684   */\n      tag_222\n      jumpi\n        /* \"#utility.yul\":680:681   */\n      0x00\n        /* \"#utility.yul\":677:678   */\n      dup1\n        /* \"#utility.yul\":670:682   */\n      revert\n        /* \"#utility.yul\":621:684   */\n    tag_222:\n        /* \"#utility.yul\":568:690   */\n      pop\n      jump\t// out\n        /* \"#utility.yul\":696:835   */\n    tag_179:\n        /* \"#utility.yul\":742:747   */\n      0x00\n        /* \"#utility.yul\":780:786   */\n      dup2\n        /* \"#utility.yul\":767:787   */\n      calldataload\n        /* \"#utility.yul\":758:787   */\n      swap1\n      pop\n        /* \"#utility.yul\":796:829   */\n      tag_224\n        /* \"#utility.yul\":823:828   */\n      dup2\n        /* \"#utility.yul\":796:829   */\n      tag_178\n      jump\t// in\n    tag_224:\n        /* \"#utility.yul\":696:835   */\n      swap3\n      swap2\n      pop\n      pop\n      jump\t// out\n        /* \"#utility.yul\":841:958   */\n    tag_180:\n        /* \"#utility.yul\":950:951   */\n      0x00\n        /* \"#utility.yul\":947:948   */\n      dup1\n        /* \"#utility.yul\":940:952   */\n      revert\n        /* \"#utility.yul\":964:1081   */\n    tag_181:\n        /* \"#utility.yul\":1073:1074   */\n      0x00\n        /* \"#utility.yul\":1070:1071   */\n      dup1\n        /* \"#utility.yul\":1063:1075   */\n      revert\n        /* \"#utility.yul\":1087:1204   */\n    tag_182:\n        /* \"#utility.yul\":1196:1197   */\n      0x00\n        /* \"#utility.yul\":1193:1194   */\n      dup1\n        /* \"#utility.yul\":1186:1198   */\n      revert\n        /* \"#utility.yul\":1225:1791   */\n    tag_183:\n        /* \"#utility.yul\":1296:1304   */\n      0x00\n        /* \"#utility.yul\":1306:1312   */\n      dup1\n        /* \"#utility.yul\":1356:1359   */\n      dup4\n        /* \"#utility.yul\":1349:1353   */\n      0x1f\n        /* \"#utility.yul\":1341:1347   */\n      dup5\n        /* \"#utility.yul\":1337:1354   */\n      add\n        /* \"#utility.yul\":1333:1360   */\n      slt\n        /* \"#utility.yul\":1323:1445   */\n      tag_229\n      jumpi\n        /* \"#utility.yul\":1364:1443   */\n      tag_230\n      tag_180\n      jump\t// in\n    tag_230:\n        /* \"#utility.yul\":1323:1445   */\n    tag_229:\n        /* \"#utility.yul\":1477:1483   */\n      dup3\n        /* \"#utility.yul\":1464:1484   */\n      calldataload\n        /* \"#utility.yul\":1454:1484   */\n      swap1\n      pop\n        /* \"#utility.yul\":1507:1525   */\n      0xffffffffffffffff\n        /* \"#utility.yul\":1499:1505   */\n      dup2\n        /* \"#utility.yul\":1496:1526   */\n      gt\n        /* \"#utility.yul\":1493:1610   */\n      iszero\n      tag_231\n      jumpi\n        /* \"#utility.yul\":1529:1608   */\n      tag_232\n      tag_181\n      jump\t// in\n    tag_232:\n        /* \"#utility.yul\":1493:1610   */\n    tag_231:\n        /* \"#utility.yul\":1643:1647   */\n      0x20\n        /* \"#utility.yul\":1635:1641   */\n      dup4\n        /* \"#utility.yul\":1631:1648   */\n      add\n        /* \"#utility.yul\":1619:1648   */\n      swap2\n      pop\n        /* \"#utility.yul\":1697:1700   */\n      dup4\n        /* \"#utility.yul\":1689:1693   */\n      0x20\n        /* \"#utility.yul\":1681:1687   */\n      dup3\n        /* \"#utility.yul\":1677:1694   */\n      mul\n        /* \"#utility.yul\":1667:1675   */\n      dup4\n        /* \"#utility.yul\":1663:1695   */\n      add\n        /* \"#utility.yul\":1660:1701   */\n      gt\n        /* \"#utility.yul\":1657:1785   */\n      iszero\n      tag_233\n      jumpi\n        /* \"#utility.yul\":1704:1783   */\n      tag_234\n      tag_182\n      jump\t// in\n    tag_234:\n        /* \"#utility.yul\":1657:1785   */\n    tag_233:\n        /* \"#utility.yul\":1225:1791   */\n      swap3\n      pop\n      swap3\n      swap1\n      pop\n      jump\t// out\n        /* \"#utility.yul\":1797:2497   */\n    tag_18:\n        /* \"#utility.yul\":1890:1896   */\n      0x00\n        /* \"#utility.yul\":1898:1904   */\n      dup1\n        /* \"#utility.yul\":1906:1912   */\n      0x00\n        /* \"#utility.yul\":1955:1957   */\n      0x40\n        /* \"#utility.yul\":1943:1952   */\n      dup5\n        /* \"#utility.yul\":1934:1941   */\n      dup7\n        /* \"#utility.yul\":1930:1953   */\n      sub\n        /* \"#utility.yul\":1926:1958   */\n      slt\n        /* \"#utility.yul\":1923:2042   */\n      iszero\n      tag_236\n      jumpi\n        /* \"#utility.yul\":1961:2040   */\n      tag_237\n      tag_174\n      jump\t// in\n    tag_237:\n        /* \"#utility.yul\":1923:2042   */\n    tag_236:\n        /* \"#utility.yul\":2081:2082   */\n      0x00\n        /* \"#utility.yul\":2106:2159   */\n      tag_238\n        /* \"#utility.yul\":2151:2158   */\n      dup7\n        /* \"#utility.yul\":2142:2148   */\n      dup3\n        /* \"#utility.yul\":2131:2140   */\n      dup8\n        /* \"#utility.yul\":2127:2149   */\n      add\n        /* \"#utility.yul\":2106:2159   */\n      tag_179\n      jump\t// in\n    tag_238:\n        /* \"#utility.yul\":2096:2159   */\n      swap4\n      pop\n        /* \"#utility.yul\":2052:2169   */\n      pop\n        /* \"#utility.yul\":2236:2238   */\n      0x20\n        /* \"#utility.yul\":2225:2234   */\n      dup5\n        /* \"#utility.yul\":2221:2239   */\n      add\n        /* \"#utility.yul\":2208:2240   */\n      calldataload\n        /* \"#utility.yul\":2267:2285   */\n      0xffffffffffffffff\n        /* \"#utility.yul\":2259:2265   */\n      dup2\n        /* \"#utility.yul\":2256:2286   */\n      gt\n        /* \"#utility.yul\":2253:2370   */\n      iszero\n      tag_239\n      jumpi\n        /* \"#utility.yul\":2289:2368   */\n      tag_240\n      tag_175\n      jump\t// in\n    tag_240:\n        /* \"#utility.yul\":2253:2370   */\n    tag_239:\n        /* \"#utility.yul\":2402:2480   */\n      tag_241\n        /* \"#utility.yul\":2472:2479   */\n      dup7\n        /* \"#utility.yul\":2463:2469   */\n      dup3\n        /* \"#utility.yul\":2452:2461   */\n      dup8\n        /* \"#utility.yul\":2448:2470   */\n      add\n        /* \"#utility.yul\":2402:2480   */\n      tag_183\n      jump\t// in\n    tag_241:\n        /* \"#utility.yul\":2384:2480   */\n      swap3\n      pop\n      swap3\n      pop\n        /* \"#utility.yul\":2179:2490   */\n      pop\n        /* \"#utility.yul\":1797:2497   */\n      swap3\n      pop\n      swap3\n      pop\n      swap3\n      jump\t// out\n        /* \"#utility.yul\":2503:2593   */\n    tag_184:\n        /* \"#utility.yul\":2537:2544   */\n      0x00\n        /* \"#utility.yul\":2580:2585   */\n      dup2\n        /* \"#utility.yul\":2573:2586   */\n      iszero\n        /* \"#utility.yul\":2566:2587   */\n      iszero\n        /* \"#utility.yul\":2555:2587   */\n      swap1\n      pop\n        /* \"#utility.yul\":2503:2593   */\n      swap2\n      swap1\n      pop\n      jump\t// out\n        /* \"#utility.yul\":2599:2708   */\n    tag_185:\n        /* \"#utility.yul\":2680:2701   */\n      tag_244\n        /* \"#utility.yul\":2695:2700   */\n      dup2\n        /* \"#utility.yul\":2680:2701   */\n      tag_184\n      jump\t// in\n    tag_244:\n        /* \"#utility.yul\":2675:2678   */\n      dup3\n        /* \"#utility.yul\":2668:2702   */\n      mstore\n        /* \"#utility.yul\":2599:2708   */\n      pop\n      pop\n      jump\t// out\n        /* \"#utility.yul\":2714:2924   */\n    tag_23:\n        /* \"#utility.yul\":2801:2805   */\n      0x00\n        /* \"#utility.yul\":2839:2841   */\n      0x20\n        /* \"#utility.yul\":2828:2837   */\n      dup3\n        /* \"#utility.yul\":2824:2842   */\n      add\n        /* \"#utility.yul\":2816:2842   */\n      swap1\n      pop\n        /* \"#utility.yul\":2852:2917   */\n      tag_246\n        /* \"#utility.yul\":2914:2915   */\n      0x00\n        /* \"#utility.yul\":2903:2912   */\n      dup4\n        /* \"#utility.yul\":2899:2916   */\n      add\n        /* \"#utility.yul\":2890:2896   */\n      dup5\n        /* \"#utility.yul\":2852:2917   */\n      tag_185\n      jump\t// in\n    tag_246:\n        /* \"#utility.yul\":2714:2924   */\n      swap3\n      swap2\n      pop\n      pop\n      jump\t// out\n        /* \"#utility.yul\":2930:3048   */\n    tag_186:\n        /* \"#utility.yul\":3017:3041   */\n      tag_248\n        /* \"#utility.yul\":3035:3040   */\n      dup2\n        /* \"#utility.yul\":3017:3041   */\n      tag_177\n      jump\t// in\n    tag_248:\n        /* \"#utility.yul\":3012:3015   */\n      dup3\n        /* \"#utility.yul\":3005:3042   */\n      mstore\n        /* \"#utility.yul\":2930:3048   */\n      pop\n      pop\n      jump\t// out\n        /* \"#utility.yul\":3054:3276   */\n    tag_33:\n        /* \"#utility.yul\":3147:3151   */\n      0x00\n        /* \"#utility.yul\":3185:3187   */\n      0x20\n        /* \"#utility.yul\":3174:3183   */\n      dup3\n        /* \"#utility.yul\":3170:3188   */\n      add\n        /* \"#utility.yul\":3162:3188   */\n      swap1\n      pop\n        /* \"#utility.yul\":3198:3269   */\n      tag_250\n        /* \"#utility.yul\":3266:3267   */\n      0x00\n        /* \"#utility.yul\":3255:3264   */\n      dup4\n        /* \"#utility.yul\":3251:3268   */\n      add\n        /* \"#utility.yul\":3242:3248   */\n      dup5\n        /* \"#utility.yul\":3198:3269   */\n      tag_186\n      jump\t// in\n    tag_250:\n        /* \"#utility.yul\":3054:3276   */\n      swap3\n      swap2\n      pop\n      pop\n      jump\t// out\n        /* \"#utility.yul\":3282:3611   */\n    tag_36:\n        /* \"#utility.yul\":3341:3347   */\n      0x00\n        /* \"#utility.yul\":3390:3392   */\n      0x20\n        /* \"#utility.yul\":3378:3387   */\n      dup3\n        /* \"#utility.yul\":3369:3376   */\n      dup5\n        /* \"#utility.yul\":3365:3388   */\n      sub\n        /* \"#utility.yul\":3361:3393   */\n      slt\n        /* \"#utility.yul\":3358:3477   */\n      iszero\n      tag_252\n      jumpi\n        /* \"#utility.yul\":3396:3475   */\n      tag_253\n      tag_174\n      jump\t// in\n    tag_253:\n        /* \"#utility.yul\":3358:3477   */\n    tag_252:\n        /* \"#utility.yul\":3516:3517   */\n      0x00\n        /* \"#utility.yul\":3541:3594   */\n      tag_254\n        /* \"#utility.yul\":3586:3593   */\n      dup5\n        /* \"#utility.yul\":3577:3583   */\n      dup3\n        /* \"#utility.yul\":3566:3575   */\n      dup6\n        /* \"#utility.yul\":3562:3584   */\n      add\n        /* \"#utility.yul\":3541:3594   */\n      tag_179\n      jump\t// in\n    tag_254:\n        /* \"#utility.yul\":3531:3594   */\n      swap2\n      pop\n        /* \"#utility.yul\":3487:3604   */\n      pop\n        /* \"#utility.yul\":3282:3611   */\n      swap3\n      swap2\n      pop\n      pop\n      jump\t// out\n        /* \"#utility.yul\":3617:3797   */\n    tag_59:\n        /* \"#utility.yul\":3665:3742   */\n      0x4e487b7100000000000000000000000000000000000000000000000000000000\n        /* \"#utility.yul\":3662:3663   */\n      0x00\n        /* \"#utility.yul\":3655:3743   */\n      mstore\n        /* \"#utility.yul\":3762:3766   */\n      0x32\n        /* \"#utility.yul\":3759:3760   */\n      0x04\n        /* \"#utility.yul\":3752:3767   */\n      mstore\n        /* \"#utility.yul\":3786:3790   */\n      0x24\n        /* \"#utility.yul\":3783:3784   */\n      0x00\n        /* \"#utility.yul\":3776:3791   */\n      revert\n        /* \"#utility.yul\":3803:3889   */\n    tag_187:\n        /* \"#utility.yul\":3838:3845   */\n      0x00\n        /* \"#utility.yul\":3878:3882   */\n      0xff\n        /* \"#utility.yul\":3871:3876   */\n      dup3\n        /* \"#utility.yul\":3867:3883   */\n      and\n        /* \"#utility.yul\":3856:3883   */\n      swap1\n      pop\n        /* \"#utility.yul\":3803:3889   */\n      swap2\n      swap1\n      pop\n      jump\t// out\n        /* \"#utility.yul\":3895:4013   */\n    tag_188:\n        /* \"#utility.yul\":3966:3988   */\n      tag_258\n        /* \"#utility.yul\":3982:3987   */\n      dup2\n        /* \"#utility.yul\":3966:3988   */\n      tag_187\n      jump\t// in\n    tag_258:\n        /* \"#utility.yul\":3959:3964   */\n      dup2\n        /* \"#utility.yul\":3956:3989   */\n      eq\n        /* \"#utility.yul\":3946:4007   */\n      tag_259\n      jumpi\n        /* \"#utility.yul\":4003:4004   */\n      0x00\n        /* \"#utility.yul\":4000:4001   */\n      dup1\n        /* \"#utility.yul\":3993:4005   */\n      revert\n        /* \"#utility.yul\":3946:4007   */\n    tag_259:\n        /* \"#utility.yul\":3895:4013   */\n      pop\n      jump\t// out\n        /* \"#utility.yul\":4019:4154   */\n    tag_189:\n        /* \"#utility.yul\":4063:4068   */\n      0x00\n        /* \"#utility.yul\":4101:4107   */\n      dup2\n        /* \"#utility.yul\":4088:4108   */\n      calldataload\n        /* \"#utility.yul\":4079:4108   */\n      swap1\n      pop\n        /* \"#utility.yul\":4117:4148   */\n      tag_261\n        /* \"#utility.yul\":4142:4147   */\n      dup2\n        /* \"#utility.yul\":4117:4148   */\n      tag_188\n      jump\t// in\n    tag_261:\n        /* \"#utility.yul\":4019:4154   */\n      swap3\n      swap2\n      pop\n      pop\n      jump\t// out\n        /* \"#utility.yul\":4160:4485   */\n    tag_61:\n        /* \"#utility.yul\":4217:4223   */\n      0x00\n        /* \"#utility.yul\":4266:4268   */\n      0x20\n        /* \"#utility.yul\":4254:4263   */\n      dup3\n        /* \"#utility.yul\":4245:4252   */\n      dup5\n        /* \"#utility.yul\":4241:4264   */\n      sub\n        /* \"#utility.yul\":4237:4269   */\n      slt\n        /* \"#utility.yul\":4234:4353   */\n      iszero\n      tag_263\n      jumpi\n        /* \"#utility.yul\":4272:4351   */\n      tag_264\n      tag_174\n      jump\t// in\n    tag_264:\n        /* \"#utility.yul\":4234:4353   */\n    tag_263:\n        /* \"#utility.yul\":4392:4393   */\n      0x00\n        /* \"#utility.yul\":4417:4468   */\n      tag_265\n        /* \"#utility.yul\":4460:4467   */\n      dup5\n        /* \"#utility.yul\":4451:4457   */\n      dup3\n        /* \"#utility.yul\":4440:4449   */\n      dup6\n        /* \"#utility.yul\":4436:4458   */\n      add\n        /* \"#utility.yul\":4417:4468   */\n      tag_189\n      jump\t// in\n    tag_265:\n        /* \"#utility.yul\":4407:4468   */\n      swap2\n      pop\n        /* \"#utility.yul\":4363:4478   */\n      pop\n        /* \"#utility.yul\":4160:4485   */\n      swap3\n      swap2\n      pop\n      pop\n      jump\t// out\n        /* \"#utility.yul\":4491:4568   */\n    tag_190:\n        /* \"#utility.yul\":4528:4535   */\n      0x00\n        /* \"#utility.yul\":4557:4562   */\n      dup2\n        /* \"#utility.yul\":4546:4562   */\n      swap1\n      pop\n        /* \"#utility.yul\":4491:4568   */\n      swap2\n      swap1\n      pop\n      jump\t// out\n        /* \"#utility.yul\":4574:4754   */\n    tag_191:\n        /* \"#utility.yul\":4622:4699   */\n      0x4e487b7100000000000000000000000000000000000000000000000000000000\n        /* \"#utility.yul\":4619:4620   */\n      0x00\n        /* \"#utility.yul\":4612:4700   */\n      mstore\n        /* \"#utility.yul\":4719:4723   */\n      0x11\n        /* \"#utility.yul\":4716:4717   */\n      0x04\n        /* \"#utility.yul\":4709:4724   */\n      mstore\n        /* \"#utility.yul\":4743:4747   */\n      0x24\n        /* \"#utility.yul\":4740:4741   */\n      0x00\n        /* \"#utility.yul\":4733:4748   */\n      revert\n        /* \"#utility.yul\":4760:5065   */\n    tag_63:\n        /* \"#utility.yul\":4800:4803   */\n      0x00\n        /* \"#utility.yul\":4819:4839   */\n      tag_269\n        /* \"#utility.yul\":4837:4838   */\n      dup3\n        /* \"#utility.yul\":4819:4839   */\n      tag_190\n      jump\t// in\n    tag_269:\n        /* \"#utility.yul\":4814:4839   */\n      swap2\n      pop\n        /* \"#utility.yul\":4853:4873   */\n      tag_270\n        /* \"#utility.yul\":4871:4872   */\n      dup4\n        /* \"#utility.yul\":4853:4873   */\n      tag_190\n      jump\t// in\n    tag_270:\n        /* \"#utility.yul\":4848:4873   */\n      swap3\n      pop\n        /* \"#utility.yul\":5007:5008   */\n      dup3\n        /* \"#utility.yul\":4939:5005   */\n      0xffffffffffffffffffffffffffffffffffffffffffffffffffffffffffffffff\n        /* \"#utility.yul\":4935:5009   */\n      sub\n        /* \"#utility.yul\":4932:4933   */\n      dup3\n        /* \"#utility.yul\":4929:5010   */\n      gt\n        /* \"#utility.yul\":4926:5033   */\n      iszero\n      tag_271\n      jumpi\n        /* \"#utility.yul\":5013:5031   */\n      tag_272\n      tag_191\n      jump\t// in\n    tag_272:\n        /* \"#utility.yul\":4926:5033   */\n    tag_271:\n        /* \"#utility.yul\":5057:5058   */\n      dup3\n        /* \"#utility.yul\":5054:5055   */\n      dup3\n        /* \"#utility.yul\":5050:5059   */\n      add\n        /* \"#utility.yul\":5043:5059   */\n      swap1\n      pop\n        /* \"#utility.yul\":4760:5065   */\n      swap3\n      swap2\n      pop\n      pop\n      jump\t// out\n        /* \"#utility.yul\":5071:5238   */\n    tag_65:\n        /* \"#utility.yul\":5108:5111   */\n      0x00\n        /* \"#utility.yul\":5131:5153   */\n      tag_274\n        /* \"#utility.yul\":5147:5152   */\n      dup3\n        /* \"#utility.yul\":5131:5153   */\n      tag_187\n      jump\t// in\n    tag_274:\n        /* \"#utility.yul\":5122:5153   */\n      swap2\n      pop\n        /* \"#utility.yul\":5175:5179   */\n      0xff\n        /* \"#utility.yul\":5168:5173   */\n      dup3\n        /* \"#utility.yul\":5165:5180   */\n      eq\n        /* \"#utility.yul\":5162:5203   */\n      iszero\n      tag_275\n      jumpi\n        /* \"#utility.yul\":5183:5201   */\n      tag_276\n      tag_191\n      jump\t// in\n    tag_276:\n        /* \"#utility.yul\":5162:5203   */\n    tag_275:\n        /* \"#utility.yul\":5230:5231   */\n      0x01\n        /* \"#utility.yul\":5223:5228   */\n      dup3\n        /* \"#utility.yul\":5219:5232   */\n      add\n        /* \"#utility.yul\":5212:5232   */\n      swap1\n      pop\n        /* \"#utility.yul\":5071:5238   */\n      swap2\n      swap1\n      pop\n      jump\t// out\n        /* \"#utility.yul\":5244:5413   */\n    tag_192:\n        /* \"#utility.yul\":5328:5339   */\n      0x00\n        /* \"#utility.yul\":5362:5368   */\n      dup3\n        /* \"#utility.yul\":5357:5360   */\n      dup3\n        /* \"#utility.yul\":5350:5369   */\n      mstore\n        /* \"#utility.yul\":5402:5406   */\n      0x20\n        /* \"#utility.yul\":5397:5400   */\n      dup3\n        /* \"#utility.yul\":5393:5407   */\n      add\n        /* \"#utility.yul\":5378:5407   */\n      swap1\n      pop\n        /* \"#utility.yul\":5244:5413   */\n      swap3\n      swap2\n      pop\n      pop\n      jump\t// out\n        /* \"#utility.yul\":5419:5652   */\n    tag_193:\n        /* \"#utility.yul\":5559:5593   */\n      0x496e697469616c697a61626c653a20636f6e747261637420697320616c726561\n        /* \"#utility.yul\":5555:5556   */\n      0x00\n        /* \"#utility.yul\":5547:5553   */\n      dup3\n        /* \"#utility.yul\":5543:5557   */\n      add\n        /* \"#utility.yul\":5536:5594   */\n      mstore\n        /* \"#utility.yul\":5628:5644   */\n      0x647920696e697469616c697a6564000000000000000000000000000000000000\n        /* \"#utility.yul\":5623:5625   */\n      0x20\n        /* \"#utility.yul\":5615:5621   */\n      dup3\n        /* \"#utility.yul\":5611:5626   */\n      add\n        /* \"#utility.yul\":5604:5645   */\n      mstore\n        /* \"#utility.yul\":5419:5652   */\n      pop\n      jump\t// out\n        /* \"#utility.yul\":5658:6024   */\n    tag_194:\n        /* \"#utility.yul\":5800:5803   */\n      0x00\n        /* \"#utility.yul\":5821:5888   */\n      tag_280\n        /* \"#utility.yul\":5885:5887   */\n      0x2e\n        /* \"#utility.yul\":5880:5883   */\n      dup4\n        /* \"#utility.yul\":5821:5888   */\n      tag_192\n      jump\t// in\n    tag_280:\n        /* \"#utility.yul\":5814:5888   */\n      swap2\n      pop\n        /* \"#utility.yul\":5897:5990   */\n      tag_281\n        /* \"#utility.yul\":5986:5989   */\n      dup3\n        /* \"#utility.yul\":5897:5990   */\n      tag_193\n      jump\t// in\n    tag_281:\n        /* \"#utility.yul\":6015:6017   */\n      0x40\n        /* \"#utility.yul\":6010:6013   */\n      dup3\n        /* \"#utility.yul\":6006:6018   */\n      add\n        /* \"#utility.yul\":5999:6018   */\n      swap1\n      pop\n        /* \"#utility.yul\":5658:6024   */\n      swap2\n      swap1\n      pop\n      jump\t// out\n        /* \"#utility.yul\":6030:6449   */\n    tag_80:\n        /* \"#utility.yul\":6196:6200   */\n      0x00\n        /* \"#utility.yul\":6234:6236   */\n      0x20\n        /* \"#utility.yul\":6223:6232   */\n      dup3\n        /* \"#utility.yul\":6219:6237   */\n      add\n        /* \"#utility.yul\":6211:6237   */\n      swap1\n      pop\n        /* \"#utility.yul\":6283:6292   */\n      dup2\n        /* \"#utility.yul\":6277:6281   */\n      dup2\n        /* \"#utility.yul\":6273:6293   */\n      sub\n        /* \"#utility.yul\":6269:6270   */\n      0x00\n        /* \"#utility.yul\":6258:6267   */\n      dup4\n        /* \"#utility.yul\":6254:6271   */\n      add\n        /* \"#utility.yul\":6247:6294   */\n      mstore\n        /* \"#utility.yul\":6311:6442   */\n      tag_283\n        /* \"#utility.yul\":6437:6441   */\n      dup2\n        /* \"#utility.yul\":6311:6442   */\n      tag_194\n      jump\t// in\n    tag_283:\n        /* \"#utility.yul\":6303:6442   */\n      swap1\n      pop\n        /* \"#utility.yul\":6030:6449   */\n      swap2\n      swap1\n      pop\n      jump\t// out\n        /* \"#utility.yul\":6455:6540   */\n    tag_195:\n        /* \"#utility.yul\":6500:6507   */\n      0x00\n        /* \"#utility.yul\":6529:6534   */\n      dup2\n        /* \"#utility.yul\":6518:6534   */\n      swap1\n      pop\n        /* \"#utility.yul\":6455:6540   */\n      swap2\n      swap1\n      pop\n      jump\t// out\n        /* \"#utility.yul\":6546:6606   */\n    tag_196:\n        /* \"#utility.yul\":6574:6577   */\n      0x00\n        /* \"#utility.yul\":6595:6600   */\n      dup2\n        /* \"#utility.yul\":6588:6600   */\n      swap1\n      pop\n        /* \"#utility.yul\":6546:6606   */\n      swap2\n      swap1\n      pop\n      jump\t// out\n        /* \"#utility.yul\":6612:6766   */\n    tag_197:\n        /* \"#utility.yul\":6668:6677   */\n      0x00\n        /* \"#utility.yul\":6701:6760   */\n      tag_287\n        /* \"#utility.yul\":6717:6759   */\n      tag_288\n        /* \"#utility.yul\":6726:6758   */\n      tag_289\n        /* \"#utility.yul\":6752:6757   */\n      dup5\n        /* \"#utility.yul\":6726:6758   */\n      tag_195\n      jump\t// in\n    tag_289:\n        /* \"#utility.yul\":6717:6759   */\n      tag_196\n      jump\t// in\n    tag_288:\n        /* \"#utility.yul\":6701:6760   */\n      tag_187\n      jump\t// in\n    tag_287:\n        /* \"#utility.yul\":6688:6760   */\n      swap1\n      pop\n        /* \"#utility.yul\":6612:6766   */\n      swap2\n      swap1\n      pop\n      jump\t// out\n        /* \"#utility.yul\":6772:6915   */\n    tag_198:\n        /* \"#utility.yul\":6865:6908   */\n      tag_291\n        /* \"#utility.yul\":6902:6907   */\n      dup2\n        /* \"#utility.yul\":6865:6908   */\n      tag_197\n      jump\t// in\n    tag_291:\n        /* \"#utility.yul\":6860:6863   */\n      dup3\n        /* \"#utility.yul\":6853:6909   */\n      mstore\n        /* \"#utility.yul\":6772:6915   */\n      pop\n      pop\n      jump\t// out\n        /* \"#utility.yul\":6921:7155   */\n    tag_89:\n        /* \"#utility.yul\":7020:7024   */\n      0x00\n        /* \"#utility.yul\":7058:7060   */\n      0x20\n        /* \"#utility.yul\":7047:7056   */\n      dup3\n        /* \"#utility.yul\":7043:7061   */\n      add\n        /* \"#utility.yul\":7035:7061   */\n      swap1\n      pop\n        /* \"#utility.yul\":7071:7148   */\n      tag_293\n        /* \"#utility.yul\":7145:7146   */\n      0x00\n        /* \"#utility.yul\":7134:7143   */\n      dup4\n        /* \"#utility.yul\":7130:7147   */\n      add\n        /* \"#utility.yul\":7121:7127   */\n      dup5\n        /* \"#utility.yul\":7071:7148   */\n      tag_198\n      jump\t// in\n    tag_293:\n        /* \"#utility.yul\":6921:7155   */\n      swap3\n      swap2\n      pop\n      pop\n      jump\t// out\n        /* \"#utility.yul\":7161:7392   */\n    tag_199:\n        /* \"#utility.yul\":7301:7335   */\n      0x4d6167696320506978656c733a206e6577206e65746865722069732074686520\n        /* \"#utility.yul\":7297:7298   */\n      0x00\n        /* \"#utility.yul\":7289:7295   */\n      dup3\n        /* \"#utility.yul\":7285:7299   */\n      add\n        /* \"#utility.yul\":7278:7336   */\n      mstore\n        /* \"#utility.yul\":7370:7384   */\n      0x7a65726f20616464726573730000000000000000000000000000000000000000\n        /* \"#utility.yul\":7365:7367   */\n      0x20\n        /* \"#utility.yul\":7357:7363   */\n      dup3\n        /* \"#utility.yul\":7353:7368   */\n      add\n        /* \"#utility.yul\":7346:7385   */\n      mstore\n        /* \"#utility.yul\":7161:7392   */\n      pop\n      jump\t// out\n        /* \"#utility.yul\":7398:7764   */\n    tag_200:\n        /* \"#utility.yul\":7540:7543   */\n      0x00\n        /* \"#utility.yul\":7561:7628   */\n      tag_296\n        /* \"#utility.yul\":7625:7627   */\n      0x2c\n        /* \"#utility.yul\":7620:7623   */\n      dup4\n        /* \"#utility.yul\":7561:7628   */\n      tag_192\n      jump\t// in\n    tag_296:\n        /* \"#utility.yul\":7554:7628   */\n      swap2\n      pop\n        /* \"#utility.yul\":7637:7730   */\n      tag_297\n        /* \"#utility.yul\":7726:7729   */\n      dup3\n        /* \"#utility.yul\":7637:7730   */\n      tag_199\n      jump\t// in\n    tag_297:\n        /* \"#utility.yul\":7755:7757   */\n      0x40\n        /* \"#utility.yul\":7750:7753   */\n      dup3\n        /* \"#utility.yul\":7746:7758   */\n      add\n        /* \"#utility.yul\":7739:7758   */\n      swap1\n      pop\n        /* \"#utility.yul\":7398:7764   */\n      swap2\n      swap1\n      pop\n      jump\t// out\n        /* \"#utility.yul\":7770:8189   */\n    tag_101:\n        /* \"#utility.yul\":7936:7940   */\n      0x00\n        /* \"#utility.yul\":7974:7976   */\n      0x20\n        /* \"#utility.yul\":7963:7972   */\n      dup3\n        /* \"#utility.yul\":7959:7977   */\n      add\n        /* \"#utility.yul\":7951:7977   */\n      swap1\n      pop\n        /* \"#utility.yul\":8023:8032   */\n      dup2\n        /* \"#utility.yul\":8017:8021   */\n      dup2\n        /* \"#utility.yul\":8013:8033   */\n      sub\n        /* \"#utility.yul\":8009:8010   */\n      0x00\n        /* \"#utility.yul\":7998:8007   */\n      dup4\n        /* \"#utility.yul\":7994:8011   */\n      add\n        /* \"#utility.yul\":7987:8034   */\n      mstore\n        /* \"#utility.yul\":8051:8182   */\n      tag_299\n        /* \"#utility.yul\":8177:8181   */\n      dup2\n        /* \"#utility.yul\":8051:8182   */\n      tag_200\n      jump\t// in\n    tag_299:\n        /* \"#utility.yul\":8043:8182   */\n      swap1\n      pop\n        /* \"#utility.yul\":7770:8189   */\n      swap2\n      swap1\n      pop\n      jump\t// out\n        /* \"#utility.yul\":8195:8420   */\n    tag_201:\n        /* \"#utility.yul\":8335:8369   */\n      0x4f776e61626c653a206e6577206f776e657220697320746865207a65726f2061\n        /* \"#utility.yul\":8331:8332   */\n      0x00\n        /* \"#utility.yul\":8323:8329   */\n      dup3\n        /* \"#utility.yul\":8319:8333   */\n      add\n        /* \"#utility.yul\":8312:8370   */\n      mstore\n        /* \"#utility.yul\":8404:8412   */\n      0x6464726573730000000000000000000000000000000000000000000000000000\n        /* \"#utility.yul\":8399:8401   */\n      0x20\n        /* \"#utility.yul\":8391:8397   */\n      dup3\n        /* \"#utility.yul\":8387:8402   */\n      add\n        /* \"#utility.yul\":8380:8413   */\n      mstore\n        /* \"#utility.yul\":8195:8420   */\n      pop\n      jump\t// out\n        /* \"#utility.yul\":8426:8792   */\n    tag_202:\n        /* \"#utility.yul\":8568:8571   */\n      0x00\n        /* \"#utility.yul\":8589:8656   */\n      tag_302\n        /* \"#utility.yul\":8653:8655   */\n      0x26\n        /* \"#utility.yul\":8648:8651   */\n      dup4\n        /* \"#utility.yul\":8589:8656   */\n      tag_192\n      jump\t// in\n    tag_302:\n        /* \"#utility.yul\":8582:8656   */\n      swap2\n      pop\n        /* \"#utility.yul\":8665:8758   */\n      tag_303\n        /* \"#utility.yul\":8754:8757   */\n      dup3\n        /* \"#utility.yul\":8665:8758   */\n      tag_201\n      jump\t// in\n    tag_303:\n        /* \"#utility.yul\":8783:8785   */\n      0x40\n        /* \"#utility.yul\":8778:8781   */\n      dup3\n        /* \"#utility.yul\":8774:8786   */\n      add\n        /* \"#utility.yul\":8767:8786   */\n      swap1\n      pop\n        /* \"#utility.yul\":8426:8792   */\n      swap2\n      swap1\n      pop\n      jump\t// out\n        /* \"#utility.yul\":8798:9217   */\n    tag_110:\n        /* \"#utility.yul\":8964:8968   */\n      0x00\n        /* \"#utility.yul\":9002:9004   */\n      0x20\n        /* \"#utility.yul\":8991:9000   */\n      dup3\n        /* \"#utility.yul\":8987:9005   */\n      add\n        /* \"#utility.yul\":8979:9005   */\n      swap1\n      pop\n        /* \"#utility.yul\":9051:9060   */\n      dup2\n        /* \"#utility.yul\":9045:9049   */\n      dup2\n        /* \"#utility.yul\":9041:9061   */\n      sub\n        /* \"#utility.yul\":9037:9038   */\n      0x00\n        /* \"#utility.yul\":9026:9035   */\n      dup4\n        /* \"#utility.yul\":9022:9039   */\n      add\n        /* \"#utility.yul\":9015:9062   */\n      mstore\n        /* \"#utility.yul\":9079:9210   */\n      tag_305\n        /* \"#utility.yul\":9205:9209   */\n      dup2\n        /* \"#utility.yul\":9079:9210   */\n      tag_202\n      jump\t// in\n    tag_305:\n        /* \"#utility.yul\":9071:9210   */\n      swap1\n      pop\n        /* \"#utility.yul\":8798:9217   */\n      swap2\n      swap1\n      pop\n      jump\t// out\n        /* \"#utility.yul\":9223:9405   */\n    tag_203:\n        /* \"#utility.yul\":9363:9397   */\n      0x4f776e61626c653a2063616c6c6572206973206e6f7420746865206f776e6572\n        /* \"#utility.yul\":9359:9360   */\n      0x00\n        /* \"#utility.yul\":9351:9357   */\n      dup3\n        /* \"#utility.yul\":9347:9361   */\n      add\n        /* \"#utility.yul\":9340:9398   */\n      mstore\n        /* \"#utility.yul\":9223:9405   */\n      pop\n      jump\t// out\n        /* \"#utility.yul\":9411:9777   */\n    tag_204:\n        /* \"#utility.yul\":9553:9556   */\n      0x00\n        /* \"#utility.yul\":9574:9641   */\n      tag_308\n        /* \"#utility.yul\":9638:9640   */\n      0x20\n        /* \"#utility.yul\":9633:9636   */\n      dup4\n        /* \"#utility.yul\":9574:9641   */\n      tag_192\n      jump\t// in\n    tag_308:\n        /* \"#utility.yul\":9567:9641   */\n      swap2\n      pop\n        /* \"#utility.yul\":9650:9743   */\n      tag_309\n        /* \"#utility.yul\":9739:9742   */\n      dup3\n        /* \"#utility.yul\":9650:9743   */\n      tag_203\n      jump\t// in\n    tag_309:\n        /* \"#utility.yul\":9768:9770   */\n      0x20\n        /* \"#utility.yul\":9763:9766   */\n      dup3\n        /* \"#utility.yul\":9759:9771   */\n      add\n        /* \"#utility.yul\":9752:9771   */\n      swap1\n      pop\n        /* \"#utility.yul\":9411:9777   */\n      swap2\n      swap1\n      pop\n      jump\t// out\n        /* \"#utility.yul\":9783:10202   */\n    tag_118:\n        /* \"#utility.yul\":9949:9953   */\n      0x00\n        /* \"#utility.yul\":9987:9989   */\n      0x20\n        /* \"#utility.yul\":9976:9985   */\n      dup3\n        /* \"#utility.yul\":9972:9990   */\n      add\n        /* \"#utility.yul\":9964:9990   */\n      swap1\n      pop\n        /* \"#utility.yul\":10036:10045   */\n      dup2\n        /* \"#utility.yul\":10030:10034   */\n      dup2\n        /* \"#utility.yul\":10026:10046   */\n      sub\n        /* \"#utility.yul\":10022:10023   */\n      0x00\n        /* \"#utility.yul\":10011:10020   */\n      dup4\n        /* \"#utility.yul\":10007:10024   */\n      add\n        /* \"#utility.yul\":10000:10047   */\n      mstore\n        /* \"#utility.yul\":10064:10195   */\n      tag_311\n        /* \"#utility.yul\":10190:10194   */\n      dup2\n        /* \"#utility.yul\":10064:10195   */\n      tag_204\n      jump\t// in\n    tag_311:\n        /* \"#utility.yul\":10056:10195   */\n      swap1\n      pop\n        /* \"#utility.yul\":9783:10202   */\n      swap2\n      swap1\n      pop\n      jump\t// out\n        /* \"#utility.yul\":10208:10433   */\n    tag_205:\n        /* \"#utility.yul\":10348:10382   */\n      0x4d6167696320506978656c733a2063616c6c6572206973206e6f742074686520\n        /* \"#utility.yul\":10344:10345   */\n      0x00\n        /* \"#utility.yul\":10336:10342   */\n      dup3\n        /* \"#utility.yul\":10332:10346   */\n      add\n        /* \"#utility.yul\":10325:10383   */\n      mstore\n        /* \"#utility.yul\":10417:10425   */\n      0x4e65746865720000000000000000000000000000000000000000000000000000\n        /* \"#utility.yul\":10412:10414   */\n      0x20\n        /* \"#utility.yul\":10404:10410   */\n      dup3\n        /* \"#utility.yul\":10400:10415   */\n      add\n        /* \"#utility.yul\":10393:10426   */\n      mstore\n        /* \"#utility.yul\":10208:10433   */\n      pop\n      jump\t// out\n        /* \"#utility.yul\":10439:10805   */\n    tag_206:\n        /* \"#utility.yul\":10581:10584   */\n      0x00\n        /* \"#utility.yul\":10602:10669   */\n      tag_314\n        /* \"#utility.yul\":10666:10668   */\n      0x26\n        /* \"#utility.yul\":10661:10664   */\n      dup4\n        /* \"#utility.yul\":10602:10669   */\n      tag_192\n      jump\t// in\n    tag_314:\n        /* \"#utility.yul\":10595:10669   */\n      swap2\n      pop\n        /* \"#utility.yul\":10678:10771   */\n      tag_315\n        /* \"#utility.yul\":10767:10770   */\n      dup3\n        /* \"#utility.yul\":10678:10771   */\n      tag_205\n      jump\t// in\n    tag_315:\n        /* \"#utility.yul\":10796:10798   */\n      0x40\n        /* \"#utility.yul\":10791:10794   */\n      dup3\n        /* \"#utility.yul\":10787:10799   */\n      add\n        /* \"#utility.yul\":10780:10799   */\n      swap1\n      pop\n        /* \"#utility.yul\":10439:10805   */\n      swap2\n      swap1\n      pop\n      jump\t// out\n        /* \"#utility.yul\":10811:11230   */\n    tag_129:\n        /* \"#utility.yul\":10977:10981   */\n      0x00\n        /* \"#utility.yul\":11015:11017   */\n      0x20\n        /* \"#utility.yul\":11004:11013   */\n      dup3\n        /* \"#utility.yul\":11000:11018   */\n      add\n        /* \"#utility.yul\":10992:11018   */\n      swap1\n      pop\n        /* \"#utility.yul\":11064:11073   */\n      dup2\n        /* \"#utility.yul\":11058:11062   */\n      dup2\n        /* \"#utility.yul\":11054:11074   */\n      sub\n        /* \"#utility.yul\":11050:11051   */\n      0x00\n        /* \"#utility.yul\":11039:11048   */\n      dup4\n        /* \"#utility.yul\":11035:11052   */\n      add\n        /* \"#utility.yul\":11028:11075   */\n      mstore\n        /* \"#utility.yul\":11092:11223   */\n      tag_317\n        /* \"#utility.yul\":11218:11222   */\n      dup2\n        /* \"#utility.yul\":11092:11223   */\n      tag_206\n      jump\t// in\n    tag_317:\n        /* \"#utility.yul\":11084:11223   */\n      swap1\n      pop\n        /* \"#utility.yul\":10811:11230   */\n      swap2\n      swap1\n      pop\n      jump\t// out\n        /* \"#utility.yul\":11236:11466   */\n    tag_207:\n        /* \"#utility.yul\":11376:11410   */\n      0x496e697469616c697a61626c653a20636f6e7472616374206973206e6f742069\n        /* \"#utility.yul\":11372:11373   */\n      0x00\n        /* \"#utility.yul\":11364:11370   */\n      dup3\n        /* \"#utility.yul\":11360:11374   */\n      add\n        /* \"#utility.yul\":11353:11411   */\n      mstore\n        /* \"#utility.yul\":11445:11458   */\n      0x6e697469616c697a696e67000000000000000000000000000000000000000000\n        /* \"#utility.yul\":11440:11442   */\n      0x20\n        /* \"#utility.yul\":11432:11438   */\n      dup3\n        /* \"#utility.yul\":11428:11443   */\n      add\n        /* \"#utility.yul\":11421:11459   */\n      mstore\n        /* \"#utility.yul\":11236:11466   */\n      pop\n      jump\t// out\n        /* \"#utility.yul\":11472:11838   */\n    tag_208:\n        /* \"#utility.yul\":11614:11617   */\n      0x00\n        /* \"#utility.yul\":11635:11702   */\n      tag_320\n        /* \"#utility.yul\":11699:11701   */\n      0x2b\n        /* \"#utility.yul\":11694:11697   */\n      dup4\n        /* \"#utility.yul\":11635:11702   */\n      tag_192\n      jump\t// in\n    tag_320:\n        /* \"#utility.yul\":11628:11702   */\n      swap2\n      pop\n        /* \"#utility.yul\":11711:11804   */\n      tag_321\n        /* \"#utility.yul\":11800:11803   */\n      dup3\n        /* \"#utility.yul\":11711:11804   */\n      tag_207\n      jump\t// in\n    tag_321:\n        /* \"#utility.yul\":11829:11831   */\n      0x40\n        /* \"#utility.yul\":11824:11827   */\n      dup3\n        /* \"#utility.yul\":11820:11832   */\n      add\n        /* \"#utility.yul\":11813:11832   */\n      swap1\n      pop\n        /* \"#utility.yul\":11472:11838   */\n      swap2\n      swap1\n      pop\n      jump\t// out\n        /* \"#utility.yul\":11844:12263   */\n    tag_135:\n        /* \"#utility.yul\":12010:12014   */\n      0x00\n        /* \"#utility.yul\":12048:12050   */\n      0x20\n        /* \"#utility.yul\":12037:12046   */\n      dup3\n        /* \"#utility.yul\":12033:12051   */\n      add\n        /* \"#utility.yul\":12025:12051   */\n      swap1\n      pop\n        /* \"#utility.yul\":12097:12106   */\n      dup2\n        /* \"#utility.yul\":12091:12095   */\n      dup2\n        /* \"#utility.yul\":12087:12107   */\n      sub\n        /* \"#utility.yul\":12083:12084   */\n      0x00\n        /* \"#utility.yul\":12072:12081   */\n      dup4\n        /* \"#utility.yul\":12068:12085   */\n      add\n        /* \"#utility.yul\":12061:12108   */\n      mstore\n        /* \"#utility.yul\":12125:12256   */\n      tag_323\n        /* \"#utility.yul\":12251:12255   */\n      dup2\n        /* \"#utility.yul\":12125:12256   */\n      tag_208\n      jump\t// in\n    tag_323:\n        /* \"#utility.yul\":12117:12256   */\n      swap1\n      pop\n        /* \"#utility.yul\":11844:12263   */\n      swap2\n      swap1\n      pop\n      jump\t// out\n        /* \"#utility.yul\":12269:12439   */\n    tag_209:\n        /* \"#utility.yul\":12409:12431   */\n      0x5061757361626c653a206e6f7420706175736564000000000000000000000000\n        /* \"#utility.yul\":12405:12406   */\n      0x00\n        /* \"#utility.yul\":12397:12403   */\n      dup3\n        /* \"#utility.yul\":12393:12407   */\n      add\n        /* \"#utility.yul\":12386:12432   */\n      mstore\n        /* \"#utility.yul\":12269:12439   */\n      pop\n      jump\t// out\n        /* \"#utility.yul\":12445:12811   */\n    tag_210:\n        /* \"#utility.yul\":12587:12590   */\n      0x00\n        /* \"#utility.yul\":12608:12675   */\n      tag_326\n        /* \"#utility.yul\":12672:12674   */\n      0x14\n        /* \"#utility.yul\":12667:12670   */\n      dup4\n        /* \"#utility.yul\":12608:12675   */\n      tag_192\n      jump\t// in\n    tag_326:\n        /* \"#utility.yul\":12601:12675   */\n      swap2\n      pop\n        /* \"#utility.yul\":12684:12777   */\n      tag_327\n        /* \"#utility.yul\":12773:12776   */\n      dup3\n        /* \"#utility.yul\":12684:12777   */\n      tag_209\n      jump\t// in\n    tag_327:\n        /* \"#utility.yul\":12802:12804   */\n      0x20\n        /* \"#utility.yul\":12797:12800   */\n      dup3\n        /* \"#utility.yul\":12793:12805   */\n      add\n        /* \"#utility.yul\":12786:12805   */\n      swap1\n      pop\n        /* \"#utility.yul\":12445:12811   */\n      swap2\n      swap1\n      pop\n      jump\t// out\n        /* \"#utility.yul\":12817:13236   */\n    tag_157:\n        /* \"#utility.yul\":12983:12987   */\n      0x00\n        /* \"#utility.yul\":13021:13023   */\n      0x20\n        /* \"#utility.yul\":13010:13019   */\n      dup3\n        /* \"#utility.yul\":13006:13024   */\n      add\n        /* \"#utility.yul\":12998:13024   */\n      swap1\n      pop\n        /* \"#utility.yul\":13070:13079   */\n      dup2\n        /* \"#utility.yul\":13064:13068   */\n      dup2\n        /* \"#utility.yul\":13060:13080   */\n      sub\n        /* \"#utility.yul\":13056:13057   */\n      0x00\n        /* \"#utility.yul\":13045:13054   */\n      dup4\n        /* \"#utility.yul\":13041:13058   */\n      add\n        /* \"#utility.yul\":13034:13081   */\n      mstore\n        /* \"#utility.yul\":13098:13229   */\n      tag_329\n        /* \"#utility.yul\":13224:13228   */\n      dup2\n        /* \"#utility.yul\":13098:13229   */\n      tag_210\n      jump\t// in\n    tag_329:\n        /* \"#utility.yul\":13090:13229   */\n      swap1\n      pop\n        /* \"#utility.yul\":12817:13236   */\n      swap2\n      swap1\n      pop\n      jump\t// out\n        /* \"#utility.yul\":13242:13408   */\n    tag_211:\n        /* \"#utility.yul\":13382:13400   */\n      0x5061757361626c653a2070617573656400000000000000000000000000000000\n        /* \"#utility.yul\":13378:13379   */\n      0x00\n        /* \"#utility.yul\":13370:13376   */\n      dup3\n        /* \"#utility.yul\":13366:13380   */\n      add\n        /* \"#utility.yul\":13359:13401   */\n      mstore\n        /* \"#utility.yul\":13242:13408   */\n      pop\n      jump\t// out\n        /* \"#utility.yul\":13414:13780   */\n    tag_212:\n        /* \"#utility.yul\":13556:13559   */\n      0x00\n        /* \"#utility.yul\":13577:13644   */\n      tag_332\n        /* \"#utility.yul\":13641:13643   */\n      0x10\n        /* \"#utility.yul\":13636:13639   */\n      dup4\n        /* \"#utility.yul\":13577:13644   */\n      tag_192\n      jump\t// in\n    tag_332:\n        /* \"#utility.yul\":13570:13644   */\n      swap2\n      pop\n        /* \"#utility.yul\":13653:13746   */\n      tag_333\n        /* \"#utility.yul\":13742:13745   */\n      dup3\n        /* \"#utility.yul\":13653:13746   */\n      tag_211\n      jump\t// in\n    tag_333:\n        /* \"#utility.yul\":13771:13773   */\n      0x20\n        /* \"#utility.yul\":13766:13769   */\n      dup3\n        /* \"#utility.yul\":13762:13774   */\n      add\n        /* \"#utility.yul\":13755:13774   */\n      swap1\n      pop\n        /* \"#utility.yul\":13414:13780   */\n      swap2\n      swap1\n      pop\n      jump\t// out\n        /* \"#utility.yul\":13786:14205   */\n    tag_172:\n        /* \"#utility.yul\":13952:13956   */\n      0x00\n        /* \"#utility.yul\":13990:13992   */\n      0x20\n        /* \"#utility.yul\":13979:13988   */\n      dup3\n        /* \"#utility.yul\":13975:13993   */\n      add\n        /* \"#utility.yul\":13967:13993   */\n      swap1\n      pop\n        /* \"#utility.yul\":14039:14048   */\n      dup2\n        /* \"#utility.yul\":14033:14037   */\n      dup2\n        /* \"#utility.yul\":14029:14049   */\n      sub\n        /* \"#utility.yul\":14025:14026   */\n      0x00\n        /* \"#utility.yul\":14014:14023   */\n      dup4\n        /* \"#utility.yul\":14010:14027   */\n      add\n        /* \"#utility.yul\":14003:14050   */\n      mstore\n        /* \"#utility.yul\":14067:14198   */\n      tag_335\n        /* \"#utility.yul\":14193:14197   */\n      dup2\n        /* \"#utility.yul\":14067:14198   */\n      tag_212\n      jump\t// in\n    tag_335:\n        /* \"#utility.yul\":14059:14198   */\n      swap1\n      pop\n        /* \"#utility.yul\":13786:14205   */\n      swap2\n      swap1\n      pop\n      jump\t// out\n\n    auxdata: 0xa26469706673582212207958cb3231ece38c13cb51373a6850a9875e28a62dc5256d50a74219081008f064736f6c63430008090033\n}\n",
				"bytecode": {
					"linkReferences": {},
					"object": "60806040523480156200001157600080fd5b50620000226200002860201b60201c565b620001d3565b600060019054906101000a900460ff16156200007b576040517f08c379a0000000000000000000000000000000000000000000000000000000008152600401620000729062000176565b60405180910390fd5b60ff801660008054906101000a900460ff1660ff161015620000ed5760ff6000806101000a81548160ff021916908360ff1602179055507f7f26b83ff96e1f2b6a682f133852f6798a09c465da95921460cefb384740249860ff604051620000e49190620001b6565b60405180910390a15b565b600082825260208201905092915050565b7f496e697469616c697a61626c653a20636f6e747261637420697320696e69746960008201527f616c697a696e6700000000000000000000000000000000000000000000000000602082015250565b60006200015e602783620000ef565b91506200016b8262000100565b604082019050919050565b6000602082019050818103600083015262000191816200014f565b9050919050565b600060ff82169050919050565b620001b08162000198565b82525050565b6000602082019050620001cd6000830184620001a5565b92915050565b61125c80620001e36000396000f3fe608060405234801561001057600080fd5b506004361061009e5760003560e01c80638456cb59116100665780638456cb59146100fb5780638da5cb5b146101055780639734489a14610123578063a1c60fd91461013f578063f2fde38b1461015d5761009e565b80633f4ba83a146100a35780634aed4f5e146100ad5780635c975abb146100c9578063715018a6146100e75780638129fc1c146100f1575b600080fd5b6100ab610179565b005b6100c760048036038101906100c29190610b5c565b61018b565b005b6100d16102ae565b6040516100de9190610bd7565b60405180910390f35b6100ef6102c5565b005b6100f96102d9565b005b61010361041f565b005b61010d610431565b60405161011a9190610c01565b60405180910390f35b61013d60048036038101906101389190610c1c565b61045b565b005b6101476104df565b6040516101549190610c01565b60405180910390f35b61017760048036038101906101729190610c1c565b610509565b005b61018161058d565b61018961060b565b565b61019361066e565b60005b600a8160ff1610156102a857600083838360ff168181106101ba576101b9610c49565b5b90506020020160208101906101cf9190610cb1565b90506000609860008773ffffffffffffffffffffffffffffffffffffffff1673ffffffffffffffffffffffffffffffffffffffff16815260200190815260200160002060008360ff1660ff1681526020019081526020016000205490506001816102399190610d17565b609860008873ffffffffffffffffffffffffffffffffffffffff1673ffffffffffffffffffffffffffffffffffffffff16815260200190815260200160002060008460ff1660ff16815260200190815260200160002081905550505080806102a090610d6d565b915050610196565b50505050565b6000603360009054906101000a900460ff16905090565b6102cd61058d565b6102d760006106e5565b565b60008060019054906101000a900460ff1615905080801561030a5750600160008054906101000a900460ff1660ff16105b806103375750610319306107ab565b1580156103365750600160008054906101000a900460ff1660ff16145b5b610376576040517f08c379a000000000000000000000000000000000000000000000000000000000815260040161036d90610e1a565b60405180910390fd5b60016000806101000a81548160ff021916908360ff16021790555080156103b3576001600060016101000a81548160ff0219169083151502179055505b6103bb6107ce565b6103c3610827565b801561041c5760008060016101000a81548160ff0219169083151502179055507f7f26b83ff96e1f2b6a682f133852f6798a09c465da95921460cefb384740249860016040516104139190610e7f565b60405180910390a15b50565b61042761058d565b61042f610880565b565b6000606560009054906101000a900473ffffffffffffffffffffffffffffffffffffffff16905090565b61046361058d565b600073ffffffffffffffffffffffffffffffffffffffff168173ffffffffffffffffffffffffffffffffffffffff1614156104d3576040517f08c379a00000000000000000000000000000000000000000000000000000000081526004016104ca90610f0c565b60405180910390fd5b6104dc816108e3565b50565b6000609760009054906101000a900473ffffffffffffffffffffffffffffffffffffffff16905090565b61051161058d565b600073ffffffffffffffffffffffffffffffffffffffff168173ffffffffffffffffffffffffffffffffffffffff161415610581576040517f08c379a000000000000000000000000000000000000000000000000000000000815260040161057890610f9e565b60405180910390fd5b61058a816106e5565b50565b610595610927565b73ffffffffffffffffffffffffffffffffffffffff166105b3610431565b73ffffffffffffffffffffffffffffffffffffffff1614610609576040517f08c379a00000000000000000000000000000000000000000000000000000000081526004016106009061100a565b60405180910390fd5b565b61061361092f565b6000603360006101000a81548160ff0219169083151502179055507f5db9ee0a495bf2e6ff9c91a7834c1ba4fdd244a5e8aa4e537bd38aeae4b073aa610657610927565b6040516106649190610c01565b60405180910390a1565b3373ffffffffffffffffffffffffffffffffffffffff1661068d6104df565b73ffffffffffffffffffffffffffffffffffffffff16146106e3576040517f08c379a00000000000000000000000000000000000000000000000000000000081526004016106da9061109c565b60405180910390fd5b565b6000606560009054906101000a900473ffffffffffffffffffffffffffffffffffffffff16905081606560006101000a81548173ffffffffffffffffffffffffffffffffffffffff021916908373ffffffffffffffffffffffffffffffffffffffff1602179055508173ffffffffffffffffffffffffffffffffffffffff168173ffffffffffffffffffffffffffffffffffffffff167f8be0079c531659141344cd1fd0a4f28419497f9722a3daafe3b4186f6b6457e060405160405180910390a35050565b6000808273ffffffffffffffffffffffffffffffffffffffff163b119050919050565b600060019054906101000a900460ff1661081d576040517f08c379a00000000000000000000000000000000000000000000000000000000081526004016108149061112e565b60405180910390fd5b610825610978565b565b600060019054906101000a900460ff16610876576040517f08c379a000000000000000000000000000000000000000000000000000000000815260040161086d9061112e565b60405180910390fd5b61087e6109e4565b565b610888610a45565b6001603360006101000a81548160ff0219169083151502179055507f62e78cea01bee320cd4e420270b5ea74000d11b0c9f74754ebdbfc544b05a2586108cc610927565b6040516108d99190610c01565b60405180910390a1565b80609760006101000a81548173ffffffffffffffffffffffffffffffffffffffff021916908373ffffffffffffffffffffffffffffffffffffffff16021790555050565b600033905090565b6109376102ae565b610976576040517f08c379a000000000000000000000000000000000000000000000000000000000815260040161096d9061119a565b60405180910390fd5b565b600060019054906101000a900460ff166109c7576040517f08c379a00000000000000000000000000000000000000000000000000000000081526004016109be9061112e565b60405180910390fd5b6000603360006101000a81548160ff021916908315150217905550565b600060019054906101000a900460ff16610a33576040517f08c379a0000000000000000000000000000000000000000000000000000000008152600401610a2a9061112e565b60405180910390fd5b610a43610a3e610927565b6106e5565b565b610a4d6102ae565b15610a8d576040517f08c379a0000000000000000000000000000000000000000000000000000000008152600401610a8490611206565b60405180910390fd5b565b600080fd5b600080fd5b600073ffffffffffffffffffffffffffffffffffffffff82169050919050565b6000610ac482610a99565b9050919050565b610ad481610ab9565b8114610adf57600080fd5b50565b600081359050610af181610acb565b92915050565b600080fd5b600080fd5b600080fd5b60008083601f840112610b1c57610b1b610af7565b5b8235905067ffffffffffffffff811115610b3957610b38610afc565b5b602083019150836020820283011115610b5557610b54610b01565b5b9250929050565b600080600060408486031215610b7557610b74610a8f565b5b6000610b8386828701610ae2565b935050602084013567ffffffffffffffff811115610ba457610ba3610a94565b5b610bb086828701610b06565b92509250509250925092565b60008115159050919050565b610bd181610bbc565b82525050565b6000602082019050610bec6000830184610bc8565b92915050565b610bfb81610ab9565b82525050565b6000602082019050610c166000830184610bf2565b92915050565b600060208284031215610c3257610c31610a8f565b5b6000610c4084828501610ae2565b91505092915050565b7f4e487b7100000000000000000000000000000000000000000000000000000000600052603260045260246000fd5b600060ff82169050919050565b610c8e81610c78565b8114610c9957600080fd5b50565b600081359050610cab81610c85565b92915050565b600060208284031215610cc757610cc6610a8f565b5b6000610cd584828501610c9c565b91505092915050565b6000819050919050565b7f4e487b7100000000000000000000000000000000000000000000000000000000600052601160045260246000fd5b6000610d2282610cde565b9150610d2d83610cde565b9250827fffffffffffffffffffffffffffffffffffffffffffffffffffffffffffffffff03821115610d6257610d61610ce8565b5b828201905092915050565b6000610d7882610c78565b915060ff821415610d8c57610d8b610ce8565b5b600182019050919050565b600082825260208201905092915050565b7f496e697469616c697a61626c653a20636f6e747261637420697320616c72656160008201527f647920696e697469616c697a6564000000000000000000000000000000000000602082015250565b6000610e04602e83610d97565b9150610e0f82610da8565b604082019050919050565b60006020820190508181036000830152610e3381610df7565b9050919050565b6000819050919050565b6000819050919050565b6000610e69610e64610e5f84610e3a565b610e44565b610c78565b9050919050565b610e7981610e4e565b82525050565b6000602082019050610e946000830184610e70565b92915050565b7f4d6167696320506978656c733a206e6577206e6574686572206973207468652060008201527f7a65726f20616464726573730000000000000000000000000000000000000000602082015250565b6000610ef6602c83610d97565b9150610f0182610e9a565b604082019050919050565b60006020820190508181036000830152610f2581610ee9565b9050919050565b7f4f776e61626c653a206e6577206f776e657220697320746865207a65726f206160008201527f6464726573730000000000000000000000000000000000000000000000000000602082015250565b6000610f88602683610d97565b9150610f9382610f2c565b604082019050919050565b60006020820190508181036000830152610fb781610f7b565b9050919050565b7f4f776e61626c653a2063616c6c6572206973206e6f7420746865206f776e6572600082015250565b6000610ff4602083610d97565b9150610fff82610fbe565b602082019050919050565b6000602082019050818103600083015261102381610fe7565b9050919050565b7f4d6167696320506978656c733a2063616c6c6572206973206e6f74207468652060008201527f4e65746865720000000000000000000000000000000000000000000000000000602082015250565b6000611086602683610d97565b91506110918261102a565b604082019050919050565b600060208201905081810360008301526110b581611079565b9050919050565b7f496e697469616c697a61626c653a20636f6e7472616374206973206e6f74206960008201527f6e697469616c697a696e67000000000000000000000000000000000000000000602082015250565b6000611118602b83610d97565b9150611123826110bc565b604082019050919050565b600060208201905081810360008301526111478161110b565b9050919050565b7f5061757361626c653a206e6f7420706175736564000000000000000000000000600082015250565b6000611184601483610d97565b915061118f8261114e565b602082019050919050565b600060208201905081810360008301526111b381611177565b9050919050565b7f5061757361626c653a2070617573656400000000000000000000000000000000600082015250565b60006111f0601083610d97565b91506111fb826111ba565b602082019050919050565b6000602082019050818103600083015261121f816111e3565b905091905056fea26469706673582212207958cb3231ece38c13cb51373a6850a9875e28a62dc5256d50a74219081008f064736f6c63430008090033",
					"opcodes": "PUSH1 0x80 PUSH1 0x40 MSTORE CALLVALUE DUP1 ISZERO PUSH3 0x11 JUMPI PUSH1 0x0 DUP1 REVERT JUMPDEST POP PUSH3 0x22 PUSH3 0x28 PUSH1 0x20 SHL PUSH1 0x20 SHR JUMP JUMPDEST PUSH3 0x1D3 JUMP JUMPDEST PUSH1 0x0 PUSH1 0x1 SWAP1 SLOAD SWAP1 PUSH2 0x100 EXP SWAP1 DIV PUSH1 0xFF AND ISZERO PUSH3 0x7B JUMPI PUSH1 0x40 MLOAD PUSH32 0x8C379A000000000000000000000000000000000000000000000000000000000 DUP2 MSTORE PUSH1 0x4 ADD PUSH3 0x72 SWAP1 PUSH3 0x176 JUMP JUMPDEST PUSH1 0x40 MLOAD DUP1 SWAP2 SUB SWAP1 REVERT JUMPDEST PUSH1 0xFF DUP1 AND PUSH1 0x0 DUP1 SLOAD SWAP1 PUSH2 0x100 EXP SWAP1 DIV PUSH1 0xFF AND PUSH1 0xFF AND LT ISZERO PUSH3 0xED JUMPI PUSH1 0xFF PUSH1 0x0 DUP1 PUSH2 0x100 EXP DUP2 SLOAD DUP2 PUSH1 0xFF MUL NOT AND SWAP1 DUP4 PUSH1 0xFF AND MUL OR SWAP1 SSTORE POP PUSH32 0x7F26B83FF96E1F2B6A682F133852F6798A09C465DA95921460CEFB3847402498 PUSH1 0xFF PUSH1 0x40 MLOAD PUSH3 0xE4 SWAP2 SWAP1 PUSH3 0x1B6 JUMP JUMPDEST PUSH1 0x40 MLOAD DUP1 SWAP2 SUB SWAP1 LOG1 JUMPDEST JUMP JUMPDEST PUSH1 0x0 DUP3 DUP3 MSTORE PUSH1 0x20 DUP3 ADD SWAP1 POP SWAP3 SWAP2 POP POP JUMP JUMPDEST PUSH32 0x496E697469616C697A61626C653A20636F6E747261637420697320696E697469 PUSH1 0x0 DUP3 ADD MSTORE PUSH32 0x616C697A696E6700000000000000000000000000000000000000000000000000 PUSH1 0x20 DUP3 ADD MSTORE POP JUMP JUMPDEST PUSH1 0x0 PUSH3 0x15E PUSH1 0x27 DUP4 PUSH3 0xEF JUMP JUMPDEST SWAP2 POP PUSH3 0x16B DUP3 PUSH3 0x100 JUMP JUMPDEST PUSH1 0x40 DUP3 ADD SWAP1 POP SWAP2 SWAP1 POP JUMP JUMPDEST PUSH1 0x0 PUSH1 0x20 DUP3 ADD SWAP1 POP DUP2 DUP2 SUB PUSH1 0x0 DUP4 ADD MSTORE PUSH3 0x191 DUP2 PUSH3 0x14F JUMP JUMPDEST SWAP1 POP SWAP2 SWAP1 POP JUMP JUMPDEST PUSH1 0x0 PUSH1 0xFF DUP3 AND SWAP1 POP SWAP2 SWAP1 POP JUMP JUMPDEST PUSH3 0x1B0 DUP2 PUSH3 0x198 JUMP JUMPDEST DUP3 MSTORE POP POP JUMP JUMPDEST PUSH1 0x0 PUSH1 0x20 DUP3 ADD SWAP1 POP PUSH3 0x1CD PUSH1 0x0 DUP4 ADD DUP5 PUSH3 0x1A5 JUMP JUMPDEST SWAP3 SWAP2 POP POP JUMP JUMPDEST PUSH2 0x125C DUP1 PUSH3 0x1E3 PUSH1 0x0 CODECOPY PUSH1 0x0 RETURN INVALID PUSH1 0x80 PUSH1 0x40 MSTORE CALLVALUE DUP1 ISZERO PUSH2 0x10 JUMPI PUSH1 0x0 DUP1 REVERT JUMPDEST POP PUSH1 0x4 CALLDATASIZE LT PUSH2 0x9E JUMPI PUSH1 0x0 CALLDATALOAD PUSH1 0xE0 SHR DUP1 PUSH4 0x8456CB59 GT PUSH2 0x66 JUMPI DUP1 PUSH4 0x8456CB59 EQ PUSH2 0xFB JUMPI DUP1 PUSH4 0x8DA5CB5B EQ PUSH2 0x105 JUMPI DUP1 PUSH4 0x9734489A EQ PUSH2 0x123 JUMPI DUP1 PUSH4 0xA1C60FD9 EQ PUSH2 0x13F JUMPI DUP1 PUSH4 0xF2FDE38B EQ PUSH2 0x15D JUMPI PUSH2 0x9E JUMP JUMPDEST DUP1 PUSH4 0x3F4BA83A EQ PUSH2 0xA3 JUMPI DUP1 PUSH4 0x4AED4F5E EQ PUSH2 0xAD JUMPI DUP1 PUSH4 0x5C975ABB EQ PUSH2 0xC9 JUMPI DUP1 PUSH4 0x715018A6 EQ PUSH2 0xE7 JUMPI DUP1 PUSH4 0x8129FC1C EQ PUSH2 0xF1 JUMPI JUMPDEST PUSH1 0x0 DUP1 REVERT JUMPDEST PUSH2 0xAB PUSH2 0x179 JUMP JUMPDEST STOP JUMPDEST PUSH2 0xC7 PUSH1 0x4 DUP1 CALLDATASIZE SUB DUP2 ADD SWAP1 PUSH2 0xC2 SWAP2 SWAP1 PUSH2 0xB5C JUMP JUMPDEST PUSH2 0x18B JUMP JUMPDEST STOP JUMPDEST PUSH2 0xD1 PUSH2 0x2AE JUMP JUMPDEST PUSH1 0x40 MLOAD PUSH2 0xDE SWAP2 SWAP1 PUSH2 0xBD7 JUMP JUMPDEST PUSH1 0x40 MLOAD DUP1 SWAP2 SUB SWAP1 RETURN JUMPDEST PUSH2 0xEF PUSH2 0x2C5 JUMP JUMPDEST STOP JUMPDEST PUSH2 0xF9 PUSH2 0x2D9 JUMP JUMPDEST STOP JUMPDEST PUSH2 0x103 PUSH2 0x41F JUMP JUMPDEST STOP JUMPDEST PUSH2 0x10D PUSH2 0x431 JUMP JUMPDEST PUSH1 0x40 MLOAD PUSH2 0x11A SWAP2 SWAP1 PUSH2 0xC01 JUMP JUMPDEST PUSH1 0x40 MLOAD DUP1 SWAP2 SUB SWAP1 RETURN JUMPDEST PUSH2 0x13D PUSH1 0x4 DUP1 CALLDATASIZE SUB DUP2 ADD SWAP1 PUSH2 0x138 SWAP2 SWAP1 PUSH2 0xC1C JUMP JUMPDEST PUSH2 0x45B JUMP JUMPDEST STOP JUMPDEST PUSH2 0x147 PUSH2 0x4DF JUMP JUMPDEST PUSH1 0x40 MLOAD PUSH2 0x154 SWAP2 SWAP1 PUSH2 0xC01 JUMP JUMPDEST PUSH1 0x40 MLOAD DUP1 SWAP2 SUB SWAP1 RETURN JUMPDEST PUSH2 0x177 PUSH1 0x4 DUP1 CALLDATASIZE SUB DUP2 ADD SWAP1 PUSH2 0x172 SWAP2 SWAP1 PUSH2 0xC1C JUMP JUMPDEST PUSH2 0x509 JUMP JUMPDEST STOP JUMPDEST PUSH2 0x181 PUSH2 0x58D JUMP JUMPDEST PUSH2 0x189 PUSH2 0x60B JUMP JUMPDEST JUMP JUMPDEST PUSH2 0x193 PUSH2 0x66E JUMP JUMPDEST PUSH1 0x0 JUMPDEST PUSH1 0xA DUP2 PUSH1 0xFF AND LT ISZERO PUSH2 0x2A8 JUMPI PUSH1 0x0 DUP4 DUP4 DUP4 PUSH1 0xFF AND DUP2 DUP2 LT PUSH2 0x1BA JUMPI PUSH2 0x1B9 PUSH2 0xC49 JUMP JUMPDEST JUMPDEST SWAP1 POP PUSH1 0x20 MUL ADD PUSH1 0x20 DUP2 ADD SWAP1 PUSH2 0x1CF SWAP2 SWAP1 PUSH2 0xCB1 JUMP JUMPDEST SWAP1 POP PUSH1 0x0 PUSH1 0x98 PUSH1 0x0 DUP8 PUSH20 0xFFFFFFFFFFFFFFFFFFFFFFFFFFFFFFFFFFFFFFFF AND PUSH20 0xFFFFFFFFFFFFFFFFFFFFFFFFFFFFFFFFFFFFFFFF AND DUP2 MSTORE PUSH1 0x20 ADD SWAP1 DUP2 MSTORE PUSH1 0x20 ADD PUSH1 0x0 KECCAK256 PUSH1 0x0 DUP4 PUSH1 0xFF AND PUSH1 0xFF AND DUP2 MSTORE PUSH1 0x20 ADD SWAP1 DUP2 MSTORE PUSH1 0x20 ADD PUSH1 0x0 KECCAK256 SLOAD SWAP1 POP PUSH1 0x1 DUP2 PUSH2 0x239 SWAP2 SWAP1 PUSH2 0xD17 JUMP JUMPDEST PUSH1 0x98 PUSH1 0x0 DUP9 PUSH20 0xFFFFFFFFFFFFFFFFFFFFFFFFFFFFFFFFFFFFFFFF AND PUSH20 0xFFFFFFFFFFFFFFFFFFFFFFFFFFFFFFFFFFFFFFFF AND DUP2 MSTORE PUSH1 0x20 ADD SWAP1 DUP2 MSTORE PUSH1 0x20 ADD PUSH1 0x0 KECCAK256 PUSH1 0x0 DUP5 PUSH1 0xFF AND PUSH1 0xFF AND DUP2 MSTORE PUSH1 0x20 ADD SWAP1 DUP2 MSTORE PUSH1 0x20 ADD PUSH1 0x0 KECCAK256 DUP2 SWAP1 SSTORE POP POP POP DUP1 DUP1 PUSH2 0x2A0 SWAP1 PUSH2 0xD6D JUMP JUMPDEST SWAP2 POP POP PUSH2 0x196 JUMP JUMPDEST POP POP POP POP JUMP JUMPDEST PUSH1 0x0 PUSH1 0x33 PUSH1 0x0 SWAP1 SLOAD SWAP1 PUSH2 0x100 EXP SWAP1 DIV PUSH1 0xFF AND SWAP1 POP SWAP1 JUMP JUMPDEST PUSH2 0x2CD PUSH2 0x58D JUMP JUMPDEST PUSH2 0x2D7 PUSH1 0x0 PUSH2 0x6E5 JUMP JUMPDEST JUMP JUMPDEST PUSH1 0x0 DUP1 PUSH1 0x1 SWAP1 SLOAD SWAP1 PUSH2 0x100 EXP SWAP1 DIV PUSH1 0xFF AND ISZERO SWAP1 POP DUP1 DUP1 ISZERO PUSH2 0x30A JUMPI POP PUSH1 0x1 PUSH1 0x0 DUP1 SLOAD SWAP1 PUSH2 0x100 EXP SWAP1 DIV PUSH1 0xFF AND PUSH1 0xFF AND LT JUMPDEST DUP1 PUSH2 0x337 JUMPI POP PUSH2 0x319 ADDRESS PUSH2 0x7AB JUMP JUMPDEST ISZERO DUP1 ISZERO PUSH2 0x336 JUMPI POP PUSH1 0x1 PUSH1 0x0 DUP1 SLOAD SWAP1 PUSH2 0x100 EXP SWAP1 DIV PUSH1 0xFF AND PUSH1 0xFF AND EQ JUMPDEST JUMPDEST PUSH2 0x376 JUMPI PUSH1 0x40 MLOAD PUSH32 0x8C379A000000000000000000000000000000000000000000000000000000000 DUP2 MSTORE PUSH1 0x4 ADD PUSH2 0x36D SWAP1 PUSH2 0xE1A JUMP JUMPDEST PUSH1 0x40 MLOAD DUP1 SWAP2 SUB SWAP1 REVERT JUMPDEST PUSH1 0x1 PUSH1 0x0 DUP1 PUSH2 0x100 EXP DUP2 SLOAD DUP2 PUSH1 0xFF MUL NOT AND SWAP1 DUP4 PUSH1 0xFF AND MUL OR SWAP1 SSTORE POP DUP1 ISZERO PUSH2 0x3B3 JUMPI PUSH1 0x1 PUSH1 0x0 PUSH1 0x1 PUSH2 0x100 EXP DUP2 SLOAD DUP2 PUSH1 0xFF MUL NOT AND SWAP1 DUP4 ISZERO ISZERO MUL OR SWAP1 SSTORE POP JUMPDEST PUSH2 0x3BB PUSH2 0x7CE JUMP JUMPDEST PUSH2 0x3C3 PUSH2 0x827 JUMP JUMPDEST DUP1 ISZERO PUSH2 0x41C JUMPI PUSH1 0x0 DUP1 PUSH1 0x1 PUSH2 0x100 EXP DUP2 SLOAD DUP2 PUSH1 0xFF MUL NOT AND SWAP1 DUP4 ISZERO ISZERO MUL OR SWAP1 SSTORE POP PUSH32 0x7F26B83FF96E1F2B6A682F133852F6798A09C465DA95921460CEFB3847402498 PUSH1 0x1 PUSH1 0x40 MLOAD PUSH2 0x413 SWAP2 SWAP1 PUSH2 0xE7F JUMP JUMPDEST PUSH1 0x40 MLOAD DUP1 SWAP2 SUB SWAP1 LOG1 JUMPDEST POP JUMP JUMPDEST PUSH2 0x427 PUSH2 0x58D JUMP JUMPDEST PUSH2 0x42F PUSH2 0x880 JUMP JUMPDEST JUMP JUMPDEST PUSH1 0x0 PUSH1 0x65 PUSH1 0x0 SWAP1 SLOAD SWAP1 PUSH2 0x100 EXP SWAP1 DIV PUSH20 0xFFFFFFFFFFFFFFFFFFFFFFFFFFFFFFFFFFFFFFFF AND SWAP1 POP SWAP1 JUMP JUMPDEST PUSH2 0x463 PUSH2 0x58D JUMP JUMPDEST PUSH1 0x0 PUSH20 0xFFFFFFFFFFFFFFFFFFFFFFFFFFFFFFFFFFFFFFFF AND DUP2 PUSH20 0xFFFFFFFFFFFFFFFFFFFFFFFFFFFFFFFFFFFFFFFF AND EQ ISZERO PUSH2 0x4D3 JUMPI PUSH1 0x40 MLOAD PUSH32 0x8C379A000000000000000000000000000000000000000000000000000000000 DUP2 MSTORE PUSH1 0x4 ADD PUSH2 0x4CA SWAP1 PUSH2 0xF0C JUMP JUMPDEST PUSH1 0x40 MLOAD DUP1 SWAP2 SUB SWAP1 REVERT JUMPDEST PUSH2 0x4DC DUP2 PUSH2 0x8E3 JUMP JUMPDEST POP JUMP JUMPDEST PUSH1 0x0 PUSH1 0x97 PUSH1 0x0 SWAP1 SLOAD SWAP1 PUSH2 0x100 EXP SWAP1 DIV PUSH20 0xFFFFFFFFFFFFFFFFFFFFFFFFFFFFFFFFFFFFFFFF AND SWAP1 POP SWAP1 JUMP JUMPDEST PUSH2 0x511 PUSH2 0x58D JUMP JUMPDEST PUSH1 0x0 PUSH20 0xFFFFFFFFFFFFFFFFFFFFFFFFFFFFFFFFFFFFFFFF AND DUP2 PUSH20 0xFFFFFFFFFFFFFFFFFFFFFFFFFFFFFFFFFFFFFFFF AND EQ ISZERO PUSH2 0x581 JUMPI PUSH1 0x40 MLOAD PUSH32 0x8C379A000000000000000000000000000000000000000000000000000000000 DUP2 MSTORE PUSH1 0x4 ADD PUSH2 0x578 SWAP1 PUSH2 0xF9E JUMP JUMPDEST PUSH1 0x40 MLOAD DUP1 SWAP2 SUB SWAP1 REVERT JUMPDEST PUSH2 0x58A DUP2 PUSH2 0x6E5 JUMP JUMPDEST POP JUMP JUMPDEST PUSH2 0x595 PUSH2 0x927 JUMP JUMPDEST PUSH20 0xFFFFFFFFFFFFFFFFFFFFFFFFFFFFFFFFFFFFFFFF AND PUSH2 0x5B3 PUSH2 0x431 JUMP JUMPDEST PUSH20 0xFFFFFFFFFFFFFFFFFFFFFFFFFFFFFFFFFFFFFFFF AND EQ PUSH2 0x609 JUMPI PUSH1 0x40 MLOAD PUSH32 0x8C379A000000000000000000000000000000000000000000000000000000000 DUP2 MSTORE PUSH1 0x4 ADD PUSH2 0x600 SWAP1 PUSH2 0x100A JUMP JUMPDEST PUSH1 0x40 MLOAD DUP1 SWAP2 SUB SWAP1 REVERT JUMPDEST JUMP JUMPDEST PUSH2 0x613 PUSH2 0x92F JUMP JUMPDEST PUSH1 0x0 PUSH1 0x33 PUSH1 0x0 PUSH2 0x100 EXP DUP2 SLOAD DUP2 PUSH1 0xFF MUL NOT AND SWAP1 DUP4 ISZERO ISZERO MUL OR SWAP1 SSTORE POP PUSH32 0x5DB9EE0A495BF2E6FF9C91A7834C1BA4FDD244A5E8AA4E537BD38AEAE4B073AA PUSH2 0x657 PUSH2 0x927 JUMP JUMPDEST PUSH1 0x40 MLOAD PUSH2 0x664 SWAP2 SWAP1 PUSH2 0xC01 JUMP JUMPDEST PUSH1 0x40 MLOAD DUP1 SWAP2 SUB SWAP1 LOG1 JUMP JUMPDEST CALLER PUSH20 0xFFFFFFFFFFFFFFFFFFFFFFFFFFFFFFFFFFFFFFFF AND PUSH2 0x68D PUSH2 0x4DF JUMP JUMPDEST PUSH20 0xFFFFFFFFFFFFFFFFFFFFFFFFFFFFFFFFFFFFFFFF AND EQ PUSH2 0x6E3 JUMPI PUSH1 0x40 MLOAD PUSH32 0x8C379A000000000000000000000000000000000000000000000000000000000 DUP2 MSTORE PUSH1 0x4 ADD PUSH2 0x6DA SWAP1 PUSH2 0x109C JUMP JUMPDEST PUSH1 0x40 MLOAD DUP1 SWAP2 SUB SWAP1 REVERT JUMPDEST JUMP JUMPDEST PUSH1 0x0 PUSH1 0x65 PUSH1 0x0 SWAP1 SLOAD SWAP1 PUSH2 0x100 EXP SWAP1 DIV PUSH20 0xFFFFFFFFFFFFFFFFFFFFFFFFFFFFFFFFFFFFFFFF AND SWAP1 POP DUP2 PUSH1 0x65 PUSH1 0x0 PUSH2 0x100 EXP DUP2 SLOAD DUP2 PUSH20 0xFFFFFFFFFFFFFFFFFFFFFFFFFFFFFFFFFFFFFFFF MUL NOT AND SWAP1 DUP4 PUSH20 0xFFFFFFFFFFFFFFFFFFFFFFFFFFFFFFFFFFFFFFFF AND MUL OR SWAP1 SSTORE POP DUP2 PUSH20 0xFFFFFFFFFFFFFFFFFFFFFFFFFFFFFFFFFFFFFFFF AND DUP2 PUSH20 0xFFFFFFFFFFFFFFFFFFFFFFFFFFFFFFFFFFFFFFFF AND PUSH32 0x8BE0079C531659141344CD1FD0A4F28419497F9722A3DAAFE3B4186F6B6457E0 PUSH1 0x40 MLOAD PUSH1 0x40 MLOAD DUP1 SWAP2 SUB SWAP1 LOG3 POP POP JUMP JUMPDEST PUSH1 0x0 DUP1 DUP3 PUSH20 0xFFFFFFFFFFFFFFFFFFFFFFFFFFFFFFFFFFFFFFFF AND EXTCODESIZE GT SWAP1 POP SWAP2 SWAP1 POP JUMP JUMPDEST PUSH1 0x0 PUSH1 0x1 SWAP1 SLOAD SWAP1 PUSH2 0x100 EXP SWAP1 DIV PUSH1 0xFF AND PUSH2 0x81D JUMPI PUSH1 0x40 MLOAD PUSH32 0x8C379A000000000000000000000000000000000000000000000000000000000 DUP2 MSTORE PUSH1 0x4 ADD PUSH2 0x814 SWAP1 PUSH2 0x112E JUMP JUMPDEST PUSH1 0x40 MLOAD DUP1 SWAP2 SUB SWAP1 REVERT JUMPDEST PUSH2 0x825 PUSH2 0x978 JUMP JUMPDEST JUMP JUMPDEST PUSH1 0x0 PUSH1 0x1 SWAP1 SLOAD SWAP1 PUSH2 0x100 EXP SWAP1 DIV PUSH1 0xFF AND PUSH2 0x876 JUMPI PUSH1 0x40 MLOAD PUSH32 0x8C379A000000000000000000000000000000000000000000000000000000000 DUP2 MSTORE PUSH1 0x4 ADD PUSH2 0x86D SWAP1 PUSH2 0x112E JUMP JUMPDEST PUSH1 0x40 MLOAD DUP1 SWAP2 SUB SWAP1 REVERT JUMPDEST PUSH2 0x87E PUSH2 0x9E4 JUMP JUMPDEST JUMP JUMPDEST PUSH2 0x888 PUSH2 0xA45 JUMP JUMPDEST PUSH1 0x1 PUSH1 0x33 PUSH1 0x0 PUSH2 0x100 EXP DUP2 SLOAD DUP2 PUSH1 0xFF MUL NOT AND SWAP1 DUP4 ISZERO ISZERO MUL OR SWAP1 SSTORE POP PUSH32 0x62E78CEA01BEE320CD4E420270B5EA74000D11B0C9F74754EBDBFC544B05A258 PUSH2 0x8CC PUSH2 0x927 JUMP JUMPDEST PUSH1 0x40 MLOAD PUSH2 0x8D9 SWAP2 SWAP1 PUSH2 0xC01 JUMP JUMPDEST PUSH1 0x40 MLOAD DUP1 SWAP2 SUB SWAP1 LOG1 JUMP JUMPDEST DUP1 PUSH1 0x97 PUSH1 0x0 PUSH2 0x100 EXP DUP2 SLOAD DUP2 PUSH20 0xFFFFFFFFFFFFFFFFFFFFFFFFFFFFFFFFFFFFFFFF MUL NOT AND SWAP1 DUP4 PUSH20 0xFFFFFFFFFFFFFFFFFFFFFFFFFFFFFFFFFFFFFFFF AND MUL OR SWAP1 SSTORE POP POP JUMP JUMPDEST PUSH1 0x0 CALLER SWAP1 POP SWAP1 JUMP JUMPDEST PUSH2 0x937 PUSH2 0x2AE JUMP JUMPDEST PUSH2 0x976 JUMPI PUSH1 0x40 MLOAD PUSH32 0x8C379A000000000000000000000000000000000000000000000000000000000 DUP2 MSTORE PUSH1 0x4 ADD PUSH2 0x96D SWAP1 PUSH2 0x119A JUMP JUMPDEST PUSH1 0x40 MLOAD DUP1 SWAP2 SUB SWAP1 REVERT JUMPDEST JUMP JUMPDEST PUSH1 0x0 PUSH1 0x1 SWAP1 SLOAD SWAP1 PUSH2 0x100 EXP SWAP1 DIV PUSH1 0xFF AND PUSH2 0x9C7 JUMPI PUSH1 0x40 MLOAD PUSH32 0x8C379A000000000000000000000000000000000000000000000000000000000 DUP2 MSTORE PUSH1 0x4 ADD PUSH2 0x9BE SWAP1 PUSH2 0x112E JUMP JUMPDEST PUSH1 0x40 MLOAD DUP1 SWAP2 SUB SWAP1 REVERT JUMPDEST PUSH1 0x0 PUSH1 0x33 PUSH1 0x0 PUSH2 0x100 EXP DUP2 SLOAD DUP2 PUSH1 0xFF MUL NOT AND SWAP1 DUP4 ISZERO ISZERO MUL OR SWAP1 SSTORE POP JUMP JUMPDEST PUSH1 0x0 PUSH1 0x1 SWAP1 SLOAD SWAP1 PUSH2 0x100 EXP SWAP1 DIV PUSH1 0xFF AND PUSH2 0xA33 JUMPI PUSH1 0x40 MLOAD PUSH32 0x8C379A000000000000000000000000000000000000000000000000000000000 DUP2 MSTORE PUSH1 0x4 ADD PUSH2 0xA2A SWAP1 PUSH2 0x112E JUMP JUMPDEST PUSH1 0x40 MLOAD DUP1 SWAP2 SUB SWAP1 REVERT JUMPDEST PUSH2 0xA43 PUSH2 0xA3E PUSH2 0x927 JUMP JUMPDEST PUSH2 0x6E5 JUMP JUMPDEST JUMP JUMPDEST PUSH2 0xA4D PUSH2 0x2AE JUMP JUMPDEST ISZERO PUSH2 0xA8D JUMPI PUSH1 0x40 MLOAD PUSH32 0x8C379A000000000000000000000000000000000000000000000000000000000 DUP2 MSTORE PUSH1 0x4 ADD PUSH2 0xA84 SWAP1 PUSH2 0x1206 JUMP JUMPDEST PUSH1 0x40 MLOAD DUP1 SWAP2 SUB SWAP1 REVERT JUMPDEST JUMP JUMPDEST PUSH1 0x0 DUP1 REVERT JUMPDEST PUSH1 0x0 DUP1 REVERT JUMPDEST PUSH1 0x0 PUSH20 0xFFFFFFFFFFFFFFFFFFFFFFFFFFFFFFFFFFFFFFFF DUP3 AND SWAP1 POP SWAP2 SWAP1 POP JUMP JUMPDEST PUSH1 0x0 PUSH2 0xAC4 DUP3 PUSH2 0xA99 JUMP JUMPDEST SWAP1 POP SWAP2 SWAP1 POP JUMP JUMPDEST PUSH2 0xAD4 DUP2 PUSH2 0xAB9 JUMP JUMPDEST DUP2 EQ PUSH2 0xADF JUMPI PUSH1 0x0 DUP1 REVERT JUMPDEST POP JUMP JUMPDEST PUSH1 0x0 DUP2 CALLDATALOAD SWAP1 POP PUSH2 0xAF1 DUP2 PUSH2 0xACB JUMP JUMPDEST SWAP3 SWAP2 POP POP JUMP JUMPDEST PUSH1 0x0 DUP1 REVERT JUMPDEST PUSH1 0x0 DUP1 REVERT JUMPDEST PUSH1 0x0 DUP1 REVERT JUMPDEST PUSH1 0x0 DUP1 DUP4 PUSH1 0x1F DUP5 ADD SLT PUSH2 0xB1C JUMPI PUSH2 0xB1B PUSH2 0xAF7 JUMP JUMPDEST JUMPDEST DUP3 CALLDATALOAD SWAP1 POP PUSH8 0xFFFFFFFFFFFFFFFF DUP2 GT ISZERO PUSH2 0xB39 JUMPI PUSH2 0xB38 PUSH2 0xAFC JUMP JUMPDEST JUMPDEST PUSH1 0x20 DUP4 ADD SWAP2 POP DUP4 PUSH1 0x20 DUP3 MUL DUP4 ADD GT ISZERO PUSH2 0xB55 JUMPI PUSH2 0xB54 PUSH2 0xB01 JUMP JUMPDEST JUMPDEST SWAP3 POP SWAP3 SWAP1 POP JUMP JUMPDEST PUSH1 0x0 DUP1 PUSH1 0x0 PUSH1 0x40 DUP5 DUP7 SUB SLT ISZERO PUSH2 0xB75 JUMPI PUSH2 0xB74 PUSH2 0xA8F JUMP JUMPDEST JUMPDEST PUSH1 0x0 PUSH2 0xB83 DUP7 DUP3 DUP8 ADD PUSH2 0xAE2 JUMP JUMPDEST SWAP4 POP POP PUSH1 0x20 DUP5 ADD CALLDATALOAD PUSH8 0xFFFFFFFFFFFFFFFF DUP2 GT ISZERO PUSH2 0xBA4 JUMPI PUSH2 0xBA3 PUSH2 0xA94 JUMP JUMPDEST JUMPDEST PUSH2 0xBB0 DUP7 DUP3 DUP8 ADD PUSH2 0xB06 JUMP JUMPDEST SWAP3 POP SWAP3 POP POP SWAP3 POP SWAP3 POP SWAP3 JUMP JUMPDEST PUSH1 0x0 DUP2 ISZERO ISZERO SWAP1 POP SWAP2 SWAP1 POP JUMP JUMPDEST PUSH2 0xBD1 DUP2 PUSH2 0xBBC JUMP JUMPDEST DUP3 MSTORE POP POP JUMP JUMPDEST PUSH1 0x0 PUSH1 0x20 DUP3 ADD SWAP1 POP PUSH2 0xBEC PUSH1 0x0 DUP4 ADD DUP5 PUSH2 0xBC8 JUMP JUMPDEST SWAP3 SWAP2 POP POP JUMP JUMPDEST PUSH2 0xBFB DUP2 PUSH2 0xAB9 JUMP JUMPDEST DUP3 MSTORE POP POP JUMP JUMPDEST PUSH1 0x0 PUSH1 0x20 DUP3 ADD SWAP1 POP PUSH2 0xC16 PUSH1 0x0 DUP4 ADD DUP5 PUSH2 0xBF2 JUMP JUMPDEST SWAP3 SWAP2 POP POP JUMP JUMPDEST PUSH1 0x0 PUSH1 0x20 DUP3 DUP5 SUB SLT ISZERO PUSH2 0xC32 JUMPI PUSH2 0xC31 PUSH2 0xA8F JUMP JUMPDEST JUMPDEST PUSH1 0x0 PUSH2 0xC40 DUP5 DUP3 DUP6 ADD PUSH2 0xAE2 JUMP JUMPDEST SWAP2 POP POP SWAP3 SWAP2 POP POP JUMP JUMPDEST PUSH32 0x4E487B7100000000000000000000000000000000000000000000000000000000 PUSH1 0x0 MSTORE PUSH1 0x32 PUSH1 0x4 MSTORE PUSH1 0x24 PUSH1 0x0 REVERT JUMPDEST PUSH1 0x0 PUSH1 0xFF DUP3 AND SWAP1 POP SWAP2 SWAP1 POP JUMP JUMPDEST PUSH2 0xC8E DUP2 PUSH2 0xC78 JUMP JUMPDEST DUP2 EQ PUSH2 0xC99 JUMPI PUSH1 0x0 DUP1 REVERT JUMPDEST POP JUMP JUMPDEST PUSH1 0x0 DUP2 CALLDATALOAD SWAP1 POP PUSH2 0xCAB DUP2 PUSH2 0xC85 JUMP JUMPDEST SWAP3 SWAP2 POP POP JUMP JUMPDEST PUSH1 0x0 PUSH1 0x20 DUP3 DUP5 SUB SLT ISZERO PUSH2 0xCC7 JUMPI PUSH2 0xCC6 PUSH2 0xA8F JUMP JUMPDEST JUMPDEST PUSH1 0x0 PUSH2 0xCD5 DUP5 DUP3 DUP6 ADD PUSH2 0xC9C JUMP JUMPDEST SWAP2 POP POP SWAP3 SWAP2 POP POP JUMP JUMPDEST PUSH1 0x0 DUP2 SWAP1 POP SWAP2 SWAP1 POP JUMP JUMPDEST PUSH32 0x4E487B7100000000000000000000000000000000000000000000000000000000 PUSH1 0x0 MSTORE PUSH1 0x11 PUSH1 0x4 MSTORE PUSH1 0x24 PUSH1 0x0 REVERT JUMPDEST PUSH1 0x0 PUSH2 0xD22 DUP3 PUSH2 0xCDE JUMP JUMPDEST SWAP2 POP PUSH2 0xD2D DUP4 PUSH2 0xCDE JUMP JUMPDEST SWAP3 POP DUP3 PUSH32 0xFFFFFFFFFFFFFFFFFFFFFFFFFFFFFFFFFFFFFFFFFFFFFFFFFFFFFFFFFFFFFFFF SUB DUP3 GT ISZERO PUSH2 0xD62 JUMPI PUSH2 0xD61 PUSH2 0xCE8 JUMP JUMPDEST JUMPDEST DUP3 DUP3 ADD SWAP1 POP SWAP3 SWAP2 POP POP JUMP JUMPDEST PUSH1 0x0 PUSH2 0xD78 DUP3 PUSH2 0xC78 JUMP JUMPDEST SWAP2 POP PUSH1 0xFF DUP3 EQ ISZERO PUSH2 0xD8C JUMPI PUSH2 0xD8B PUSH2 0xCE8 JUMP JUMPDEST JUMPDEST PUSH1 0x1 DUP3 ADD SWAP1 POP SWAP2 SWAP1 POP JUMP JUMPDEST PUSH1 0x0 DUP3 DUP3 MSTORE PUSH1 0x20 DUP3 ADD SWAP1 POP SWAP3 SWAP2 POP POP JUMP JUMPDEST PUSH32 0x496E697469616C697A61626C653A20636F6E747261637420697320616C726561 PUSH1 0x0 DUP3 ADD MSTORE PUSH32 0x647920696E697469616C697A6564000000000000000000000000000000000000 PUSH1 0x20 DUP3 ADD MSTORE POP JUMP JUMPDEST PUSH1 0x0 PUSH2 0xE04 PUSH1 0x2E DUP4 PUSH2 0xD97 JUMP JUMPDEST SWAP2 POP PUSH2 0xE0F DUP3 PUSH2 0xDA8 JUMP JUMPDEST PUSH1 0x40 DUP3 ADD SWAP1 POP SWAP2 SWAP1 POP JUMP JUMPDEST PUSH1 0x0 PUSH1 0x20 DUP3 ADD SWAP1 POP DUP2 DUP2 SUB PUSH1 0x0 DUP4 ADD MSTORE PUSH2 0xE33 DUP2 PUSH2 0xDF7 JUMP JUMPDEST SWAP1 POP SWAP2 SWAP1 POP JUMP JUMPDEST PUSH1 0x0 DUP2 SWAP1 POP SWAP2 SWAP1 POP JUMP JUMPDEST PUSH1 0x0 DUP2 SWAP1 POP SWAP2 SWAP1 POP JUMP JUMPDEST PUSH1 0x0 PUSH2 0xE69 PUSH2 0xE64 PUSH2 0xE5F DUP5 PUSH2 0xE3A JUMP JUMPDEST PUSH2 0xE44 JUMP JUMPDEST PUSH2 0xC78 JUMP JUMPDEST SWAP1 POP SWAP2 SWAP1 POP JUMP JUMPDEST PUSH2 0xE79 DUP2 PUSH2 0xE4E JUMP JUMPDEST DUP3 MSTORE POP POP JUMP JUMPDEST PUSH1 0x0 PUSH1 0x20 DUP3 ADD SWAP1 POP PUSH2 0xE94 PUSH1 0x0 DUP4 ADD DUP5 PUSH2 0xE70 JUMP JUMPDEST SWAP3 SWAP2 POP POP JUMP JUMPDEST PUSH32 0x4D6167696320506978656C733A206E6577206E65746865722069732074686520 PUSH1 0x0 DUP3 ADD MSTORE PUSH32 0x7A65726F20616464726573730000000000000000000000000000000000000000 PUSH1 0x20 DUP3 ADD MSTORE POP JUMP JUMPDEST PUSH1 0x0 PUSH2 0xEF6 PUSH1 0x2C DUP4 PUSH2 0xD97 JUMP JUMPDEST SWAP2 POP PUSH2 0xF01 DUP3 PUSH2 0xE9A JUMP JUMPDEST PUSH1 0x40 DUP3 ADD SWAP1 POP SWAP2 SWAP1 POP JUMP JUMPDEST PUSH1 0x0 PUSH1 0x20 DUP3 ADD SWAP1 POP DUP2 DUP2 SUB PUSH1 0x0 DUP4 ADD MSTORE PUSH2 0xF25 DUP2 PUSH2 0xEE9 JUMP JUMPDEST SWAP1 POP SWAP2 SWAP1 POP JUMP JUMPDEST PUSH32 0x4F776E61626C653A206E6577206F776E657220697320746865207A65726F2061 PUSH1 0x0 DUP3 ADD MSTORE PUSH32 0x6464726573730000000000000000000000000000000000000000000000000000 PUSH1 0x20 DUP3 ADD MSTORE POP JUMP JUMPDEST PUSH1 0x0 PUSH2 0xF88 PUSH1 0x26 DUP4 PUSH2 0xD97 JUMP JUMPDEST SWAP2 POP PUSH2 0xF93 DUP3 PUSH2 0xF2C JUMP JUMPDEST PUSH1 0x40 DUP3 ADD SWAP1 POP SWAP2 SWAP1 POP JUMP JUMPDEST PUSH1 0x0 PUSH1 0x20 DUP3 ADD SWAP1 POP DUP2 DUP2 SUB PUSH1 0x0 DUP4 ADD MSTORE PUSH2 0xFB7 DUP2 PUSH2 0xF7B JUMP JUMPDEST SWAP1 POP SWAP2 SWAP1 POP JUMP JUMPDEST PUSH32 0x4F776E61626C653A2063616C6C6572206973206E6F7420746865206F776E6572 PUSH1 0x0 DUP3 ADD MSTORE POP JUMP JUMPDEST PUSH1 0x0 PUSH2 0xFF4 PUSH1 0x20 DUP4 PUSH2 0xD97 JUMP JUMPDEST SWAP2 POP PUSH2 0xFFF DUP3 PUSH2 0xFBE JUMP JUMPDEST PUSH1 0x20 DUP3 ADD SWAP1 POP SWAP2 SWAP1 POP JUMP JUMPDEST PUSH1 0x0 PUSH1 0x20 DUP3 ADD SWAP1 POP DUP2 DUP2 SUB PUSH1 0x0 DUP4 ADD MSTORE PUSH2 0x1023 DUP2 PUSH2 0xFE7 JUMP JUMPDEST SWAP1 POP SWAP2 SWAP1 POP JUMP JUMPDEST PUSH32 0x4D6167696320506978656C733A2063616C6C6572206973206E6F742074686520 PUSH1 0x0 DUP3 ADD MSTORE PUSH32 0x4E65746865720000000000000000000000000000000000000000000000000000 PUSH1 0x20 DUP3 ADD MSTORE POP JUMP JUMPDEST PUSH1 0x0 PUSH2 0x1086 PUSH1 0x26 DUP4 PUSH2 0xD97 JUMP JUMPDEST SWAP2 POP PUSH2 0x1091 DUP3 PUSH2 0x102A JUMP JUMPDEST PUSH1 0x40 DUP3 ADD SWAP1 POP SWAP2 SWAP1 POP JUMP JUMPDEST PUSH1 0x0 PUSH1 0x20 DUP3 ADD SWAP1 POP DUP2 DUP2 SUB PUSH1 0x0 DUP4 ADD MSTORE PUSH2 0x10B5 DUP2 PUSH2 0x1079 JUMP JUMPDEST SWAP1 POP SWAP2 SWAP1 POP JUMP JUMPDEST PUSH32 0x496E697469616C697A61626C653A20636F6E7472616374206973206E6F742069 PUSH1 0x0 DUP3 ADD MSTORE PUSH32 0x6E697469616C697A696E67000000000000000000000000000000000000000000 PUSH1 0x20 DUP3 ADD MSTORE POP JUMP JUMPDEST PUSH1 0x0 PUSH2 0x1118 PUSH1 0x2B DUP4 PUSH2 0xD97 JUMP JUMPDEST SWAP2 POP PUSH2 0x1123 DUP3 PUSH2 0x10BC JUMP JUMPDEST PUSH1 0x40 DUP3 ADD SWAP1 POP SWAP2 SWAP1 POP JUMP JUMPDEST PUSH1 0x0 PUSH1 0x20 DUP3 ADD SWAP1 POP DUP2 DUP2 SUB PUSH1 0x0 DUP4 ADD MSTORE PUSH2 0x1147 DUP2 PUSH2 0x110B JUMP JUMPDEST SWAP1 POP SWAP2 SWAP1 POP JUMP JUMPDEST PUSH32 0x5061757361626C653A206E6F7420706175736564000000000000000000000000 PUSH1 0x0 DUP3 ADD MSTORE POP JUMP JUMPDEST PUSH1 0x0 PUSH2 0x1184 PUSH1 0x14 DUP4 PUSH2 0xD97 JUMP JUMPDEST SWAP2 POP PUSH2 0x118F DUP3 PUSH2 0x114E JUMP JUMPDEST PUSH1 0x20 DUP3 ADD SWAP1 POP SWAP2 SWAP1 POP JUMP JUMPDEST PUSH1 0x0 PUSH1 0x20 DUP3 ADD SWAP1 POP DUP2 DUP2 SUB PUSH1 0x0 DUP4 ADD MSTORE PUSH2 0x11B3 DUP2 PUSH2 0x1177 JUMP JUMPDEST SWAP1 POP SWAP2 SWAP1 POP JUMP JUMPDEST PUSH32 0x5061757361626C653A2070617573656400000000000000000000000000000000 PUSH1 0x0 DUP3 ADD MSTORE POP JUMP JUMPDEST PUSH1 0x0 PUSH2 0x11F0 PUSH1 0x10 DUP4 PUSH2 0xD97 JUMP JUMPDEST SWAP2 POP PUSH2 0x11FB DUP3 PUSH2 0x11BA JUMP JUMPDEST PUSH1 0x20 DUP3 ADD SWAP1 POP SWAP2 SWAP1 POP JUMP JUMPDEST PUSH1 0x0 PUSH1 0x20 DUP3 ADD SWAP1 POP DUP2 DUP2 SUB PUSH1 0x0 DUP4 ADD MSTORE PUSH2 0x121F DUP2 PUSH2 0x11E3 JUMP JUMPDEST SWAP1 POP SWAP2 SWAP1 POP JUMP INVALID LOG2 PUSH5 0x6970667358 0x22 SLT KECCAK256 PUSH26 0x58CB3231ECE38C13CB51373A6850A9875E28A62DC5256D50A742 NOT ADDMOD LT ADDMOD CREATE PUSH5 0x736F6C6343 STOP ADDMOD MULMOD STOP CALLER "
				},
				"gasEstimates": {
					"creation": {
						"codeDepositCost": "940000",
						"executionCost": "infinite",
						"totalCost": "infinite"
					},
					"external": {
						"initialize()": "144937",
						"mintPixels(address,uint8[])": "infinite",
						"nether()": "2588",
						"owner()": "2544",
						"pause()": "infinite",
						"paused()": "2524",
						"renounceOwnership()": "30465",
						"setNether(address)": "27097",
						"transferOwnership(address)": "30835",
						"unpause()": "infinite"
					},
					"internal": {
						"_checkNether()": "infinite",
						"_setNether(address)": "24278"
					}
				},
				"methodIdentifiers": {
					"initialize()": "8129fc1c",
					"mintPixels(address,uint8[])": "4aed4f5e",
					"nether()": "a1c60fd9",
					"owner()": "8da5cb5b",
					"pause()": "8456cb59",
					"paused()": "5c975abb",
					"renounceOwnership()": "715018a6",
					"setNether(address)": "9734489a",
					"transferOwnership(address)": "f2fde38b",
					"unpause()": "3f4ba83a"
				}
			},
			"storageLayout": {
				"storage": [
					{
						"astId": 138,
						"contract": "src/Contracts/MagicPixel.sol:MagicPixel",
						"label": "_initialized",
						"offset": 0,
						"slot": "0",
						"type": "t_uint8"
					},
					{
						"astId": 141,
						"contract": "src/Contracts/MagicPixel.sol:MagicPixel",
						"label": "_initializing",
						"offset": 1,
						"slot": "0",
						"type": "t_bool"
					},
					{
						"astId": 752,
						"contract": "src/Contracts/MagicPixel.sol:MagicPixel",
						"label": "__gap",
						"offset": 0,
						"slot": "1",
						"type": "t_array(t_uint256)50_storage"
					},
					{
						"astId": 321,
						"contract": "src/Contracts/MagicPixel.sol:MagicPixel",
						"label": "_paused",
						"offset": 0,
						"slot": "51",
						"type": "t_bool"
					},
					{
						"astId": 426,
						"contract": "src/Contracts/MagicPixel.sol:MagicPixel",
						"label": "__gap",
						"offset": 0,
						"slot": "52",
						"type": "t_array(t_uint256)49_storage"
					},
					{
						"astId": 10,
						"contract": "src/Contracts/MagicPixel.sol:MagicPixel",
						"label": "_owner",
						"offset": 0,
						"slot": "101",
						"type": "t_address"
					},
					{
						"astId": 130,
						"contract": "src/Contracts/MagicPixel.sol:MagicPixel",
						"label": "__gap",
						"offset": 0,
						"slot": "102",
						"type": "t_array(t_uint256)49_storage"
					},
					{
						"astId": 766,
						"contract": "src/Contracts/MagicPixel.sol:MagicPixel",
						"label": "_nether",
						"offset": 0,
						"slot": "151",
						"type": "t_address"
					},
					{
						"astId": 772,
						"contract": "src/Contracts/MagicPixel.sol:MagicPixel",
						"label": "pixels",
						"offset": 0,
						"slot": "152",
						"type": "t_mapping(t_address,t_mapping(t_uint8,t_uint256))"
					}
				],
				"types": {
					"t_address": {
						"encoding": "inplace",
						"label": "address",
						"numberOfBytes": "20"
					},
					"t_array(t_uint256)49_storage": {
						"base": "t_uint256",
						"encoding": "inplace",
						"label": "uint256[49]",
						"numberOfBytes": "1568"
					},
					"t_array(t_uint256)50_storage": {
						"base": "t_uint256",
						"encoding": "inplace",
						"label": "uint256[50]",
						"numberOfBytes": "1600"
					},
					"t_bool": {
						"encoding": "inplace",
						"label": "bool",
						"numberOfBytes": "1"
					},
					"t_mapping(t_address,t_mapping(t_uint8,t_uint256))": {
						"encoding": "mapping",
						"key": "t_address",
						"label": "mapping(address => mapping(uint8 => uint256))",
						"numberOfBytes": "32",
						"value": "t_mapping(t_uint8,t_uint256)"
					},
					"t_mapping(t_uint8,t_uint256)": {
						"encoding": "mapping",
						"key": "t_uint8",
						"label": "mapping(uint8 => uint256)",
						"numberOfBytes": "32",
						"value": "t_uint256"
					},
					"t_uint256": {
						"encoding": "inplace",
						"label": "uint256",
						"numberOfBytes": "32"
					},
					"t_uint8": {
						"encoding": "inplace",
						"label": "uint8",
						"numberOfBytes": "1"
					}
				}
			},
			"userdoc": {
				"kind": "user",
				"methods": {},
				"version": 1
			}
		}
	}
}