{
  "_format": "hh-sol-artifact-1",
  "contractName": "AuctionHouse",
  "sourceName": "contracts/diamond/facets/AuctionHouse/AHCore.sol",
  "abi": [
    {
      "inputs": [],
      "stateMutability": "nonpayable",
      "type": "constructor"
    },
    {
      "inputs": [],
      "name": "IncorrectValue",
      "type": "error"
    },
    {
      "inputs": [],
      "name": "PaymentFailed",
      "type": "error"
    },
    {
      "inputs": [],
      "name": "SellerInsufficientPixels",
      "type": "error"
    },
    {
      "inputs": [],
      "name": "TradeAlreadyExists",
      "type": "error"
    },
    {
      "inputs": [],
      "name": "Unauthorized",
      "type": "error"
    },
    {
      "anonymous": false,
      "inputs": [
        {
          "indexed": false,
          "internalType": "bytes32",
          "name": "id",
          "type": "bytes32"
        },
        {
          "indexed": true,
          "internalType": "address",
          "name": "seller",
          "type": "address"
        },
        {
          "indexed": true,
          "internalType": "address",
          "name": "buyer",
          "type": "address"
        },
        {
          "indexed": false,
          "internalType": "bytes4[]",
          "name": "pixels",
          "type": "bytes4[]"
        }
      ],
      "name": "TradeClosed",
      "type": "event"
    },
    {
      "anonymous": false,
      "inputs": [
        {
          "indexed": true,
          "internalType": "address",
          "name": "creator",
          "type": "address"
        },
        {
          "indexed": true,
          "internalType": "address",
          "name": "receiver",
          "type": "address"
        },
        {
          "indexed": false,
          "internalType": "bytes32",
          "name": "id",
          "type": "bytes32"
        }
      ],
      "name": "TradeOpened",
      "type": "event"
    },
    {
      "inputs": [
        {
          "internalType": "bytes32",
          "name": "id",
          "type": "bytes32"
        }
      ],
      "name": "cancelTrade",
      "outputs": [],
      "stateMutability": "nonpayable",
      "type": "function"
    },
    {
      "inputs": [
        {
          "internalType": "bytes32",
          "name": "id",
          "type": "bytes32"
        },
        {
          "internalType": "bool",
          "name": "isSell",
          "type": "bool"
        }
      ],
      "name": "closeTrade",
      "outputs": [],
      "stateMutability": "payable",
      "type": "function"
    },
    {
      "inputs": [
        {
          "internalType": "bytes32",
          "name": "id",
          "type": "bytes32"
        }
      ],
      "name": "getTrade",
      "outputs": [
        {
          "components": [
            {
              "internalType": "address",
              "name": "seller",
              "type": "address"
            },
            {
              "internalType": "address",
              "name": "buyer",
              "type": "address"
            },
            {
              "internalType": "bytes4[]",
              "name": "pixels",
              "type": "bytes4[]"
            },
            {
              "internalType": "uint256",
              "name": "price",
              "type": "uint256"
            }
          ],
          "internalType": "struct LibAuctionHouse.Trade",
          "name": "",
          "type": "tuple"
        }
      ],
      "stateMutability": "view",
      "type": "function"
    },
    {
      "inputs": [
        {
          "internalType": "address",
          "name": "receiver",
          "type": "address"
        },
        {
          "internalType": "bytes4[]",
          "name": "pixels",
          "type": "bytes4[]"
        },
        {
          "internalType": "uint256",
          "name": "price",
          "type": "uint256"
        },
        {
          "internalType": "bool",
          "name": "isSell",
          "type": "bool"
        }
      ],
      "name": "openTrade",
      "outputs": [],
      "stateMutability": "payable",
      "type": "function"
    }
  ],
  "bytecode": "0x608060405234801561001057600080fd5b50610f69806100206000396000f3fe60806040526004361061003f5760003560e01c80636b4afe9f146100445780636c2eb9d1146100595780637cfb41b81461006c578063a3b137991461008c575b600080fd5b610057610052366004610c62565b6100c2565b005b610057610067366004610c8e565b610415565b34801561007857600080fd5b50610057610087366004610d3d565b6106f9565b34801561009857600080fd5b506100ac6100a7366004610d3d565b610881565b6040516100b99190610d56565b60405180910390f35b60008281527f50e6db0ee6a1e6e0676f1837cc048e5c36c133a90fbafbfaa36526366e90b03e60209081526040808320815160808101835281546001600160a01b0390811682526001830154168185015260028201805484518187028101870186528181529295939486019383018282801561019f57602002820191906000526020600020906000905b82829054906101000a900460e01b7bffffffffffffffffffffffffffffffffffffffffffffffffffffffff19168152602001906004019060208260030104928301926001038202915080841161014c5790505b50505050508152602001600382015481525050905081156102cd5780516001600160a01b0316156101f35780516001600160a01b031632146101f3576040516282b42960e81b815260040160405180910390fd5b61020681604001513283600001516109b6565b606081015160405160009132918381818185875af1925050503d806000811461024b576040519150601f19603f3d011682016040523d82523d6000602084013e610250565b606091505b5050905080610272576040516307a4ced160e51b815260040160405180910390fd5b81602001516001600160a01b0316326001600160a01b03167f9b82f11827bc7bd07bc981a3e337b3fcfd3145053618bf6d38d59174d95e6e0c8685604001516040516102bf929190610dde565b60405180910390a350610407565b806060015134146102f157604051636956f2ab60e11b815260040160405180910390fd5b60208101516001600160a01b0316156103305760208101516001600160a01b03163214610330576040516282b42960e81b815260040160405180910390fd5b805160608201516040516000926001600160a01b031691908381818185875af1925050503d8060008114610380576040519150601f19603f3d011682016040523d82523d6000602084013e610385565b606091505b50509050806103a7576040516307a4ced160e51b815260040160405180910390fd5b6103ba82604001518360000151326109b6565b8151604080840151905132926001600160a01b0316917f9b82f11827bc7bd07bc981a3e337b3fcfd3145053618bf6d38d59174d95e6e0c916103fd918991610dde565b60405180910390a3505b61041083610af0565b505050565b6040517f50e6db0ee6a1e6e0676f1837cc048e5c36c133a90fbafbfaa36526366e90b03e90600090610451903290899089908990602001610e36565b60408051601f198184030181529181528151602092830120600081815292859052912060020154909150156104b2576040517f8f7308d300000000000000000000000000000000000000000000000000000000815260040160405180910390fd5b60008590036104d457604051636956f2ab60e11b815260040160405180910390fd5b82156105b7576040518060800160405280326001600160a01b03168152602001886001600160a01b0316815260200187878080602002602001604051908101604052809392919081815260200183836020028082843760009201829052509385525050506020918201879052838152848252604090819020835181546001600160a01b0391821673ffffffffffffffffffffffffffffffffffffffff199182161783558585015160018401805491909316911617905590830151805191926105a492600285019290910190610b64565b50606082015181600301559050506106b0565b8334146105d757604051636956f2ab60e11b815260040160405180910390fd5b6040518060800160405280886001600160a01b03168152602001326001600160a01b0316815260200187878080602002602001604051908101604052809392919081815260200183836020028082843760009201829052509385525050506020918201879052838152848252604090819020835181546001600160a01b0391821673ffffffffffffffffffffffffffffffffffffffff199182161783558585015160018401805491909316911617905590830151805191926106a192600285019290910190610b64565b50606082015181600301559050505b6040518181526001600160a01b0388169032907f0a423eff5f36cad0881aa2aaa105752cc25ffc91f2ae982e1362afdb641b8adc9060200160405180910390a350505050505050565b60008181527f50e6db0ee6a1e6e0676f1837cc048e5c36c133a90fbafbfaa36526366e90b03e60209081526040808320815160808101835281546001600160a01b039081168252600183015416818501526002820180548451818702810187018652818152929593948601938301828280156107d657602002820191906000526020600020906000905b82829054906101000a900460e01b7bffffffffffffffffffffffffffffffffffffffffffffffffffffffff1916815260200190600401906020826003010492830192600103820291508084116107835790505b5050505050815260200160038201548152505090506107f482610af0565b326001600160a01b031681602001516001600160a01b03160361087d57606081015160405160009132918381818185875af1925050503d8060008114610856576040519150601f19603f3d011682016040523d82523d6000602084013e61085b565b606091505b5050905080610410576040516307a4ced160e51b815260040160405180910390fd5b5050565b6108be604051806080016040528060006001600160a01b0316815260200160006001600160a01b0316815260200160608152602001600081525090565b7f50e6db0ee6a1e6e0676f1837cc048e5c36c133a90fbafbfaa36526366e90b03e60008381526020918252604090819020815160808101835281546001600160a01b0390811682526001830154168185015260028201805484518187028101870186528181529295939486019383018282801561099c57602002820191906000526020600020906000905b82829054906101000a900460e01b7bffffffffffffffffffffffffffffffffffffffffffffffffffffffff1916815260200190600401906020826003010492830192600103820291508084116109495790505b505050505081526020016003820154815250509050919050565b6001600160a01b0382811660009081527fa32ac351050f01911d543184484dd0b56f1a44a545355195dea6fa48038b73756020526040808220928416825281207fa32ac351050f01911d543184484dd0b56f1a44a545355195dea6fa48038b736f92915b8651811015610ae7576000878281518110610a3757610a37610eab565b6020908102919091018101516001600160e01b031981166000908152918690526040822080549193509190610a719063ffffffff16610ed7565b82546101009290920a63ffffffff8181021990931691831602179091556001600160e01b03198216600090815260208590526040812080549092610ab59116610ef7565b91906101000a81548163ffffffff021916908363ffffffff160217905550508080610adf90610f1a565b915050610a1a565b50505050505050565b60008181527f50e6db0ee6a1e6e0676f1837cc048e5c36c133a90fbafbfaa36526366e90b03e602081905260408220805473ffffffffffffffffffffffffffffffffffffffff19908116825560018201805490911690559091610b566002830182610c10565b600382016000905550505050565b82805482825590600052602060002090600701600890048101928215610c005791602002820160005b83821115610bce57835183826101000a81548163ffffffff021916908360e01c02179055509260200192600401602081600301049283019260010302610b8d565b8015610bfe5782816101000a81549063ffffffff0219169055600401602081600301049283019260010302610bce565b505b50610c0c929150610c38565b5090565b508054600082556007016008900490600052602060002090810190610c359190610c38565b50565b5b80821115610c0c5760008155600101610c39565b80358015158114610c5d57600080fd5b919050565b60008060408385031215610c7557600080fd5b82359150610c8560208401610c4d565b90509250929050565b600080600080600060808688031215610ca657600080fd5b85356001600160a01b0381168114610cbd57600080fd5b9450602086013567ffffffffffffffff80821115610cda57600080fd5b818801915088601f830112610cee57600080fd5b813581811115610cfd57600080fd5b8960208260051b8501011115610d1257600080fd5b60208301965080955050505060408601359150610d3160608701610c4d565b90509295509295909350565b600060208284031215610d4f57600080fd5b5035919050565b602080825282516001600160a01b0390811683830152838201511660408084019190915283015160806060840152805160a0840181905260009291820190839060c08601905b80831015610dc65783516001600160e01b0319168252928401926001929092019190840190610d9c565b50606087015160808701528094505050505092915050565b6000604082018483526020604081850152818551808452606086019150828701935060005b81811015610e295784516001600160e01b03191683529383019391830191600101610e03565b5090979650505050505050565b6001600160a01b038581168252841660208083019190915260606040830181905282018390526000908490608084019083805b87811015610e9c5784356001600160e01b03198116808214610e89578384fd5b8552509382019392820192600101610e69565b50919998505050505050505050565b634e487b7160e01b600052603260045260246000fd5b634e487b7160e01b600052601160045260246000fd5b600063ffffffff821680610eed57610eed610ec1565b6000190192915050565b600063ffffffff808316818103610f1057610f10610ec1565b6001019392505050565b600060018201610f2c57610f2c610ec1565b506001019056fea264697066735822122022d3f02258d3b196e11f47efb03a65a179f4b4602c3d6587417742457919f66864736f6c63430008120033",
  "linkReferences": {},
  "deployedLinkReferences": {}
}