{
  "_format": "hh-sol-artifact-1",
  "contractName": "MagicPlates",
  "sourceName": "contracts/MagicPlates.sol",
  "abi": [
    {
      "inputs": [],
      "stateMutability": "nonpayable",
      "type": "constructor"
    },
    {
      "anonymous": false,
      "inputs": [
        {
          "indexed": true,
          "internalType": "address",
          "name": "owner",
          "type": "address"
        },
        {
          "indexed": true,
          "internalType": "address",
          "name": "approved",
          "type": "address"
        },
        {
          "indexed": true,
          "internalType": "uint256",
          "name": "tokenId",
          "type": "uint256"
        }
      ],
      "name": "Approval",
      "type": "event"
    },
    {
      "anonymous": false,
      "inputs": [
        {
          "indexed": true,
          "internalType": "address",
          "name": "owner",
          "type": "address"
        },
        {
          "indexed": true,
          "internalType": "address",
          "name": "operator",
          "type": "address"
        },
        {
          "indexed": false,
          "internalType": "bool",
          "name": "approved",
          "type": "bool"
        }
      ],
      "name": "ApprovalForAll",
      "type": "event"
    },
    {
      "anonymous": false,
      "inputs": [
        {
          "indexed": false,
          "internalType": "uint256",
          "name": "_fromTokenId",
          "type": "uint256"
        },
        {
          "indexed": false,
          "internalType": "uint256",
          "name": "_toTokenId",
          "type": "uint256"
        }
      ],
      "name": "BatchMetadataUpdate",
      "type": "event"
    },
    {
      "anonymous": false,
      "inputs": [
        {
          "indexed": false,
          "internalType": "uint8",
          "name": "version",
          "type": "uint8"
        }
      ],
      "name": "Initialized",
      "type": "event"
    },
    {
      "anonymous": false,
      "inputs": [
        {
          "indexed": false,
          "internalType": "uint256",
          "name": "_tokenId",
          "type": "uint256"
        }
      ],
      "name": "MetadataUpdate",
      "type": "event"
    },
    {
      "anonymous": false,
      "inputs": [
        {
          "indexed": true,
          "internalType": "address",
          "name": "previousOwner",
          "type": "address"
        },
        {
          "indexed": true,
          "internalType": "address",
          "name": "newOwner",
          "type": "address"
        }
      ],
      "name": "OwnershipTransferred",
      "type": "event"
    },
    {
      "anonymous": false,
      "inputs": [
        {
          "indexed": true,
          "internalType": "address",
          "name": "from",
          "type": "address"
        },
        {
          "indexed": true,
          "internalType": "address",
          "name": "to",
          "type": "address"
        },
        {
          "indexed": true,
          "internalType": "uint256",
          "name": "tokenId",
          "type": "uint256"
        }
      ],
      "name": "Transfer",
      "type": "event"
    },
    {
      "inputs": [
        {
          "internalType": "address",
          "name": "to",
          "type": "address"
        },
        {
          "internalType": "uint256",
          "name": "tokenId",
          "type": "uint256"
        }
      ],
      "name": "approve",
      "outputs": [],
      "stateMutability": "nonpayable",
      "type": "function"
    },
    {
      "inputs": [
        {
          "internalType": "address",
          "name": "owner",
          "type": "address"
        }
      ],
      "name": "balanceOf",
      "outputs": [
        {
          "internalType": "uint256",
          "name": "",
          "type": "uint256"
        }
      ],
      "stateMutability": "view",
      "type": "function"
    },
    {
      "inputs": [
        {
          "internalType": "uint256",
          "name": "tokenId",
          "type": "uint256"
        }
      ],
      "name": "burn",
      "outputs": [],
      "stateMutability": "nonpayable",
      "type": "function"
    },
    {
      "inputs": [
        {
          "internalType": "uint256",
          "name": "tokenId",
          "type": "uint256"
        }
      ],
      "name": "getApproved",
      "outputs": [
        {
          "internalType": "address",
          "name": "",
          "type": "address"
        }
      ],
      "stateMutability": "view",
      "type": "function"
    },
    {
      "inputs": [],
      "name": "initialize",
      "outputs": [],
      "stateMutability": "nonpayable",
      "type": "function"
    },
    {
      "inputs": [
        {
          "internalType": "address",
          "name": "owner",
          "type": "address"
        },
        {
          "internalType": "address",
          "name": "operator",
          "type": "address"
        }
      ],
      "name": "isApprovedForAll",
      "outputs": [
        {
          "internalType": "bool",
          "name": "",
          "type": "bool"
        }
      ],
      "stateMutability": "view",
      "type": "function"
    },
    {
      "inputs": [
        {
          "internalType": "address",
          "name": "to",
          "type": "address"
        },
        {
          "internalType": "uint8[][]",
          "name": "pixels",
          "type": "uint8[][]"
        },
        {
          "internalType": "uint256[][]",
          "name": "delays",
          "type": "uint256[][]"
        }
      ],
      "name": "mint",
      "outputs": [],
      "stateMutability": "nonpayable",
      "type": "function"
    },
    {
      "inputs": [],
      "name": "name",
      "outputs": [
        {
          "internalType": "string",
          "name": "",
          "type": "string"
        }
      ],
      "stateMutability": "view",
      "type": "function"
    },
    {
      "inputs": [],
      "name": "owner",
      "outputs": [
        {
          "internalType": "address",
          "name": "",
          "type": "address"
        }
      ],
      "stateMutability": "view",
      "type": "function"
    },
    {
      "inputs": [
        {
          "internalType": "uint256",
          "name": "tokenId",
          "type": "uint256"
        }
      ],
      "name": "ownerOf",
      "outputs": [
        {
          "internalType": "address",
          "name": "",
          "type": "address"
        }
      ],
      "stateMutability": "view",
      "type": "function"
    },
    {
      "inputs": [
        {
          "internalType": "uint256",
          "name": "tokenId",
          "type": "uint256"
        }
      ],
      "name": "plateById",
      "outputs": [
        {
          "components": [
            {
              "internalType": "uint8[][]",
              "name": "pixels",
              "type": "uint8[][]"
            },
            {
              "components": [
                {
                  "internalType": "uint256",
                  "name": "idx",
                  "type": "uint256"
                },
                {
                  "internalType": "uint16",
                  "name": "delay",
                  "type": "uint16"
                }
              ],
              "internalType": "struct MagicPlates.Delay[]",
              "name": "delays",
              "type": "tuple[]"
            }
          ],
          "internalType": "struct MagicPlates.Plate",
          "name": "plate",
          "type": "tuple"
        }
      ],
      "stateMutability": "view",
      "type": "function"
    },
    {
      "inputs": [
        {
          "internalType": "address",
          "name": "owner",
          "type": "address"
        }
      ],
      "name": "platesOf",
      "outputs": [
        {
          "components": [
            {
              "internalType": "uint8[][]",
              "name": "pixels",
              "type": "uint8[][]"
            },
            {
              "components": [
                {
                  "internalType": "uint256",
                  "name": "idx",
                  "type": "uint256"
                },
                {
                  "internalType": "uint16",
                  "name": "delay",
                  "type": "uint16"
                }
              ],
              "internalType": "struct MagicPlates.Delay[]",
              "name": "delays",
              "type": "tuple[]"
            }
          ],
          "internalType": "struct MagicPlates.Plate[]",
          "name": "plts",
          "type": "tuple[]"
        }
      ],
      "stateMutability": "view",
      "type": "function"
    },
    {
      "inputs": [],
      "name": "pxls",
      "outputs": [
        {
          "internalType": "contract PxlsCore",
          "name": "",
          "type": "address"
        }
      ],
      "stateMutability": "view",
      "type": "function"
    },
    {
      "inputs": [],
      "name": "renounceOwnership",
      "outputs": [],
      "stateMutability": "nonpayable",
      "type": "function"
    },
    {
      "inputs": [
        {
          "internalType": "uint256",
          "name": "tokenId",
          "type": "uint256"
        },
        {
          "internalType": "uint256",
          "name": "salePrice",
          "type": "uint256"
        }
      ],
      "name": "royaltyInfo",
      "outputs": [
        {
          "internalType": "address",
          "name": "",
          "type": "address"
        },
        {
          "internalType": "uint256",
          "name": "",
          "type": "uint256"
        }
      ],
      "stateMutability": "view",
      "type": "function"
    },
    {
      "inputs": [
        {
          "internalType": "address",
          "name": "from",
          "type": "address"
        },
        {
          "internalType": "address",
          "name": "to",
          "type": "address"
        },
        {
          "internalType": "uint256",
          "name": "tokenId",
          "type": "uint256"
        }
      ],
      "name": "safeTransferFrom",
      "outputs": [],
      "stateMutability": "nonpayable",
      "type": "function"
    },
    {
      "inputs": [
        {
          "internalType": "address",
          "name": "from",
          "type": "address"
        },
        {
          "internalType": "address",
          "name": "to",
          "type": "address"
        },
        {
          "internalType": "uint256",
          "name": "tokenId",
          "type": "uint256"
        },
        {
          "internalType": "bytes",
          "name": "data",
          "type": "bytes"
        }
      ],
      "name": "safeTransferFrom",
      "outputs": [],
      "stateMutability": "nonpayable",
      "type": "function"
    },
    {
      "inputs": [
        {
          "internalType": "address",
          "name": "operator",
          "type": "address"
        },
        {
          "internalType": "bool",
          "name": "approved",
          "type": "bool"
        }
      ],
      "name": "setApprovalForAll",
      "outputs": [],
      "stateMutability": "nonpayable",
      "type": "function"
    },
    {
      "inputs": [
        {
          "internalType": "string[]",
          "name": "colors",
          "type": "string[]"
        }
      ],
      "name": "setColors",
      "outputs": [],
      "stateMutability": "nonpayable",
      "type": "function"
    },
    {
      "inputs": [
        {
          "internalType": "uint96",
          "name": "f",
          "type": "uint96"
        }
      ],
      "name": "setFee",
      "outputs": [],
      "stateMutability": "nonpayable",
      "type": "function"
    },
    {
      "inputs": [
        {
          "internalType": "address",
          "name": "addr",
          "type": "address"
        }
      ],
      "name": "setMagicPixels",
      "outputs": [],
      "stateMutability": "nonpayable",
      "type": "function"
    },
    {
      "inputs": [
        {
          "internalType": "bytes4",
          "name": "interfaceId",
          "type": "bytes4"
        }
      ],
      "name": "supportsInterface",
      "outputs": [
        {
          "internalType": "bool",
          "name": "",
          "type": "bool"
        }
      ],
      "stateMutability": "view",
      "type": "function"
    },
    {
      "inputs": [],
      "name": "symbol",
      "outputs": [
        {
          "internalType": "string",
          "name": "",
          "type": "string"
        }
      ],
      "stateMutability": "view",
      "type": "function"
    },
    {
      "inputs": [
        {
          "internalType": "uint256",
          "name": "index",
          "type": "uint256"
        }
      ],
      "name": "tokenByIndex",
      "outputs": [
        {
          "internalType": "uint256",
          "name": "",
          "type": "uint256"
        }
      ],
      "stateMutability": "view",
      "type": "function"
    },
    {
      "inputs": [
        {
          "internalType": "address",
          "name": "owner",
          "type": "address"
        },
        {
          "internalType": "uint256",
          "name": "index",
          "type": "uint256"
        }
      ],
      "name": "tokenOfOwnerByIndex",
      "outputs": [
        {
          "internalType": "uint256",
          "name": "",
          "type": "uint256"
        }
      ],
      "stateMutability": "view",
      "type": "function"
    },
    {
      "inputs": [
        {
          "internalType": "uint256",
          "name": "tokenId",
          "type": "uint256"
        }
      ],
      "name": "tokenURI",
      "outputs": [
        {
          "internalType": "string",
          "name": "",
          "type": "string"
        }
      ],
      "stateMutability": "view",
      "type": "function"
    },
    {
      "inputs": [],
      "name": "totalSupply",
      "outputs": [
        {
          "internalType": "uint256",
          "name": "",
          "type": "uint256"
        }
      ],
      "stateMutability": "view",
      "type": "function"
    },
    {
      "inputs": [
        {
          "internalType": "address",
          "name": "from",
          "type": "address"
        },
        {
          "internalType": "address",
          "name": "to",
          "type": "address"
        },
        {
          "internalType": "uint256",
          "name": "tokenId",
          "type": "uint256"
        }
      ],
      "name": "transferFrom",
      "outputs": [],
      "stateMutability": "nonpayable",
      "type": "function"
    },
    {
      "inputs": [
        {
          "internalType": "address",
          "name": "newOwner",
          "type": "address"
        }
      ],
      "name": "transferOwnership",
      "outputs": [],
      "stateMutability": "nonpayable",
      "type": "function"
    }
  ],
  "bytecode": "0x60806040523480156200001157600080fd5b506200001c62000022565b620000e3565b600054610100900460ff16156200008f5760405162461bcd60e51b815260206004820152602760248201527f496e697469616c697a61626c653a20636f6e747261637420697320696e697469604482015266616c697a696e6760c81b606482015260840160405180910390fd5b60005460ff90811614620000e1576000805460ff191660ff9081179091556040519081527f7f26b83ff96e1f2b6a682f133852f6798a09c465da95921460cefb38474024989060200160405180910390a15b565b6147a580620000f36000396000f3fe608060405234801561001057600080fd5b50600436106101cf5760003560e01c80636de1edb611610104578063ae275dce116100a2578063cfdf7cce11610071578063cfdf7cce146103fa578063e985e9c51461040d578063f2fde38b14610449578063fbb4599d1461045c57600080fd5b8063ae275dce146103ae578063b88d4fde146103c1578063b9f355a0146103d4578063c87b56dd146103e757600080fd5b80638129fc1c116100de5780638129fc1c146103795780638da5cb5b1461038157806395d89b4114610393578063a22cb4651461039b57600080fd5b80636de1edb61461034b57806370a082311461035e578063715018a61461037157600080fd5b80632f745c5911610171578063452677791161014b57806345267779146102e157806347dca191146103055780634f6ccce7146103255780636352211e1461033857600080fd5b80632f745c59146102a857806342842e0e146102bb57806342966c68146102ce57600080fd5b8063095ea7b3116101ad578063095ea7b31461023c57806318160ddd1461025157806323b872dd146102635780632a55205a1461027657600080fd5b806301ffc9a7146101d457806306fdde03146101fc578063081812fc14610211575b600080fd5b6101e76101e23660046130fb565b61047c565b60405190151581526020015b60405180910390f35b61020461048d565b6040516101f39190613168565b61022461021f36600461317b565b61051f565b6040516001600160a01b0390911681526020016101f3565b61024f61024a3660046131b0565b610546565b005b60cb545b6040519081526020016101f3565b61024f6102713660046131da565b61067c565b610289610284366004613216565b6106f4565b604080516001600160a01b0390931683526020830191909152016101f3565b6102556102b63660046131b0565b6107b1565b61024f6102c93660046131da565b610859565b61024f6102dc36600461317b565b610874565b6101c754610224906c0100000000000000000000000090046001600160a01b031681565b61031861031336600461317b565b6108eb565b6040516101f3919061332c565b61025561033336600461317b565b610a44565b61022461034636600461317b565b610ae8565b61024f61035936600461333f565b610b4d565b61025561036c36600461333f565b610b96565b61024f610c30565b61024f610c44565b610191546001600160a01b0316610224565b610204610e08565b61024f6103a936600461335a565b610e17565b61024f6103bc366004613396565b610e26565b61024f6103cf36600461340b565b610e5b565b61024f6103e2366004613534565b610ed9565b6102046103f536600461317b565b61109f565b61024f61040836600461368f565b6116d0565b6101e761041b3660046136d1565b6001600160a01b039182166000908152609c6020908152604080832093909416825291909152205460ff1690565b61024f61045736600461333f565b61173f565b61046f61046a36600461333f565b6117cc565b6040516101f39190613704565b600061048782611896565b92915050565b60606097805461049c90613766565b80601f01602080910402602001604051908101604052809291908181526020018280546104c890613766565b80156105155780601f106104ea57610100808354040283529160200191610515565b820191906000526020600020905b8154815290600101906020018083116104f857829003601f168201915b5050505050905090565b600061052a826118a1565b506000908152609b60205260409020546001600160a01b031690565b600061055182610ae8565b9050806001600160a01b0316836001600160a01b0316036105df5760405162461bcd60e51b815260206004820152602160248201527f4552433732313a20617070726f76616c20746f2063757272656e74206f776e6560448201527f720000000000000000000000000000000000000000000000000000000000000060648201526084015b60405180910390fd5b336001600160a01b03821614806105fb57506105fb813361041b565b61066d5760405162461bcd60e51b815260206004820152603d60248201527f4552433732313a20617070726f76652063616c6c6572206973206e6f7420746f60448201527f6b656e206f776e6572206f7220617070726f76656420666f7220616c6c00000060648201526084016105d6565b6106778383611905565b505050565b610687335b82611980565b6106e95760405162461bcd60e51b815260206004820152602d60248201527f4552433732313a2063616c6c6572206973206e6f7420746f6b656e206f776e6560448201526c1c881bdc88185c1c1c9bdd9959609a1b60648201526084016105d6565b6106778383836119ff565b60008281526066602090815260408083208151808301909252546001600160a01b038116808352600160a01b9091046bffffffffffffffffffffffff169282019290925282916107735750604080518082019091526065546001600160a01b0381168252600160a01b90046bffffffffffffffffffffffff1660208201525b602081015160009061271090610797906bffffffffffffffffffffffff16876137b6565b6107a191906137e3565b91519350909150505b9250929050565b60006107bc83610b96565b82106108305760405162461bcd60e51b815260206004820152602b60248201527f455243373231456e756d657261626c653a206f776e657220696e646578206f7560448201527f74206f6620626f756e647300000000000000000000000000000000000000000060648201526084016105d6565b506001600160a01b0391909116600090815260c960209081526040808320938352929052205490565b61067783838360405180602001604052806000815250610e5b565b61087d33610681565b6108df5760405162461bcd60e51b815260206004820152602d60248201527f4552433732313a2063616c6c6572206973206e6f7420746f6b656e206f776e6560448201526c1c881bdc88185c1c1c9bdd9959609a1b60648201526084016105d6565b6108e881611c12565b50565b60408051808201825260608082526020808301829052835160008681526101c4835285812080549384028301850187529582018381529495919485949093919085015b828210156109b8576000848152602090819020830180546040805182850281018501909152818152928301828280156109a457602002820191906000526020600020906000905b825461010083900a900460ff168152602060019283018181049485019490930390920291018084116109755790505b50505050508152602001906001019061092e565b5050505081526020016101c56000858152602001908152602001600020805480602002602001604051908101604052809291908181526020016000905b82821015610a3857600084815260209081902060408051808201909152600285029091018054825260019081015461ffff168284015290835290920191016109f5565b50505091525092915050565b6000610a4f60cb5490565b8210610ac35760405162461bcd60e51b815260206004820152602c60248201527f455243373231456e756d657261626c653a20676c6f62616c20696e646578206f60448201527f7574206f6620626f756e6473000000000000000000000000000000000000000060648201526084016105d6565b60cb8281548110610ad657610ad66137f7565b90600052602060002001549050919050565b6000818152609960205260408120546001600160a01b0316806104875760405162461bcd60e51b815260206004820152601860248201527f4552433732313a20696e76616c696420746f6b656e204944000000000000000060448201526064016105d6565b610b55611cf5565b6101c780546bffffffffffffffffffffffff9081166c010000000000000000000000006001600160a01b038516028181179093556108e89284921617611d50565b60006001600160a01b038216610c145760405162461bcd60e51b815260206004820152602960248201527f4552433732313a2061646472657373207a65726f206973206e6f74206120766160448201527f6c6964206f776e6572000000000000000000000000000000000000000000000060648201526084016105d6565b506001600160a01b03166000908152609a602052604090205490565b610c38611cf5565b610c426000611e6a565b565b600054610100900460ff1615808015610c645750600054600160ff909116105b80610c7e5750303b158015610c7e575060005460ff166001145b610cf05760405162461bcd60e51b815260206004820152602e60248201527f496e697469616c697a61626c653a20636f6e747261637420697320616c72656160448201527f647920696e697469616c697a656400000000000000000000000000000000000060648201526084016105d6565b6000805460ff191660011790558015610d13576000805461ff0019166101001790555b610d876040518060400160405280600b81526020017f4d61676963506978656c730000000000000000000000000000000000000000008152506040518060400160405280600481526020017f4d47505800000000000000000000000000000000000000000000000000000000815250611eca565b610d8f611f3f565b610d97611f3f565b610d9f611f3f565b610da7611faa565b6101c780546bffffffffffffffffffffffff1916604617905580156108e8576000805461ff0019169055604051600181527f7f26b83ff96e1f2b6a682f133852f6798a09c465da95921460cefb38474024989060200160405180910390a150565b60606098805461049c90613766565b610e2233838361201d565b5050565b610e2e611cf5565b6101c780546bffffffffffffffffffffffff19166bffffffffffffffffffffffff92909216919091179055565b610e653383611980565b610ec75760405162461bcd60e51b815260206004820152602d60248201527f4552433732313a2063616c6c6572206973206e6f7420746f6b656e206f776e6560448201526c1c881bdc88185c1c1c9bdd9959609a1b60648201526084016105d6565b610ed3848484846120eb565b50505050565b6101c7546c0100000000000000000000000090046001600160a01b03163314610f445760405162461bcd60e51b815260206004820152600c60248201527f6e6f7420616c6c6f7765642e000000000000000000000000000000000000000060448201526064016105d6565b6000610f506101c35490565b9050610f616101c380546001019055565b610f6b8582612174565b60008181526101c4602090815260409091208551610f8b92870190612ef4565b5081156110985760008181526101c560205260408120905b610fae60018561380d565b81101561109557816040518060400160405280878785818110610fd357610fd36137f7565b9050602002810190610fe59190613820565b6000818110610ff657610ff66137f7565b905060200201358152602001878785818110611014576110146137f7565b90506020028101906110269190613820565b6001818110611037576110376137f7565b6020908102929092013561ffff9081169093525083546001808201865560009586529482902084516002928302909101908155939091015192909301805461ffff19169290911691909117905561108e908261386a565b9050610fa3565b50505b5050505050565b60008181526101c460209081526040808320805482518185028101850190935280835260609493849084015b828210156111555760008481526020908190208301805460408051828502810185019091528181529283018282801561114157602002820191906000526020600020906000905b825461010083900a900460ff168152602060019283018181049485019490930390920291018084116111125790505b5050505050815260200190600101906110cb565b50505050905060006101c56000858152602001908152602001600020805480602002602001604051908101604052809291908181526020016000905b828210156111d457600084815260209081902060408051808201909152600285029091018054825260019081015461ffff16828401529083529092019101611191565b50505050905060006111e6835161218e565b60408051602081019091526000808252919250905b8451811015611690576000858281518110611218576112186137f7565b6020026020010151905080516001036112dc578261123e611239868561387d565b61227d565b61126260018761124e818861386a565b61125891906137e3565b611239919061380d565b6101c660008560008151811061127a5761127a6137f7565b602002602001015160ff1660ff1681526020019081526020016000206040516020016112a893929190613920565b60408051601f19818403018152908290526112c69291602001613a20565b604051602081830303815290604052925061167d565b60408051808201909152600481527f302e30300000000000000000000000000000000000000000000000000000000060208201528551156114ae576000805b875181101561137f5784888281518110611337576113376137f7565b6020026020010151600001510361136d5787818151811061135a5761135a6137f7565b602002602001015160200151915061137f565b8061137781613a4f565b91505061131b565b50600061138f8261ffff1661227d565b905060005b81518110156114aa578060020361140a57816000815181106113b8576113b86137f7565b602001015160f81c60f81b846000815181106113d6576113d66137f7565b60200101907effffffffffffffffffffffffffffffffffffffffffffffffffffffffffffff1916908160001a9053506114aa565b81816001845161141a919061380d565b611424919061380d565b81518110611434576114346137f7565b602001015160f81c60f81b84826001875161144f919061380d565b611459919061380d565b81518110611469576114696137f7565b60200101907effffffffffffffffffffffffffffffffffffffffffffffffffffffffffffff1916908160001a905350806114a281613a4f565b915050611394565b5050505b606060005b835181116115d057816101c66000868751856114cf919061387d565b815181106114df576114df6137f7565b602002602001015160ff1660ff16815260200190815260200160002060405160200161150b9190613a68565b60408051601f19818403018152908290526115299291602001613a20565b60405160208183030381529060405291506101c660008586518461154d919061387d565b8151811061155d5761155d6137f7565b602002602001015160ff1660ff168152602001908152602001600020805461158490613766565b90506000036115be576115be8485518361159e919061387d565b815181106115ae576115ae6137f7565b602002602001015160ff1661231d565b806115c881613a4f565b9150506114b3565b50846115df611239888761387d565b6115ef60018961124e818a61386a565b6101c6600087600081518110611607576116076137f7565b602002602001015160ff1660ff16815260200190815260200160002061163487516001611239919061386a565b868660405160200161164b96959493929190613aa1565b60408051601f19818403018152908290526116699291602001613a20565b604051602081830303815290604052945050505b508061168881613a4f565b9150506111fb565b5061169a8261227d565b6116a38361227d565b826040516020016116b693929190613d02565b604051602081830303815290604052945050505050919050565b6116d8611cf5565b60005b60ff81168211156106775782828260ff168181106116fb576116fb6137f7565b905060200281019061170d9190613eb2565b60ff831660009081526101c6602052604090209161172c919083613f47565b508061173781614007565b9150506116db565b611747611cf5565b6001600160a01b0381166117c35760405162461bcd60e51b815260206004820152602660248201527f4f776e61626c653a206e6577206f776e657220697320746865207a65726f206160448201527f646472657373000000000000000000000000000000000000000000000000000060648201526084016105d6565b6108e881611e6a565b606060006117d983610b96565b90508067ffffffffffffffff8111156117f4576117f46133c4565b60405190808252806020026020018201604052801561183957816020015b60408051808201909152606080825260208201528152602001906001900390816118125790505b50915060005b8181101561188f57600061185385836107b1565b905061185e816108eb565b848381518110611870576118706137f7565b602002602001018190525050808061188790613a4f565b91505061183f565b5050919050565b600061048782612390565b6000818152609960205260409020546001600160a01b03166108e85760405162461bcd60e51b815260206004820152601860248201527f4552433732313a20696e76616c696420746f6b656e204944000000000000000060448201526064016105d6565b6000818152609b60205260409020805473ffffffffffffffffffffffffffffffffffffffff19166001600160a01b038416908117909155819061194782610ae8565b6001600160a01b03167f8c5be1e5ebec7d5bd14f71427d1e84f3dd0314c0f7b2291e5b200ac8c7c3b92560405160405180910390a45050565b60008061198c83610ae8565b9050806001600160a01b0316846001600160a01b031614806119d357506001600160a01b038082166000908152609c602090815260408083209388168352929052205460ff165b806119f75750836001600160a01b03166119ec8461051f565b6001600160a01b0316145b949350505050565b826001600160a01b0316611a1282610ae8565b6001600160a01b031614611a765760405162461bcd60e51b815260206004820152602560248201527f4552433732313a207472616e736665722066726f6d20696e636f72726563742060448201526437bbb732b960d91b60648201526084016105d6565b6001600160a01b038216611af15760405162461bcd60e51b8152602060048201526024808201527f4552433732313a207472616e7366657220746f20746865207a65726f2061646460448201527f726573730000000000000000000000000000000000000000000000000000000060648201526084016105d6565b611afe83838360016123ce565b826001600160a01b0316611b1182610ae8565b6001600160a01b031614611b755760405162461bcd60e51b815260206004820152602560248201527f4552433732313a207472616e736665722066726f6d20696e636f72726563742060448201526437bbb732b960d91b60648201526084016105d6565b6000818152609b60209081526040808320805473ffffffffffffffffffffffffffffffffffffffff199081169091556001600160a01b03878116808652609a8552838620805460001901905590871680865283862080546001019055868652609990945282852080549092168417909155905184937fddf252ad1be2c89b69c2b068fc378daa952ba7f163c4a11628f55a4df523b3ef91a4505050565b6000611c1d82610ae8565b9050611c28826123da565b6101c75460008381526101c460205260409081902090517f749c51b70000000000000000000000000000000000000000000000000000000081526c010000000000000000000000009092046001600160a01b03169163749c51b791611c9291859190600401614026565b600060405180830381600087803b158015611cac57600080fd5b505af1158015611cc0573d6000803e3d6000fd5b50505060008381526101c460205260408120611cdd925090612f51565b60008281526101c560205260408120610e2291612f6f565b610191546001600160a01b03163314610c425760405162461bcd60e51b815260206004820181905260248201527f4f776e61626c653a2063616c6c6572206973206e6f7420746865206f776e657260448201526064016105d6565b6127106bffffffffffffffffffffffff82161115611dd65760405162461bcd60e51b815260206004820152602a60248201527f455243323938313a20726f79616c7479206665652077696c6c2065786365656460448201527f2073616c6550726963650000000000000000000000000000000000000000000060648201526084016105d6565b6001600160a01b038216611e2c5760405162461bcd60e51b815260206004820152601960248201527f455243323938313a20696e76616c69642072656365697665720000000000000060448201526064016105d6565b604080518082019091526001600160a01b039092168083526bffffffffffffffffffffffff9091166020909201829052600160a01b90910217606555565b61019180546001600160a01b0383811673ffffffffffffffffffffffffffffffffffffffff19831681179093556040519116919082907f8be0079c531659141344cd1fd0a4f28419497f9722a3daafe3b4186f6b6457e090600090a35050565b600054610100900460ff16611f355760405162461bcd60e51b815260206004820152602b60248201527f496e697469616c697a61626c653a20636f6e7472616374206973206e6f74206960448201526a6e697469616c697a696e6760a81b60648201526084016105d6565b610e2282826123f4565b600054610100900460ff16610c425760405162461bcd60e51b815260206004820152602b60248201527f496e697469616c697a61626c653a20636f6e7472616374206973206e6f74206960448201526a6e697469616c697a696e6760a81b60648201526084016105d6565b600054610100900460ff166120155760405162461bcd60e51b815260206004820152602b60248201527f496e697469616c697a61626c653a20636f6e7472616374206973206e6f74206960448201526a6e697469616c697a696e6760a81b60648201526084016105d6565b610c42612478565b816001600160a01b0316836001600160a01b03160361207e5760405162461bcd60e51b815260206004820152601960248201527f4552433732313a20617070726f766520746f2063616c6c65720000000000000060448201526064016105d6565b6001600160a01b038381166000818152609c6020908152604080832094871680845294825291829020805460ff191686151590811790915591519182527f17307eab39ab6107e8899845ad3d59bd9653f200f220920489ca2b5937696c31910160405180910390a3505050565b6120f68484846119ff565b612102848484846124ec565b610ed35760405162461bcd60e51b815260206004820152603260248201527f4552433732313a207472616e7366657220746f206e6f6e20455243373231526560448201527f63656976657220696d706c656d656e746572000000000000000000000000000060648201526084016105d6565b610e22828260405180602001604052806000815250612643565b6000816000036121a057506000919050565b600060016121ad846126cc565b901c6001901b905060018184816121c6576121c66137cd565b048201901c905060018184816121de576121de6137cd565b048201901c905060018184816121f6576121f66137cd565b048201901c9050600181848161220e5761220e6137cd565b048201901c90506001818481612226576122266137cd565b048201901c9050600181848161223e5761223e6137cd565b048201901c90506001818481612256576122566137cd565b048201901c905061227681828581612270576122706137cd565b04612760565b9392505050565b6060600061228a83612776565b600101905060008167ffffffffffffffff8111156122aa576122aa6133c4565b6040519080825280601f01601f1916602001820160405280156122d4576020820181803683370190505b5090508181016020015b600019017f3031323334353637383961626364656600000000000000000000000000000000600a86061a8153600a85049450846122de57509392505050565b6108e88160405160240161233391815260200190565b60408051601f198184030181529190526020810180517bffffffffffffffffffffffffffffffffffffffffffffffffffffffff167ff82c50f100000000000000000000000000000000000000000000000000000000179052612858565b60006001600160e01b031982167f49064906000000000000000000000000000000000000000000000000000000001480610487575061048782612861565b610ed38484848461289f565b6123e3816129d4565b600090815260666020526040812055565b600054610100900460ff1661245f5760405162461bcd60e51b815260206004820152602b60248201527f496e697469616c697a61626c653a20636f6e7472616374206973206e6f74206960448201526a6e697469616c697a696e6760a81b60648201526084016105d6565b609761246b838261464a565b506098610677828261464a565b600054610100900460ff166124e35760405162461bcd60e51b815260206004820152602b60248201527f496e697469616c697a61626c653a20636f6e7472616374206973206e6f74206960448201526a6e697469616c697a696e6760a81b60648201526084016105d6565b610c4233611e6a565b60006001600160a01b0384163b1561263857604051630a85bd0160e11b81526001600160a01b0385169063150b7a029061253090339089908890889060040161470a565b6020604051808303816000875af192505050801561256b575060408051601f3d908101601f191682019092526125689181019061473c565b60015b61261e573d808015612599576040519150601f19603f3d011682016040523d82523d6000602084013e61259e565b606091505b5080516000036126165760405162461bcd60e51b815260206004820152603260248201527f4552433732313a207472616e7366657220746f206e6f6e20455243373231526560448201527f63656976657220696d706c656d656e746572000000000000000000000000000060648201526084016105d6565b805181602001fd5b6001600160e01b031916630a85bd0160e11b1490506119f7565b506001949350505050565b61264d8383612a14565b61265a60008484846124ec565b6106775760405162461bcd60e51b815260206004820152603260248201527f4552433732313a207472616e7366657220746f206e6f6e20455243373231526560448201527f63656976657220696d706c656d656e746572000000000000000000000000000060648201526084016105d6565b600080608083901c156126e157608092831c92015b604083901c156126f357604092831c92015b602083901c1561270557602092831c92015b601083901c1561271757601092831c92015b600883901c1561272957600892831c92015b600483901c1561273b57600492831c92015b600283901c1561274d57600292831c92015b600183901c156104875760010192915050565b600081831061276f5781612276565b5090919050565b6000807a184f03e93ff9f4daa797ed6e38ed64bf6a1f01000000000000000083106127bf577a184f03e93ff9f4daa797ed6e38ed64bf6a1f010000000000000000830492506040015b6d04ee2d6d415b85acef810000000083106127eb576d04ee2d6d415b85acef8100000000830492506020015b662386f26fc10000831061280957662386f26fc10000830492506010015b6305f5e1008310612821576305f5e100830492506008015b612710831061283557612710830492506004015b60648310612847576064830492506002015b600a83106104875760010192915050565b6108e881612bba565b60006001600160e01b031982167f780e9d63000000000000000000000000000000000000000000000000000000001480610487575061048782612bdb565b60018111156129165760405162461bcd60e51b815260206004820152603560248201527f455243373231456e756d657261626c653a20636f6e736563757469766520747260448201527f616e7366657273206e6f7420737570706f72746564000000000000000000000060648201526084016105d6565b816001600160a01b0385166129725761296d8160cb8054600083815260cc60205260408120829055600182018355919091527fa7ce836d032b2bf62b7e2097a8e0a6d8aeb35405ad15271e96d3b0188a1d06fb0155565b612995565b836001600160a01b0316856001600160a01b031614612995576129958582612c4d565b6001600160a01b0384166129b1576129ac81612cea565b611098565b846001600160a01b0316846001600160a01b031614611098576110988482612d99565b6129dd81612ddd565b600081815260fb6020526040902080546129f690613766565b1590506108e857600081815260fb602052604081206108e891612f90565b6001600160a01b038216612a6a5760405162461bcd60e51b815260206004820181905260248201527f4552433732313a206d696e7420746f20746865207a65726f206164647265737360448201526064016105d6565b6000818152609960205260409020546001600160a01b031615612acf5760405162461bcd60e51b815260206004820152601c60248201527f4552433732313a20746f6b656e20616c7265616479206d696e7465640000000060448201526064016105d6565b612add6000838360016123ce565b6000818152609960205260409020546001600160a01b031615612b425760405162461bcd60e51b815260206004820152601c60248201527f4552433732313a20746f6b656e20616c7265616479206d696e7465640000000060448201526064016105d6565b6001600160a01b0382166000818152609a60209081526040808320805460010190558483526099909152808220805473ffffffffffffffffffffffffffffffffffffffff19168417905551839291907fddf252ad1be2c89b69c2b068fc378daa952ba7f163c4a11628f55a4df523b3ef908290a45050565b60006a636f6e736f6c652e6c6f679050600080835160208501845afa505050565b60006001600160e01b031982167f80ac58cd000000000000000000000000000000000000000000000000000000001480612c3e57506001600160e01b031982167f5b5e139f00000000000000000000000000000000000000000000000000000000145b80610487575061048782612e8d565b60006001612c5a84610b96565b612c64919061380d565b600083815260ca6020526040902054909150808214612cb7576001600160a01b038416600090815260c960209081526040808320858452825280832054848452818420819055835260ca90915290208190555b50600091825260ca602090815260408084208490556001600160a01b03909416835260c981528383209183525290812055565b60cb54600090612cfc9060019061380d565b600083815260cc602052604081205460cb8054939450909284908110612d2457612d246137f7565b906000526020600020015490508060cb8381548110612d4557612d456137f7565b600091825260208083209091019290925582815260cc909152604080822084905585825281205560cb805480612d7d57612d7d614759565b6001900381819060005260206000200160009055905550505050565b6000612da483610b96565b6001600160a01b03909316600090815260c960209081526040808320868452825280832085905593825260ca9052919091209190915550565b6000612de882610ae8565b9050612df88160008460016123ce565b612e0182610ae8565b6000838152609b60209081526040808320805473ffffffffffffffffffffffffffffffffffffffff199081169091556001600160a01b038516808552609a845282852080546000190190558785526099909352818420805490911690555192935084927fddf252ad1be2c89b69c2b068fc378daa952ba7f163c4a11628f55a4df523b3ef908390a45050565b60006001600160e01b031982167f2a55205a00000000000000000000000000000000000000000000000000000000148061048757507f01ffc9a7000000000000000000000000000000000000000000000000000000006001600160e01b0319831614610487565b828054828255906000526020600020908101928215612f41579160200282015b82811115612f415782518051612f31918491602090910190612fca565b5091602001919060010190612f14565b50612f4d92915061306c565b5090565b50805460008255906000526020600020908101906108e8919061306c565b50805460008255600202906000526020600020908101906108e89190613089565b508054612f9c90613766565b6000825580601f10612fac575050565b601f0160209004906000526020600020908101906108e891906130ab565b82805482825590600052602060002090601f016020900481019282156130605791602002820160005b8382111561303157835183826101000a81548160ff021916908360ff1602179055509260200192600101602081600001049283019260010302612ff3565b801561305e5782816101000a81549060ff0219169055600101602081600001049283019260010302613031565b505b50612f4d9291506130ab565b80821115612f4d57600061308082826130c0565b5060010161306c565b5b80821115612f4d576000815560018101805461ffff1916905560020161308a565b5b80821115612f4d57600081556001016130ac565b50805460008255601f0160209004906000526020600020908101906108e891906130ab565b6001600160e01b0319811681146108e857600080fd5b60006020828403121561310d57600080fd5b8135612276816130e5565b60005b8381101561313357818101518382015260200161311b565b50506000910152565b60008151808452613154816020860160208601613118565b601f01601f19169290920160200192915050565b602081526000612276602083018461313c565b60006020828403121561318d57600080fd5b5035919050565b80356001600160a01b03811681146131ab57600080fd5b919050565b600080604083850312156131c357600080fd5b6131cc83613194565b946020939093013593505050565b6000806000606084860312156131ef57600080fd5b6131f884613194565b925061320660208501613194565b9150604084013590509250925092565b6000806040838503121561322957600080fd5b50508035926020909101359150565b600081518084526020808501945080840160005b838110156132775781518051885283015161ffff16838801526040909601959082019060010161324c565b509495945050505050565b60006040830182516040855281815180845260608701915060608160051b8801019350602080840193506000805b8381101561330757898703605f19018552855180518089529084019084890190845b818110156132f157835160ff16835292860192918601916001016132d2565b50909850505094820194938201936001016132b0565b5050808701519350878503818901525050506133238282613238565b95945050505050565b6020815260006122766020830184613282565b60006020828403121561335157600080fd5b61227682613194565b6000806040838503121561336d57600080fd5b61337683613194565b91506020830135801515811461338b57600080fd5b809150509250929050565b6000602082840312156133a857600080fd5b81356bffffffffffffffffffffffff8116811461227657600080fd5b634e487b7160e01b600052604160045260246000fd5b604051601f8201601f1916810167ffffffffffffffff81118282101715613403576134036133c4565b604052919050565b6000806000806080858703121561342157600080fd5b61342a85613194565b93506020613439818701613194565b935060408601359250606086013567ffffffffffffffff8082111561345d57600080fd5b818801915088601f83011261347157600080fd5b813581811115613483576134836133c4565b613495601f8201601f191685016133da565b915080825289848285010111156134ab57600080fd5b808484018584013760008482840101525080935050505092959194509250565b600067ffffffffffffffff8211156134e5576134e56133c4565b5060051b60200190565b60008083601f84011261350157600080fd5b50813567ffffffffffffffff81111561351957600080fd5b6020830191508360208260051b85010111156107aa57600080fd5b6000806000806060858703121561354a57600080fd5b61355385613194565b9350602085013567ffffffffffffffff8082111561357057600080fd5b818701915087601f83011261358457600080fd5b61359661359183356134cb565b6133da565b82358082526020808301929160051b8501018a8111156135b557600080fd5b602085015b8181101561365c5784813511156135d057600080fd5b803586018c603f8201126135e357600080fd5b60208101356135f4613591826134cb565b81815260059190911b82016040019060208101908f83111561361557600080fd5b6040840193505b8284101561364757833560ff81161461363457600080fd5b833582526020938401939091019061361c565b875250506020948501949190910190506135ba565b509096505050604087013591508082111561367657600080fd5b50613683878288016134ef565b95989497509550505050565b600080602083850312156136a257600080fd5b823567ffffffffffffffff8111156136b957600080fd5b6136c5858286016134ef565b90969095509350505050565b600080604083850312156136e457600080fd5b6136ed83613194565b91506136fb60208401613194565b90509250929050565b6000602080830181845280855180835260408601915060408160051b870101925083870160005b8281101561375957603f19888603018452613747858351613282565b9450928501929085019060010161372b565b5092979650505050505050565b600181811c9082168061377a57607f821691505b60208210810361379a57634e487b7160e01b600052602260045260246000fd5b50919050565b634e487b7160e01b600052601160045260246000fd5b8082028115828204841417610487576104876137a0565b634e487b7160e01b600052601260045260246000fd5b6000826137f2576137f26137cd565b500490565b634e487b7160e01b600052603260045260246000fd5b81810381811115610487576104876137a0565b6000808335601e1984360301811261383757600080fd5b83018035915067ffffffffffffffff82111561385257600080fd5b6020019150600581901b36038213156107aa57600080fd5b80820180821115610487576104876137a0565b60008261388c5761388c6137cd565b500690565b600081516138a3818560208601613118565b9290920192915050565b600081546138ba81613766565b600182811680156138d257600181146138e757613916565b60ff1984168752821515830287019450613916565b8560005260208060002060005b8581101561390d5781548a8201529084019082016138f4565b50505082870194505b5050505092915050565b7f253343726563742532307769647468253344253232312532322532306865696781527f68742533442532323125323225323078253344253232000000000000000000006020820152600060368201855161397f818360208a01613118565b7f2532322532307925334425323200000000000000000000000000000000000000910190815284516139b881600d840160208901613118565b7f25323225323066696c6c25334425323200000000000000000000000000000000600d92909101918201526139f0601d8201856138ad565b7f253232253246253345000000000000000000000000000000000000000000000081526009019695505050505050565b60008351613a32818460208801613118565b835190830190613a46818360208801613118565b01949350505050565b600060018201613a6157613a616137a0565b5060010190565b6000613a7482846138ad565b7f253342000000000000000000000000000000000000000000000000000000000081526003019392505050565b7f253343726563742532307769647468253344253232312532322532306865696781527f687425334425323231253232253230782533442532320000000000000000000060208201526000603682018851613b00818360208d01613118565b7f253232253230792533442532320000000000000000000000000000000000000091019081528751613b3981600d840160208c01613118565b7f25323225323066696c6c25334425323200000000000000000000000000000000600d9290910191820152613b71601d8201886138ad565b90506525323225334560d01b81527f253343616e696d6174652532306174747269627574654e616d6525334425323260068201527f66696c6c2532322532306475722533442532320000000000000000000000000060268201528551613bde816039840160208a01613118565b7f73253232253230726570656174436f756e74253344253232696e646566696e69603992909101918201527f7465253232253230626567696e253344253232000000000000000000000000006059820152613cf5613ccc613ca3613c9d613c74613c4b606c87018b613891565b7f7325323225323000000000000000000000000000000000000000000000000000815260070190565b7f76616c75657325334425323200000000000000000000000000000000000000008152600c0190565b87613891565b7f25323225323025324625334500000000000000000000000000000000000000008152600c0190565b7f25334325324672656374253345000000000000000000000000000000000000008152600d0190565b9998505050505050505050565b7f646174613a696d6167652f7376672b786d6c3b757466382c253343737667253281527f30786d6c6e73253344253232687474702533412532462532467777772e77332e60208201527f6f726725324632303030253246737667253232253230786d6c6e73253341786c60408201527f696e6b253344253232687474702533412532462532467777772e77332e6f726760608201527f25324631393939253246786c696e6b25323225323073686170652d72656e646560808201527f72696e672533442532326f7074696d697a65537065656425323225323076696560a08201527f77426f782533442532323025323030253230000000000000000000000000000060c082015260008451613e1e8160d2850160208901613118565b7f253230000000000000000000000000000000000000000000000000000000000060d2918401918201528451613e5b8160d5840160208901613118565b6525323225334560d01b60d59290910191820152613ea8613e7f60db830186613891565b7f25334325324673766725334500000000000000000000000000000000000000008152600c0190565b9695505050505050565b6000808335601e19843603018112613ec957600080fd5b83018035915067ffffffffffffffff821115613ee457600080fd5b6020019150368190038213156107aa57600080fd5b601f82111561067757600081815260208120601f850160051c81016020861015613f205750805b601f850160051c820191505b81811015613f3f57828155600101613f2c565b505050505050565b67ffffffffffffffff831115613f5f57613f5f6133c4565b613f7383613f6d8354613766565b83613ef9565b6000601f841160018114613fa75760008515613f8f5750838201355b600019600387901b1c1916600186901b178355611098565b600083815260209020601f19861690835b82811015613fd85786850135825560209485019460019092019101613fb8565b5086821015613ff55760001960f88860031b161c19848701351681555b505060018560011b0183555050505050565b600060ff821660ff810361401d5761401d6137a0565b60010192915050565b6000604082016001600160a01b0385168352602060408185015281855480845260608601915060608160051b8701019350866000528260002060005b8281101561463c57605f1988870301845281548087526000838152602080822090890192915b82601f820110156142ef57815460ff8082168652600882901c81168b870152601082901c81166040870152601882901c81166060870152818b1c81166080870152602882901c811660a0870152603082901c811660c0870152603882901c811660e08701526141026101008701828460401c1660ff169052565b6141176101208701828460481c1660ff169052565b61412c6101408701828460501c1660ff169052565b6141416101608701828460581c1660ff169052565b6141566101808701828460601c1660ff169052565b61416b6101a08701828460681c1660ff169052565b6141806101c08701828460701c1660ff169052565b6141956101e08701828460781c1660ff169052565b6141aa6102008701828460801c1660ff169052565b6141bf6102208701828460881c1660ff169052565b6141d46102408701828460901c1660ff169052565b6141e96102608701828460981c1660ff169052565b6141fe6102808701828460a01c1660ff169052565b6142136102a08701828460a81c1660ff169052565b6142286102c08701828460b01c1660ff169052565b61423d6102e08701828460b81c1660ff169052565b6142526103008701828460c01c1660ff169052565b6142676103208701828460c81c1660ff169052565b61427c6103408701828460d01c1660ff169052565b6142916103608701828460d81c1660ff169052565b6142a66103808701828460e01c1660ff169052565b6142bb6103a08701828460e81c1660ff169052565b6142d06103c08701828460f01c1660ff169052565b5060f81c6103e085015261040090930192600191909101908801614088565b905490828110156143085760ff82168452928801926001015b8281101561432257600882901c60ff168452928801926001015b8281101561433c57601082901c60ff168452928801926001015b8281101561435657601882901c60ff168452928801926001015b8281101561436e5781891c60ff168452928801926001015b8281101561438857602882901c60ff168452928801926001015b828110156143a257603082901c60ff168452928801926001015b828110156143bc57603882901c60ff168452928801926001015b828110156143d657604082901c60ff168452928801926001015b828110156143f057604882901c60ff168452928801926001015b8281101561440a57605082901c60ff168452928801926001015b8281101561442457605882901c60ff168452928801926001015b8281101561443e57606082901c60ff168452928801926001015b8281101561445857606882901c60ff168452928801926001015b8281101561447257607082901c60ff168452928801926001015b8281101561448c57607882901c60ff168452928801926001015b828110156144a657608082901c60ff168452928801926001015b828110156144c057608882901c60ff168452928801926001015b828110156144da57609082901c60ff168452928801926001015b828110156144f457609882901c60ff168452928801926001015b8281101561450e5760a082901c60ff168452928801926001015b828110156145285760a882901c60ff168452928801926001015b828110156145425760b082901c60ff168452928801926001015b8281101561455c5760b882901c60ff168452928801926001015b828110156145765760c082901c60ff168452928801926001015b828110156145905760c882901c60ff168452928801926001015b828110156145aa5760d082901c60ff168452928801926001015b828110156145c45760d882901c60ff168452928801926001015b828110156145de5760e082901c60ff168452928801926001015b828110156145f85760e882901c60ff168452928801926001015b828110156146125760f082901c60ff168452928801926001015b828110156146265760f882901c8452928801925b5091975050509284019260019182019101614062565b509398975050505050505050565b815167ffffffffffffffff811115614664576146646133c4565b614678816146728454613766565b84613ef9565b602080601f8311600181146146ad57600084156146955750858301515b600019600386901b1c1916600185901b178555613f3f565b600085815260208120601f198616915b828110156146dc578886015182559484019460019091019084016146bd565b50858210156146fa5787850151600019600388901b60f8161c191681555b5050505050600190811b01905550565b60006001600160a01b03808716835280861660208401525083604083015260806060830152613ea8608083018461313c565b60006020828403121561474e57600080fd5b8151612276816130e5565b634e487b7160e01b600052603160045260246000fdfea264697066735822122014440c943f608c7ba1afc0ffd4546103d6937ba29dfafe817379e64e8fb575c164736f6c63430008120033",
  "linkReferences": {},
  "deployedLinkReferences": {}
}