{
  "_format": "hh-sol-artifact-1",
  "contractName": "PxlsCore",
  "sourceName": "contracts/diamond/facets/MagicPixels/PxlsCore.sol",
  "abi": [
    {
      "inputs": [],
      "stateMutability": "nonpayable",
      "type": "constructor"
    },
    {
      "inputs": [],
      "name": "InsufficientPixels",
      "type": "error"
    },
    {
      "inputs": [],
      "name": "InsufficientValue",
      "type": "error"
    },
    {
      "inputs": [],
      "name": "InvalidIndicies",
      "type": "error"
    },
    {
      "inputs": [],
      "name": "Unauthorized",
      "type": "error"
    },
    {
      "anonymous": false,
      "inputs": [
        {
          "indexed": false,
          "internalType": "address",
          "name": "conjurer",
          "type": "address"
        },
        {
          "indexed": false,
          "internalType": "bytes",
          "name": "pixels",
          "type": "bytes"
        }
      ],
      "name": "Conjured",
      "type": "event"
    },
    {
      "anonymous": false,
      "inputs": [
        {
          "indexed": false,
          "internalType": "address",
          "name": "minter",
          "type": "address"
        },
        {
          "indexed": false,
          "internalType": "bytes",
          "name": "pixels",
          "type": "bytes"
        }
      ],
      "name": "Minted",
      "type": "event"
    },
    {
      "inputs": [
        {
          "internalType": "uint256",
          "name": "numPixels",
          "type": "uint256"
        }
      ],
      "name": "conjure",
      "outputs": [],
      "stateMutability": "payable",
      "type": "function"
    },
    {
      "inputs": [
        {
          "internalType": "uint8[][]",
          "name": "pixels",
          "type": "uint8[][]"
        },
        {
          "internalType": "uint256[][]",
          "name": "delays",
          "type": "uint256[][]"
        }
      ],
      "name": "mint",
      "outputs": [],
      "stateMutability": "nonpayable",
      "type": "function"
    },
    {
      "inputs": [
        {
          "internalType": "address",
          "name": "to",
          "type": "address"
        },
        {
          "internalType": "uint8[][]",
          "name": "plate",
          "type": "uint8[][]"
        }
      ],
      "name": "restore",
      "outputs": [],
      "stateMutability": "nonpayable",
      "type": "function"
    }
  ],
  "bytecode": "0x608060405234801561001057600080fd5b50611045806100206000396000f3fe6080604052600436106100345760003560e01c8063044ef57b1461003957806341b798f31461005b578063749c51b71461006e575b600080fd5b34801561004557600080fd5b50610059610054366004610b3f565b61008e565b005b610059610069366004610c79565b61020e565b34801561007a57600080fd5b50610059610089366004610c92565b6106e6565b3360009081527fa32ac351050f01911d543184484dd0b56f1a44a545355195dea6fa48038b7375602052604081207fa32ac351050f01911d543184484dd0b56f1a44a545355195dea6fa48038b736f915b84518110156101865781600061010d87848151811061010057610100610d26565b602002602001015161090c565b7fffffffff000000000000000000000000000000000000000000000000000000001681526020810191909152604001600090812080549091906101559063ffffffff16610d52565b91906101000a81548163ffffffff021916908363ffffffff160217905550808061017e90610d72565b9150506100df565b5060078201546040517fb9f355a00000000000000000000000000000000000000000000000000000000081526001600160a01b039091169063b9f355a0906101d690339088908890600401610e04565b600060405180830381600087803b1580156101f057600080fd5b505af1158015610204573d6000803e3d6000fd5b5050505050505050565b7fa32ac351050f01911d543184484dd0b56f1a44a545355195dea6fa48038b7373547fa32ac351050f01911d543184484dd0b56f1a44a545355195dea6fa48038b736f9061025d908390610eb5565b341015610296576040517f1101129400000000000000000000000000000000000000000000000000000000815260040160405180910390fd5b60007fc8fcad8db84d3cc18b4c41d551ea0ee66dd599cde068d998e57d5e09332c131c600501546040517f2c03b0bc0000000000000000000000000000000000000000000000000000000081523360048201526001600160a01b0390911690632c03b0bc90602401602060405180830381865afa15801561031b573d6000803e3d6000fd5b505050506040513d601f19601f8201168201806040525081019061033f9190610ed2565b336000908152600684016020526040812091925061035e856004610eb5565b67ffffffffffffffff811115610376576103766109ee565b6040519080825280601f01601f1916602001820160405280156103a0576020820181803683370190505b50905060005b858110156105ec576000846103bc836001610eeb565b60408051602081019390935282015260600160408051601f19818403018152919052805160209091012090506000806103f8620186a084610f14565b905060005b60058901548110156104725788600501818154811061041e5761041e610d26565b90600052602060002090600a91828204019190066003029054906101000a900462ffffff1662ffffff16821161046057610459816001610eeb565b9250610472565b8061046a81610d72565b9150506103fd565b5060008260ff1667ffffffffffffffff811115610491576104916109ee565b6040519080825280602002602001820160405280156104ba578160200160208202803683370190505b50905060005b8360ff16811015610549578954604080516020808201899052818301859052825180830384018152606090920190925280519101206105089162010000900460ff1690610f14565b610513906001610eeb565b82828151811061052557610525610d26565b60ff909216602092830291909101909101528061054181610d72565b9150506104c0565b5060006105558261090c565b90506105718782610567896004610eb5565b9190910160200152565b7fffffffff000000000000000000000000000000000000000000000000000000008116600090815260208990526040812080549091906105b69063ffffffff16610f28565b91906101000a81548163ffffffff021916908363ffffffff160217905550505050505080806105e490610d72565b9150506103a6565b507fc8fcad8db84d3cc18b4c41d551ea0ee66dd599cde068d998e57d5e09332c1321546001600160a01b03166354a75bfb33610629600889610f4b565b6040517fffffffff0000000000000000000000000000000000000000000000000000000060e085901b1681526001600160a01b039092166004830152602482015260448101869052606401600060405180830381600087803b15801561068e57600080fd5b505af11580156106a2573d6000803e3d6000fd5b505050507f7b9c9de1b5fadc500022019e23da30793103f53252e23c9890cb271e6f85a34a33826040516106d7929190610f5f565b60405180910390a15050505050565b7fa32ac351050f01911d543184484dd0b56f1a44a545355195dea6fa48038b7376547fa32ac351050f01911d543184484dd0b56f1a44a545355195dea6fa48038b736f906001600160a01b0316331461076b576040517f82b4290000000000000000000000000000000000000000000000000000000000815260040160405180910390fd5b6001600160a01b0384166000908152600682016020526040812090610791846004610eb5565b67ffffffffffffffff8111156107a9576107a96109ee565b6040519080825280601f01601f1916602001820160405280156107d3576020820181803683370190505b50905060005b848110156108ca5760006108418787848181106107f8576107f8610d26565b905060200281019061080a9190610fbe565b8080602002602001604051908101604052809392919081815260200183836020028082843760009201919091525061090c92505050565b90506108538382610567856004610eb5565b7fffffffff000000000000000000000000000000000000000000000000000000008116600090815260208590526040812080549091906108989063ffffffff16610f28565b91906101000a81548163ffffffff021916908363ffffffff1602179055505080806108c290610d72565b9150506107d9565b507f7b9c9de1b5fadc500022019e23da30793103f53252e23c9890cb271e6f85a34a86826040516108fc929190610f5f565b60405180910390a1505050505050565b6000600382511161091e57600061093a565b8160038151811061093157610931610d26565b60200260200101515b60ff166008600284511161094f57600061096b565b8360028151811061096257610962610d26565b60200260200101515b60ff1663ffffffff16901b601060018551116109885760006109a4565b8460018151811061099b5761099b610d26565b60200260200101515b60ff1663ffffffff16901b601860008651116109c15760006109dd565b856000815181106109d4576109d4610d26565b60200260200101515b60ff16901b17171760e01b92915050565b634e487b7160e01b600052604160045260246000fd5b604051601f8201601f1916810167ffffffffffffffff81118282101715610a2d57610a2d6109ee565b604052919050565b600067ffffffffffffffff821115610a4f57610a4f6109ee565b5060051b60200190565b600082601f830112610a6a57600080fd5b81356020610a7f610a7a83610a35565b610a04565b828152600592831b8501820192828201919087851115610a9e57600080fd5b8387015b85811015610b3257803567ffffffffffffffff811115610ac25760008081fd5b8801603f81018a13610ad45760008081fd5b858101356040610ae6610a7a83610a35565b82815291851b8301810191888101908d841115610b035760008081fd5b938201935b83851015610b2157843582529389019390890190610b08565b885250505093850193508401610aa2565b5090979650505050505050565b6000806040808486031215610b5357600080fd5b833567ffffffffffffffff80821115610b6b57600080fd5b818601915086601f830112610b7f57600080fd5b81356020610b8f610a7a83610a35565b82815260059290921b8401810191818101908a841115610bae57600080fd5b8286015b84811015610c4a57803586811115610bca5760008081fd5b8701603f81018d13610bdc5760008081fd5b84810135610bec610a7a82610a35565b81815260059190911b82018a0190868101908f831115610c0c5760008081fd5b928b01925b82841015610c3a57833560ff81168114610c2b5760008081fd5b82529287019290870190610c11565b8652505050918301918301610bb2565b5097505087013593505080831115610c6157600080fd5b5050610c6f85828601610a59565b9150509250929050565b600060208284031215610c8b57600080fd5b5035919050565b600080600060408486031215610ca757600080fd5b83356001600160a01b0381168114610cbe57600080fd5b9250602084013567ffffffffffffffff80821115610cdb57600080fd5b818601915086601f830112610cef57600080fd5b813581811115610cfe57600080fd5b8760208260051b8501011115610d1357600080fd5b6020830194508093505050509250925092565b634e487b7160e01b600052603260045260246000fd5b634e487b7160e01b600052601160045260246000fd5b600063ffffffff821680610d6857610d68610d3c565b6000190192915050565b600060018201610d8457610d84610d3c565b5060010190565b6000815180845260208085019450848260051b86018286016000805b86811015610df6578484038a52825180518086529087019087860190845b81811015610de157835183529289019291890191600101610dc5565b50509a87019a94505091850191600101610da7565b509198975050505050505050565b6000606082016001600160a01b0386168352602060608185015281865180845260808601915060808160051b87010193508288016000805b83811015610e9357888703607f19018552825180518089529087019087890190845b81811015610e7d57835160ff1683529289019291890191600101610e5e565b5090985050509385019391850191600101610e3c565b5050505050508281036040840152610eab8185610d8b565b9695505050505050565b8082028115828204841417610ecc57610ecc610d3c565b92915050565b600060208284031215610ee457600080fd5b5051919050565b80820180821115610ecc57610ecc610d3c565b634e487b7160e01b600052601260045260246000fd5b600082610f2357610f23610efe565b500690565b600063ffffffff808316818103610f4157610f41610d3c565b6001019392505050565b600082610f5a57610f5a610efe565b500490565b6001600160a01b038316815260006020604081840152835180604085015260005b81811015610f9c57858101830151858201606001528201610f80565b506000606082860101526060601f19601f830116850101925050509392505050565b6000808335601e19843603018112610fd557600080fd5b83018035915067ffffffffffffffff821115610ff057600080fd5b6020019150600581901b360382131561100857600080fd5b925092905056fea26469706673582212207ab4e482ff894c9c308cbafe130c7f5fd7f4b1f545fa0ce414dab7833bb3d9b664736f6c63430008120033",
  "linkReferences": {},
  "deployedLinkReferences": {}
}